S0120000436F6C6F725F747365742E73726563F4
S1130000C82100201D160000191600001916000052
S113001000000000000000000000000000000000DC
S1130020000000000000000000000000191600009D
S1130030000000000000000019160000191600005E
S113004019160000191600001916000019160000F0
S1130050E10100001916000019160000191600002D
S1130060810100002D0F00003D0F00004D0F000026
S11300705D0F00006D0F00007D0F000019160000D9
S113008019160000191600001916000019160000B0
S113009019160000000000000000000019160000FE
S11300A019160000000000001916000000000000EE
S11300B00000000010B5064C2378002B07D1054B37
S11300C0002B02D0044800E000BF0123237010BDC0
S11300D08400002000000000603B0000084B10B5C5
S11300E0002B03D00749084800E000BF0748036815
S11300F0002B00D110BD064B002BFBD09847F9E72D
S11301000000000088000020603B0000603B00000D
S11301100000000070B50020084B98470500084C0B
S1130120FA218900A047074B186007492800A04717
S1130130064B18600522064B1A6070BDA913000017
S11301407D1D00000000002040420F00040000203C
S113015010E000E030B5084B1C68084A00258021F7
S11301604902013807D3002CFBD054609560136812
S11301700B42FCD0F5E730BD0000002010E000E0A9
S113018010B50B4B1C690B498A69986802439A6045
S1130190094B8B61002C05D0206863689847A468DC
S11301A0002CF9D1024BD9689A688A439A6010BD31
S11301B00800002000040042FFFF0F0F064A136AE4
S11301C002210B4313620122044B1A7019000B78AD
S11301D01342FCD17047C0460004004000040042B2
S11301E070B50022104B1A70002310491F25104EC1
S11301F00D4C0AE00D4908E023780133DBB223708B
S11302000F2B10D800211F2BF4D9280018400122ED
S1130210824008691042EFD00A619B009B59002B71
S1130220EAD09847E8E770BDE800002000180040D5
S1130230EC000020044A137802210B431370537816
S11302405BB2002BFBDB70470018004000B583B0A5
S1130250124A936940210B43936101A900230B7057
S113026005200F4B984705200E4B98470E4A1378EC
S113027001210B43137053785BB2002BFBDB0B4B58
S113028019004031002204C39942FCD11022084BCA
S11302901A60084B984703B000BDC04600040040F4
S11302A0C11400003514000000180040EC000020C8
S11302B000E100E035020000F0B5DE4657464E4648
S11302C04546E0B587B08046049116001F00002221
S11302D0002300218B463F24012021000096019732
S11302E05C4603944446059413E02024641A0500F4
S11302F0E540A84614E0009C019D121BAB415C46FE
S11303004D462C43A346039C45462C430394013994
S113031025D3202464420C19E7D40500A540A8463F
S113032004008C40A14692185B4114001D00059EF8
S11303304F463E40B446049E47463E40B24666465B
S113034057463E4303D00600264332002B00009C50
S1130350019D9D42DBD8CED19442D8D8CBE7039BF4
S11303605846190007B03CBC90469946A246AB4695
S1130370F0BD10B5490840230024814202D2180080
S113038010BD1C00091A631C9BB28842F9D9402392
S1130390FF2CF4D814800023F1E70000F0B583B0FB
S11303A00F00160008AA117804004C434022BC42F6
S11303B002D9100003B0F0BD002B14D102000800D4
S11303C00021194CA04701003A0000230020174CDB
S11303D0A04700220123121A8B41120C1B041A435A
S11303E032800022E5E70022012BF9D10A00002324
S11303F000210D4CA04702000B000092019338002D
S113040000210A4CA047050080239B01402298420A
S1130410CFD8790FF800009A019BA047EA00821A0E
S1130420D2B252032A43DBE759210000B90200008B
S113043010B582B004000E4B1B78002B07D00029A6
S113044005D10B4B5B78834210D01D200CE001A931
S11304500C701320074B98471320074B9847044B05
S11304605C7001221A70002002B010BD0020FBE76E
S1130470A0000020C114000035140000404B984235
S113048031D00AD93F4B98424DD03F4B98425AD075
S11304903E4B984237D0002070473D4B98420CD0D9
S11304A03C4B9842F7D1012917D000295DD002298D
S11304B015D0032915D00020EEE7012907D0002923
S11304C051D0022905D0032905D00020E4E73248A1
S11304D0E2E73248E0E73248DEE73248DCE7324818
S11304E0DAE73248D8E7012907D000293FD00229AA
S11304F005D0032905D00020CEE72D48CCE72D48B0
S1130500CAE72D48C8E7012907D0002931D00229BC
S113051005D0032905D00020BEE72848BCE72848B9
S1130520BAE72848B8E7012907D0002923D00229CF
S113053005D0032905D00020AEE72348ACE72348C3
S1130540AAE72348A8E7012907D0002915D00229E2
S113055005D0032905D000209EE71E489CE71E48CD
S11305609AE71E4898E71E4896E7032094E71D483B
S113057092E71D4890E71D488EE71D488CE7C0466A
S11305800010004200180042001C00420014004207
S113059000080042000C00420300050003000600AE
S11305A0030007000300010003001E0003001F00F6
S11305B002000D0002000E0002000F0003001100F3
S11305C0030012000300130005003F0005003E0075
S11305D0050052000300170003001800030019006F
S11305E00300040002000C00030010000500530087
S11305F00300160030B587B00B4B6A4632CB32C2CB
S113060032CB32C2009B83420BD001239A0069464D
S11306105258824206D00133062BF7D1002007B08E
S113062030BD0023D8B2FAE73C39000030B585B0BC
S113063001AA0B4B32CB32C2019B98420DD0029BD4
S1130640984208D00023039A824202D0180005B0D1
S113065030BD023302E0012300E00023DBB2F5E702
S113066054390000F0B587B006000C0017000800EC
S1130670804B9847050005AB1B221A7001325A7053
S11306809A7003AB802212011A80802252015A8090
S1130690802292019A803460BB78082B06D0337193
S11306A023880520DB0705D507B0F0BD1720EA072E
S11306B0FAD5F4E7E37B1730DB06F5D423889B07F0
S11306C0F2D43B7C002B79D13B7F002B00D081E01E
S11306D06949086A6A0003ABD35A03430B62BB78C7
S11306E0082B00D186E001A93B780B7005AB5D5D5A
S11306F02800624B98472800614B98473989BB888A
S11307000B43B978BA79114319437B78002B02D093
S113071080231B0119433268D37B5BB2002BFBDBC4
S11307202180797B4B1E99418900BB7B002B01D032
S1130730012319433268D37B5BB2002BFBDBFF231D
S11307402371002905D03268D37B5BB2002BFBDB1D
S11307506171B97AFB7A002B01D0102319433B7BDA
S1130760002B01D0202319433268D37B5BB2002BCA
S1130770FBDBA1713268D37B5BB2002BFBDB3379EB
S1130780042B3FD0082B5ED01720002B00D08BE722
S1130790D37B5BB2002BFBDB3B8D23823268D37BA4
S11307A05BB2002BFBDB7B8D23833268D37B5BB294
S11307B0002BFBDBBB8D6383002075E702A90123BB
S11307C08B700022CA703A7E0A704B70387D2D4BB4
S11307D0984779E702A901238B700022CA7024325A
S11307E0BA1812780A704B701F33FB181878254B0F
S11307F098476DE7086A6A1C520003ABD35A034357
S11308000B6270E7D37B5BB2002BFBDB2823FB5C22
S113081023743268D37B5BB2002BFBDB2923FB5CA4
S113082023753268D37B5BB2002BFBDB2A23FB5C92
S113083023763268D37B5BB2002BFBDB2B23FB5C80
S11308406376002030E7D37B5BB2002BFBDBBB6A13
S113085023613268D37B5BB2002BFBDBFB6AA361B1
S11308603268D37B5BB2002BFBDB3B6BE361002084
S11308701AE7C0462D06000000040040C114000021
S113088035140000B91500000268D37B5BB2002B5D
S1130890FBDB0379042B05D0082B09D00020002BA7
S11308A003D07047107CC0B2FBE7108A80B2F8E72F
S11308B01069F6E7F0B5C64600B50C00904600286E
S11308C00FD1002A11DD8F18094E0A4D306821001E
S11308D02B6898470134BC42F8D1404604BC90468A
S11308E0F0BD01235B429846F7E78046F5E7C04632
S11308F0340100202C010020F0B5C64600B50E00DE
S113090015000138022810D8002A11D000240C4BFD
S113091098460C4F43461868315D3B689847002859
S113092008DB0134A542F5D106E00124644203E06A
S1130930140001E001246442200004BC9046F0BD90
S11309403401002030010020F0B5DE4657464E4603
S11309504546E0B591B005000C001600296008007A
S1130960BC4B9847020023680520DB0706D511B06D
S11309703CBC90469946A246AB46F0BD236817306E
S11309809B07F4D4B449086A971C0123BB40034372
S11309900B620FA92D27F35D0B701432D3B20293AF
S11309A01800AE4B98470298AD4B9847F05D002174
S11309B0AC4B9847F37A6B712423F35CAB7125231A
S11309C0F35CEB71F37E2B72337F6B722B6898466A
S11309D01800A04B9847143000220E2306A98C4619
S11309E063441A80328A02928023DB019A4200D146
S11309F09EE00FD9C023DB01029A9A4200D192E013
S1130A0080231B029A4200D01FE103230693002394
S1130A10079308E080239B019A4200D015E110233C
S1130A2006930F3B079333680593F3680393736945
S1130A300493337E9B462623F35C9A467368994657
S1130A40002B00D1A0E080235B05994500D184E010
S1130A50737E002B02D0B37E424693732A68029FB2
S1130A60D369002BFCD10E3306AA944663441B8839
S1130A7042469381059B039A1343049A13434A46BF
S1130A8013431F435B461B021F4353465B071F432D
S1130A902723F35C002B01D104331F43737E9B0295
S1130AA0327F52021343727F120213432422B25C38
S1130AB0520413432522B25C12041343B17AF27A2E
S1130AC0114319433389FF2B00D181E08022520462
S1130AD0174319432C23F35C002B03D1624B9B78FF
S1130AE09B0701D580231F432A68D369002BFCD1BF
S1130AF0434659602A68D369002BFCD143461F60E2
S1130B000EAB80221A7000225A70DA709A70336B1E
S1130B100A93736B0B93B36B0C93F36B02930D9368
S1130B2000270AAE63E008230693073B07937AE79E
S1130B3033680593F368039373690493337E9B4688
S1130B402623F35C9A4673689946002B18D08023B9
S1130B505B05994501D0002025E02723F35C002B99
S1130B6000D075E7336A1F00C0B2404B98470100BC
S1130B700E2206AB9C46624438003D4B984712E077
S1130B8008230693002307932723F35C002B0ED03E
S1130B90069B0093079B0E2206A98C466244B16A09
S1130BA0306A344FB847002800D0E0E650E7336A93
S1130BB01F00C0B22D4B98470100069B0093079B72
S1130BC00E2206A88446624438002A4FB847EAE752
S1130BD0F37E002B00D17DE78023DB041F4379E7FC
S1130BE02000254B984707E00137042F0DD0F9B2B8
S1130BF0BB0098590028F3D0431CF5D00EA9087007
S1130C00000CC0B21D4B9847EEE70023EB602B614C
S1130C106B61AB61EB612B62AB626B620022EB85B3
S1130C20AB853033EA540133EA540133EA540133D7
S1130C30EA542868074B984704001149114B984718
S1130C40A400114BE550002091E6102306930023E5
S1130C500793E8E6F505000000040040C114000015
S1130C60351400003104000000200041DD140000B0
S1130C70730300009D0300007D040000B91500000B
S1130C80290D0000C10E000038010020C2791C2388
S1130C90002A01D118007047C28D92B2173B002A76
S1130CA0F8D10368DA69002AFCD1198502211A7E79
S1130CB00A42FCD00023EDE782791C23002A01D1EB
S1130CC018007047828D92B2173B002AF8D102684F
S1130CD0107E4007F4D5D369002BFCD1538BDBB2D3
S1130CE098061DD0980703D5022353831833E7E7EA
S1130CF0580703D5042353831A33E1E7D80703D5F0
S1130D00012353831233DBE7D80603D5102353831F
S1130D103233D5E79B0603D5202353832133CFE712
S1130D20138D0B800023CBE7F8B58000624BC558C8
S1130D302C68E369002BFCD1237EA67D1E40302362
S1130D40EB5C3122AF5C1F40F30722D5EB8D9BB2E5
S1130D50002B1CD0AA6A1378DBB2511CA9626979F2
S1130D6001290ED09BB2DB05DB0D2385EB8D013B06
S1130D709BB2EB85002B0CD1013323750133A37592
S1130D8007E0517809020B430232AA62EBE7012320
S1130D902375B30706D50223237500223133EA54A1
S1130DA0FB071AD4730765D5AB8D9BB2002B5FD0BC
S1130DB0638BDBB21A0714D43F221340002B34D0C8
S1130DC09A0711D51A223223EA54303B63837B07F6
S1130DD050D528006B6998474CE02800EB68984789
S1130DE0E0E737221340E9E75A0705D51E223223EC
S1130DF0EA542E3B6383EAE7DA0705D5132232234C
S1130E00EA54313B6383E2E7DA0605D54222322312
S1130E10EA54223B6383DAE720221A42D7D02132F4
S1130E203223EA54123B6383D1E7238DDB05DB0DC8
S1130E30DAB2696A0A706A6A511C696269790129BD
S1130E4010D0AB8D013B9BB2AB85002B12D1043388
S1130E50237500222E33EA54BB070BD528002B69D7
S1130E60984707E01B0A53706B6A01336B62E8E72B
S1130E7004232375F30604D5102323752376FB0678
S1130E800ED4B30604D52023237523763B070BD455
S1130E90330704D5082323752376BB0608D4F8BD8D
S1130EA02800EB699847ECE72800AB699847EFE71F
S1130EB02B6A28009847F2E73801002070470000A9
S1130EC0F0B50A4B1B78002B0CD1094F094E0A4D83
S1130ED00024DE515A1914600433182BF9D101226D
S1130EE0024B1A708000024BC150F0BDA2000020DA
S1130EF0A4000020BD0E00003801002000B583B01E
S1130F0009236A461370013353700133937001331C
S1130F10D3700133137101335371034B98476B46FC
S1130F20185603B000BDC046F505000010B5024BCD
S1130F301B680020984710BDA400002010B5024B88
S1130F405B680120984710BDA400002010B5024B37
S1130F509B680220984710BDA400002010B5024BE6
S1130F60DB680320984710BDA400002010B5024B95
S1130F701B690420984710BDA400002010B5024B43
S1130F805B690520984710BDA40000200C4B1B682A
S1130F90002B06D1EFF31083002B07D00022094B5E
S1130FA01A70074A136801331360704772B6BFF3AF
S1130FB05F8F0022044B1A700132024B1A70F0E763
S1130FC0BC000020C00000201C000020084B1A6850
S1130FD0013A1A601B68002B09D1064B1B78002BC1
S1130FE005D00122044B1A70BFF35F8F62B67047BD
S1130FF0BC000020C00000201C000020F0B583B01D
S113100001AC012565700027A7702570210013200D
S1131010064EB04780221203054B9A612770657013
S113102021001C20B04703B0F0BDC04635100000BD
S11310300044004100B583B001AB80221A700A78E5
S11310405A704A789A708A78DA701900014B984776
S113105003B000BDB915000010B5082803D88000FE
S11310601B4B1B589F46002030E01A4B18692DE09B
S1131070194B1B6A9B059B0F1848D84026E0154B5B
S1131080586923E0134B1B6800209B071ED51249A7
S11310901022CB681A42FCD00E4B1B685B0701D4AC
S11310A00F4813E000200F4B98470A4B9B681B0422
S11310B01B0C58430AE05023074AD35C00205B070B
S11310C004D5044BD86801E08020000210BDC0465E
S11310D060390000C40000200008004000127A00BB
S11310E0006CDC02DD14000070B50C490B6A047856
S11310F0857840780122104080014026B3430343A1
S11311002A40D20180208343134303222240120247
S11311100348034013430B6270BDC04600080040FF
S1131120FFFCFFFF082803D88000254B1B589F466F
S1131130172044E0234A136A02210B431362002060
S11311403DE0204A936902210B439361002036E07D
S11311501C4A138A02210B43138200202FE0194AF0
S1131160938A02210B439382002028E016490B68DE
S1131170022213430B60134B9A8419000E32CB687E
S11311801A42FCD0104A91680E4BD96252689A6296
S113119000229A8419001032CB681A42FCD00A4B00
S11311A01B689BB2074A9384002008E00549442247
S11311B08B5C022003438B54002000E00020704726
S11311C08439000000080040C4000020F0B5C64681
S11311D000B584B0C222D200224B9A60224A5368DE
S11311E01E218B43536001236A46137000241F4D54
S11311F0E0B26946A8470134252CF9D103A800249C
S11312004470012585700470194B98470620194BCA
S11312109847194B984701956B465C70062398468E
S11312206B4642461A701C725C7269460320134F67
S1131230B8470320124EB047124B1C725C729C726A
S1131240DC7201956B465C7042461A701C725C72CB
S113125069460020B8470020B04704B004BC90465B
S1131260F0BDC0460008004000400041C114000029
S1131270E91000002511000089120000AD120000E1
S11312806513000000040040064A936908210B43DB
S113129093610122044B1A7019000B781342FCD19C
S11312A07047C04600040040000C004070B50600C2
S11312B004000D782D0205434B78002B02D08023C7
S11312C0DB021D434B7A002B02D080231B031D43FA
S11312D04868012810D9431E184234D1022830D955
S11312E00223002201325B009842FBD812023243EF
S11312F0140080235B031D430B7A002B02D0802350
S11313009B031D43134A53785BB2002BFBDB124B48
S11313109847124B1E700F4A53785BB2002BFBDBCD
S11313200C4B9C601A0053785BB2002BFBDB094A20
S11313305368802149020B401D435560084B984770
S113134070BD0022D2E70402344380239B021D4374
S1131350D2E7C046000C00408D0F0000080C00408E
S1131360CD0F000010B504000B4A53785BB2002B7C
S1131370FBDB0A4B98470A4B1C70074A53785BB255
S1131380002BFBDB044A516880235B020B43536050
S1131390044B984710BDC046000C00408D0F000060
S11313A0040C0040CD0F000070B504001A4A5378B5
S11313B05BB2002BFBDB194B9847194B1C70164A88
S11313C053785BB2002BFBDB134E7068C004C00E75
S11313D0144B98470500124B1C707668F602F60F02
S11313E0114B1C700C4A53785BB2002BFBDB0A4B8D
S11313F09C682402240C0D4B9847002E07D1012C25
S113140007D9210028000A4B9847050001E0013460
S1131410E540280070BDC046000C00408D0F000060
S1131420040C004059100000080C0040CD0F0000CF
S11314307D1D000010B50400064B9847064B1C7038
S1131440064A53888021C9010B435380044B9847B3
S113145010BDC0468D0F0000020C0040000C00407F
S1131460CD0F000010B504000F4B98470F4B1C70B4
S11314700F4A53881B05180F53880E490B4053809D
S113148053880D490B40538011008022D2014B88B0
S11314901342FCD106494A8803020648024013431A
S11314A04B80064B984710BD8D0F0000020C004086
S11314B0000C0040FFF0FFFFFFBFFFFFCD0F000057
S11314C010B50C7824020443024B9847A4B2024B93
S11314D05C8010BD65140000000C004010B50400D1
S11314E0064B9847064B1C70064B5C882405240F5A
S11314F0054B98472000054B984710BD8D0F000001
S1131500020C0040000C0040CD0F0000A9130000A5
S113151030B5D378002B35D11378802B29D01B0616
S113152080246402234354780225AC4306D1947882
S1131530002C20D18024A402234341605478013C30
S1131540012C1CD90D042D0CA024E4052C431C43B0
S113155084620D0CD02424062C431C438462D4786A
S1131560002C22D15B031CD59378012B1ED0416142
S113157017E00023D7E7C024E4022343DDE70D4C42
S11315802340DFE741600C04240CA023DB05234344
S113159083620C0CD0231B0623438362D378002B75
S11315A003D15378013B012B02D930BD8161F8E7A7
S11315B08160FAE7FFFFFBFF10B50A00C1090023B1
S11315C0002904D14309DB0105498C4663441F24E7
S11315D02040012181401800024B984710BDC046AD
S11315E000440041111500007047000010B5054B80
S11315F09847054B9847054B9847054B9847054B2B
S1131600984710BDCD110000FD0F0000BD01000082
S11316104D020000E9150000FEE70000F8B52A4A73
S11316202A4B9A4211D01A00294B9A420DD2294AC8
S113163003339B1A9B0801339B0000222348224951
S11316408C58845004329A42FAD1234A234B9A424A
S11316500AD2D34321495B1803218B4304339B18DB
S1131660002102C29342FCD11D4AFF211D4B8B4332
S11316709360FD3990235B001B4AD1501B4AD378F9
S11316800325AB4302242343D370D3780C27BB43F5
S113169008263343D370164B987B30229043202284
S11316A010439873997BB943314399739A7BAA4346
S11316B022439A730F4A536880210B4353600E4BA5
S11316C098470E4B9847FEE7603B0000000000205F
S11316D0840000200400002084000020C4010020B5
S11316E000ED00E0000000000070004100500041E7
S11316F000480041004000410D290000111C000079
S11317000300064A1268002A04D0044A1068C31869
S1131710136070470249014A1160F6E7DC000020BB
S1131720C821002001204042704780239B014B6068
S113173000207047012070470020704770B582B0C8
S113174005000E0000226B46DA80064C6B46991D9C
S11317502800A0470028F9D16B4606331B88337054
S113176002B070BDB90C000070B505008CB2034E18
S113177021002800B0470028FAD170BD8D0C00006C
S1131780F0B585B0031C03906846C1700E0AD7B249
S1131790D8B2C01B254CA047051C6B46D878C01B8B
S11317A0A047011C281C224B9847041CF6B2022EA9
S11317B026D0032E2FD0012E02D0180005B0F0BD84
S11317C003AB5B78022B0AD01A4B98471A4A1B4B7F
S11317D01B4CA04703230028EFD1023BEDE7154B38
S11317E09847184A184B164DA84703230028E4D1FC
S11317F00021201C154B9847434243410133DCE749
S11318000C4B98470C4A0D4B0D4CA0470323002862
S1131810D3D1023BD1E7074B98470A4A0C4B084CFB
S1131820A04703230028C8D1023BC6E78D2500004A
S1131830AD2100002D280000CDCCCCCCCCCCEC3F8D
S1131840BD2000009A9999999999D93FFD200000EB
S11318509999C93F86B0C0B2C9B2D2B201238842B5
S113186001D808000133904201D2100003231B0267
S11318701843C0239B02184306B0704786B0C0B219
S1131880C9B2D2B20123884201D308000133904285
S113189001D9100003231B02184380235B02184361
S11318A006B0704710B584B0000C090C120C1B0A6A
S11318B0C4B2C9B2D2B2DBB2022B19D0032B21D0ED
S11318C00720012B01D004B010BD012908D0022942
S11318D00AD007200329F6D1012AF4D10538F2E70A
S11318E0012A21D00720EEE7012A1FD00720EAE7CA
S11318F00720012CE7D10438012AE4D0032A17D0A9
S11319000430E0E7012C03D0032C08D00720DAE7E9
S113191004200129D7D003290CD00720D3E70139AB
S1131920481E8141881DCEE70020CCE70120CAE78C
S11319300520C8E70520C6E706280FD88000094B14
S11319401B589F4608480CE008480AE0084808E08D
S1131950084806E0084804E0084802E0084800E0B7
S113196008487047A8390000C8390000D039000081
S1131970D8390000E0390000E8390000EC390000F3
S1131980F4390000C439000070B502283DD00328A2
S113199043D0012831D0254B1A68D37B5BB2002B8E
S11319A0FBDB00231371D37B5BB2002BFBDB4023F7
S11319B053711F49802212020B6A1342FCD11C4945
S11319C0802212020B6A1342FCD01848194B984724
S11319D0C4B21749802212020B6A1342FCD1134D80
S11319E02800144B9847001BC0B22A68D37B5BB213
S11319F0002BFBDB8023537170BD0D4B80229201C1
S1131A005A61802252055A61C5E7094B802292012E
S1131A109A61802252059A61BDE7054B80229201AA
S1131A205A61802252059A61B5E7C046B801002088
S1131A30004400418908000030B583B001AD0022A4
S1131A402A7001236B70AA7069464B708A700B7000
S1131A500E20114CA04769460820A04769460D2076
S1131A60A04769461C20A04729000F20A0476946CB
S1131A701720A047094B8022D2019A61802252008C
S1131A809A61802292015A61802252055A61802211
S1131A9012045A6103B030BD351000000044004107
S1131AA030B591B08023DB05009300230193FF221E
S1131AB069460A8100228B72CB72012124206C4674
S1131AC021540130215425316354013163540A9364
S1131AD0053163540131635405932382E3762276FE
S1131AE0227762761323A3766277E1235B0208935D
S1131AF080235B0303931E4B0C931E4B0D93012316
S1131B005B420E930F931C4D1C4C6A461C492800E3
S1131B10A0470028F9D1184D2C682000194B98478C
S1131B201F2318401E3B8340174A13602A68D36959
S1131B30002BFCD123680222134323600E48134B6D
S1131B401860134A134B1A60134A144B1A606A46FE
S1131B500B490A4B9847124D2B6898680021114C89
S1131B60A0472B6858680021A04711B030BDC0467B
S1131B70030004000300050050010020490900008F
S1131B8000080042FD0E000000E100E034010020E6
S1131B9069170000300100203D1700002C010020CF
S1131BA0200000209929000010B5154A00230021C7
S1131BB0937093711381002050709172117391731B
S1131BC051731174536193611177136253621385D6
S1131BD05385938503331370C0239B0093800123A3
S1131BE0D372084C08492000084B98472268D37BDD
S1131BF05BB2002BFBDB138802210B43138010BD67
S1131C0084010020B8010020002C00426506000079
S1131C10F0B5DE4657464E464546E0B591B0474BD3
S1131C209847474B9847474B9847474B984701225B
S1131C300FAB5A7001320EAB5A7001320DAB5A70B1
S1131C40424B98470023984600240025404B994670
S1131C50404B9B4626000120C84701003E48D84718
S1131C60824664203D4CA0470220C84701003A4800
S1131C70D84707906420A0470320C847010036488E
S1131C80D84708906420A0470FAC51462170A57036
S1131C900EAF6B46197F3970BE700DAE20229B18B3
S1131CA0197831704146B1700D9A0E990F982C4BEA
S1131CB098470CAB1870020A5A70000C98700D9A71
S1131CC00E990F98274B98470BAB1870020A5A705D
S1131CD0000C98700B9A0C990F98234DA846A847AE
S1131CE005000B9A0C990E98C04709900B9A0C9911
S1131CF00D98C0478046A5706B4624229B1819781E
S1131D00B970B0700C9B0D9A0E990F98174CA047A0
S1131D100400174B9847FF21089B0B40079A0A4081
S1131D20574639400490039444460294099E019610
S1131D3000951048104CA0478DE7C046ED150000F3
S1131D4015010000A91B0000A11A0000391A0000A7
S1131D5089190000911E0000983A00005501000006
S1131D60551800007D18000081170000A518000018
S1131D7039190000FC3900006529000000224308DD
S1131D808B4274D303098B425FD3030A8B4244D33F
S1131D90030B8B4228D3030C8B420DD3FF22090281
S1131DA012BA030C8B4202D31212090265D0030B40
S1131DB08B4219D300E0090AC30B8B4201D3CB0336
S1131DC0C01A5241830B8B4201D38B03C01A524178
S1131DD0430B8B4201D34B03C01A5241030B8B427A
S1131DE001D30B03C01A5241C30A8B4201D3CB0265
S1131DF0C01A5241830A8B4201D38B02C01A52414A
S1131E00430A8B4201D34B02C01A5241030A8B424C
S1131E1001D30B02C01A5241CDD2C3098B4201D364
S1131E20CB01C01A524183098B4201D38B01C01AE2
S1131E30524143098B4201D34B01C01A5241030959
S1131E408B4201D30B01C01A5241C3088B4201D308
S1131E50CB00C01A524183088B4201D38B00C01AB5
S1131E60524143088B4201D34B00C01A5241411ADC
S1131E7000D20146524110467047FFE701B50020E9
S1131E8000F0F0F802BDC0460029F7D076E77047AD
S1131E9003460B437FD4002243088B4274D30309C7
S1131EA08B425FD3030A8B4244D3030B8B4228D368
S1131EB0030C8B420DD3FF22090212BA030C8B428E
S1131EC002D31212090265D0030B8B4219D300E02E
S1131ED0090AC30B8B4201D3CB03C01A5241830BB3
S1131EE08B4201D38B03C01A5241430B8B4201D363
S1131EF04B03C01A5241030B8B4201D30B03C01A8C
S1131F005241C30A8B4201D3CB02C01A5241830A05
S1131F108B4201D38B02C01A5241430A8B4201D334
S1131F204B02C01A5241030A8B4201D30B02C01A5E
S1131F305241CDD2C3098B4201D3CB01C01A5241C5
S1131F4083098B4201D38B01C01A524143098B424E
S1131F5001D34B01C01A524103098B4201D30B0137
S1131F60C01A5241C3088B4201D3CB00C01A52415C
S1131F7083088B4201D38B00C01A524143088B4221
S1131F8001D34B00C01A5241411A00D201465241BA
S1131F90104670475DE0CA0F00D04942031000D3D9
S1131FA04042534000229C4603098B422DD3030A2E
S1131FB08B4212D3FC22890112BA030A8B420CD33E
S1131FC0890192118B4208D3890192118B4204D367
S1131FD089013AD0921100E08909C3098B4201D3E7
S1131FE0CB01C01A524183098B4201D38B01C01A21
S1131FF0524143098B4201D34B01C01A5241030998
S11320008B4201D30B01C01A5241C3088B4201D346
S1132010CB00C01A524183088B4201D38B00C01AF3
S11320205241D9D243088B4201D34B00C01A5241CA
S1132030411A00D20146634652415B10104601D357
S11320404042002B00D54942704763465B1000D3E1
S1132050404201B5002000F005F802BD0029F8D087
S113206016E770477047C0468446101C62468C468B
S1132070191C634600E0C0461FB500F075FB00283C
S113208001D40021C8421FBD10B500F0CFFA404270
S1132090013010BD10B500F067FB002801DB002003
S11320A010BD012010BDC04610B500F05DFB002836
S11320B001DD002010BD012010BDC04610B500F0A8
S11320C0EFFA002801DC002010BD012010BDC0463D
S11320D010B500F0E5FA002801DA002010BD012057
S11320E010BDC0468446081C6146FFE71FB500F0DA
S11320F00BFA002801D40021C8421FBD10B500F01E
S11321009DF94042013010BD10B500F0FDF90028E2
S113211001DB002010BD012010BDC04610B500F049
S1132120F3F9002801DD002010BD012010BDC046D8
S113213010B500F0A9F9002801DC002010BD012031
S113214010BDC04610B500F09FF9002801DA002048
S113215010BD012010BDC046F0B5CE46474615045B
S11321602D0C2E0080B50704140C3F0C9946030C6B
S11321707E435D43674363437F19340CE4199C46F3
S1132180A54203D980235B029846C4444B4651437D
S113219043433604360C250C24046544A419591809
S11321A0491920000CBC90469946F0BDF0B557463D
S11321B04E46DE464546E0B544024300C60F83B0B2
S11321C00F1C640A1B0EB24653D0FF2B27D080226B
S11321D0E400D20414437F225242904698440023E0
S11321E099469B467D027800FB0F6D0A000E009312
S11321F024D0FF2846D080230021ED00DB041D43BA
S11322007F384746381A4F460F43BF00B94633005C
S1132210009A874F53404A46BA5801939746002C78
S11322204ED108239946F7339846FD3B9B467D02E1
S11322307800FB0F6D0A000E0093DAD1002D26D131
S1132240002001213300009A7A4F53404246101A6D
S11322504A460A439200BA581D009746009B2C0038
S11322609A468B465B46022B31D15346FF2100240C
S113227038E0002C17D104239946002398460133F3
S11322809B46AFE7FF20002D0BD10221DAE728009F
S113229000F01EFB431F9D4076235B42181A002169
S11322A0AFE70321ADE7200000F012FB431F9C4081
S11322B076235B421B1A9846002399469B4691E776
S11322C00C239946F3339846FC3B9B468AE7032B41
S11322D000D1A5E05546012B00D081E00123002167
S11322E000242B406402C905600ADB070843184335
S11322F003B03CBC90469946A246AB46F0BD802450
S11323000023E403FF21EDE7FF210024EAE7012392
S1132310591A1B2966DD019A134000210024E1E7C4
S11323208023DB031C4238D01D4251D01C4364027D
S1132330640A3300FF21D5E763016C01A3423BD259
S11323401B260021013801251F0049005B00002FD6
S113235001DB9C4201D81B1B2943013E002EF3D113
S11323601C00631E9C410C4301007F310029CEDD1B
S1132370630704D00F232340042B00D0043423012B
S113238003D501002C4B80311C40FE290DDD0123B7
S1132390019AFF2113400024A4E78023DB031C439C
S11323A06402640A3300FF219CE70123019AA4011B
S11323B0640AC9B2134095E71B1B1A260121C2E720
S11323C0009B8B469A4600244CE76302E5D5002522
S11323D08024E4032C436402640A009BFF2181E708
S11323E00195C1E723002020CB40411A8C40611E97
S11323F08C411C43630704D00F232340042B00D0DB
S11324000434630105D50123019A012113400024FA
S113241068E70123019AA401640A1340002161E7DB
S11324208023DB031C436402640A5346FF2159E7FB
S1132430283A0000683A0000FFFFFFF770B5420039
S113244045024E024C00C30F6D0A120E760A240E8A
S1132450C90F0120FF2A06D0FF2C03D0A24201D1CC
S1132460B54206D070BD002DFCD1FF2CFAD1002E50
S1132470F8D18B4206D00120002AF3D12800451E52
S1132480A841EFE70020EDE7F0B5420045024C0219
S1132490C30F48006D0A120E640A000EC90FFF2A0A
S11324A01ED0FF2821D0002A0AD16E426E41F6B216
S11324B000280FD1002C0DD10020002D09D005E0FB
S11324C0002801D1002C01D08B4211D001215842A7
S11324D00843F0BD002EF7D0012001390843F8E786
S11324E0002DDED002204042F3E7002CDBD0F9E7D8
S11324F08242EBDC04DBA542E8D80020A542E8D206
S11325000121581E0843E4E7F0B542004D024C0097
S11325104602760A120EC30F6D0A240EC90FFF2A53
S113252016D0FF2C18D0002A0AD170427041C0B2D4
S1132530002C15D0002805D0012001390843F0BD36
S1132540002C13D0994214D001205B421843F6E7C3
S11325500220002EF3D1E4E70220002DEFD1E2E7C0
S1132560002DE7D10020002EE9D0EDE7002DE9D1C0
S1132570EAE7A24206DCDFDBAE4203D80020AE422B
S1132580DAD3DCE7012049420843D8E770B50028D4
S113259030D0C317C4185C40C50F200000F098F970
S11325A09E231B1A962B0DDC9622D21A94402A00E5
S11325B06402640ADBB26402DB05600AD2071843D2
S11325C0104370BD992B19DC9922D21A002A29DDF7
S11325D094402200144C1440510704D00F210A40A7
S11325E0042A00D00434620113D4A401640ADBB2C7
S11325F02A00E0E7002200230024DCE70522210072
S1132600121AD140B922D21A9440621E94410C434A
S1132610DAE7054B2A001C409F23A4011B1A640A15
S1132620DBB2C8E72200D5E7FFFFFFFBF0B54F465A
S11326304646D6465C00C0B51F03DB0F9A46174BCF
S11326400E034D0084468046360B6D0DC90F91462E
S11326503F0B640D01209D4208D09C4201D0A5424D
S11326600BD01CBC90469946A246F0BD634633434A
S1132670F7D1AC42F5D13A43F3D10120BE42F0D1B7
S1132680C845EED1514507D0002DEAD163461E431B
S11326903000461EB041E4E70020E2E7FF070000F7
S11326A0F0B54546DE4657464E46E0B51F033D0BA2
S11326B02C4F0E034C00AB465D008446360B640D74
S11326C0C90F90466D0DDB0FBC422AD0254FBD4289
S11326D02DD0002C0FD13043070081467842784139
S11326E0C0B2002D17D15F463A4314D14B460020A7
S11326F0002B0AD006E0002D02D15846024301D037
S1132700994218D04842012108433CBC904699465E
S1132710A246AB46F0BD0028F2D00120013B18438D
S1132720F3E737000743D1D002204042EDE75F468C
S11327301743CED0F8E7AC42E4DC03DA481E0121AB
S11327400843E2E75E45DDD806D000205E45DCD2D2
S11327500123481E1843D8E7C445D3D80020C445F4
S1132760F6D3D2E7FF070000F0B54E464546DE46F5
S113277057465C00E0B51F03DB0F99462A4B0E0356
S11327804D00C90F8446360B6D0D8B4690463F0BAA
S1132790640D9D4220D0244B9C4222D0002D12D1A6
S11327A0304343424341DBB2002C1FD0002B0CD0FA
S11327B04B460120013B034318003CBC904699461C
S11327C0A246AB46F0BD002C16D0CB4517D05B46D5
S11327D0594201230B43EFE7310002230143EBD1BC
S11327E0D9E7390002231143E6D1D7E73A43DDD1D3
S11327F000230028E0D0EAE73A43E6D1E7E7A54220
S1132800E5DC05DBBE42E2D807D00023BE42D3D2CA
S11328105946012301390B43CEE7C445D7D80023D9
S1132820C445F5D3C8E7C046FF0700004100090EC0
S11328304B1C70B5DBB24602750AC40F012B14DDC4
S1132840E0239B006D07360BCB1800210A0D2800EE
S113285012051C4D32435B052A405B0813435B00A1
S1132860E4075B082343190070BD002914D1002D2F
S11328701ED0280000F02CF80A281CDC0B232A00A8
S11328801B1ADA40030015339D400F4B12031B1A29
S11328905B05160B5B0DD8E7002D06D0320B8026A6
S11328A036036D071643094BCFE7084B0026CCE7E8
S11328B000230026C9E703002A000B3B9A400025A9
S11328C0E3E7C046FFFF0F8089030000FF07000015
S11328D01C2101231B04984201D3000C10391B0A4C
S11328E0984201D3000A08391B09984201D3000910
S11328F0043902A2105C40187047C0460403020267
S113290001010101000000000000000070B5002674
S11329100C4D0D4C641BA410A64209D1002601F0F5
S11329200FF90A4D0A4C641BA410A64205D170BDD0
S1132930B300EB5898470136EEE7B300EB589847DD
S11329400136F2E74C3B00004C3B00004C3B0000DE
S1132950503B000003008218934200D17047197065
S11329600133F9E70FB40B4B13B51C68002C05D0E9
S1132970A369002B02D1200000F0BCF905AB049A36
S1132980A1682000019300F08BFB16BC08BC04B0C6
S11329901847C046200000204A424A41802310B50F
S11329A05200DB0000F002F810BD0000F0B51D007D
S11329B04F4B85B01E6804000F000092002E05D016
S11329C0B369002B02D1300000F094F9494B9C42CA
S11329D050D17468009B022B05D0012B00D984E0F0
S11329E0002D00DA81E02100300000F015F9616B60
S11329F0002908D023004433994202D0300000F06B
S1132A007FFA002363630023A3616360A3891B0629
S1132A1003D52169300000F073FAA389364A1340C4
S1132A20A381009B022B5AD003AB02AA21003000E1
S1132A3000F0F6F9A3891843A081002D24D1029D4A
S1132A40280000F053FA0195071E42D1029B01931E
S1132A50AB4239D1012040420223A2891343A3810E
S1132A600023A360230047332360236101236361B0
S1132A7005B0F0BD214B9C4201D1B468AAE7204BBC
S1132A809C42A7D1F468A5E7002FD9D0B369002BE5
S1132A9002D1300000F02EF9009B012B03D1A38951
S1132AA0009A1A43A2810820A389276027616561DF
S1132AB0184018D0012018400023984211D06D42CC
S1132AC0A360A5611800D3E7019800F00FFA071E70
S1132AD0C0D08023A289019D1343A381D6E700209F
S1132AE0BAE7A560C4E7A060C2E701204042BFE79F
S1132AF020000020CC3A00005CF3FFFFEC3A000019
S1132B00AC3A0000F7B58A8905000C00130760D4BD
S1132B104B68002B04DC0B6C002B01DC0020FEBD99
S1132B20E76A002FFAD000232E682B6080235B0114
S1132B301A4034D0606DA3895B0706D56368C01A58
S1132B40636B002B01D0236CC01A0200216A00239E
S1132B502800E76AB847A189431C06D12B681D2BBE
S1132B6031D82C4ADA40D3072DD50023636023697A
S1132B702360CB0405D5431C02D12B68002B00D164
S1132B806065616B2E600029C8D0230044339942EC
S1132B9002D0280000F0B4F900206063BFE70123ED
S1132BA0216A2800B847431CC5D12B68002BC2D02A
S1132BB01D2B01D0162B01D12E60AFE74023A28933
S1132BC01343A381ABE740230B430120A38140427D
S1132BD0A5E70F69002FA1D00B680F60DB1B0193E1
S1132BE00023920700D14B69A360019B002B00DCFA
S1132BF094E7019B3A00216A2800A66AB04700289E
S1132C0003DC4023A2891343DFE7019B3F181B1A0F
S1132C100193EAE7010040200B6970B505000C0040
S1132C20002B01D1002070BD002804D08369002B43
S1132C3001D100F05FF80B4B9C4209D16C680C2267
S1132C40A35E002BEED021002800FFF75BFFEAE72C
S1132C50054B9C4201D1AC68F1E7044B9C42EED198
S1132C60EC68ECE7CC3A0000EC3A0000AC3A000027
S1132C7010B5024900F0B2F810BDC046192C00008E
S1132C80002310B5040003604360836081814366C0
S1132C90C281036143618361190008225C30FFF73C
S1132CA059FE054B24626362044BA362044BE36246
S1132CB0044B236310BDC0460D36000035360000BA
S1132CC06D3600009936000070B568254A1E5543DC
S1132CD00E002900743100F05DF9041E08D00021B3
S1132CE02A00016046600C30A0606832FFF732FEB3
S1132CF0200070BD836913B50400002B28D18364C0
S1132D00C3640365134B144A1B688262019398429F
S1132D1001D101238361200000F020F860602000CD
S1132D2000F01CF8A060200000F018F80022E06019
S1132D3004216068FFF7A4FF01220921A068FFF7BE
S1132D409FFF02221221E068FFF79AFF0123A3618B
S1132D5013BDC046A83A0000712C0000F8B51E4B04
S1132D6007001E68B369002B02D13000FFF7C2FFD1
S1132D704836B4687368013B04D53368002B07D028
S1132D803668F6E70C22A55E002D0DD06834F2E714
S1132D9004213800FFF798FF30600028F0D10C239D
S1132DA004003B602000F8BD012320005B42E38166
S1132DB00233A38165662560A56065602561656150
S1132DC0A561082229005C30FFF7C4FD6563A56393
S1132DD0A564E564E6E7C046A83A0000F7B5040038
S1132DE00700002601914834002C01D13000FEBDBB
S1132DF06368A5680093009B013B009301D5246898
S1132E00F2E7AB89012B08D90E22AB5E013304D063
S1132E1029003800019B984706436835EBE700001A
S1132E2070B50E001D000E23C95E90B01400002979
S1132E3007DA00232B60B3891B0611D48023DB003F
S1132E400FE001AA00F020FD0028F2DBF022029B33
S1132E5012021340054A9B185A4253412B60EDE776
S1132E6040230020236010B070BDC04600E0FFFF87
S1132E70F7B502268B8905000C00334206D02300E7
S1132E8047332360236101236361F7BD01AB6A46C5
S1132E90FFF7C6FF00990700280000F07BF8002820
S1132EA006D10C22A35E9A05EFD41E43A681E6E761
S1132EB00D4BAB628023A28920601343A381009B46
S1132EC020616361019B002B0AD00E23E15E280080
S1132ED000F0ECFC002803D00123A2891343A38152
S1132EE0A0893843A081D0E7712C000010B5034BB2
S1132EF00100186800F04EF810BDC0462000002004
S1132F0070B50500002910D00C1F2368002B00DACF
S1132F10E418280000F0FBFC1D4A1368002B05D1BF
S1132F2063601460280000F0F3FC70BDA34209D96B
S1132F30216860188342F3D118685B6841182160E6
S1132F40EEE713005A68002A01D0A242F9D91968A1
S1132F505818A0420BD120680918581819608242E9
S1132F60E0D110685268411819605A60DAE7A0424B
S1132F7002D90C232B60D5E721686018824203D163
S1132F80106852684118216062605C60CAE7C046FC
S1132F90E0000020032370B5CD1C9D4308350600D6
S1132FA00C2D1ED20C25A9421DD8300000F0AFFC18
S1132FB0254A14682100002919D1244C2368002BC8
S1132FC003D1300000F010FB20602900300000F035
S1132FD00BFB431C2CD10C233000336000F098FC15
S1132FE003E0002DDFDA0C233360002070BD0B6892
S1132FF05B1B1AD40B2B03D90B60CC18256003E0A0
S11330008C420ED163681360300000F081FC200014
S113301007220B30231D9043C31AE7D05A42E250D3
S1133020E4E74B6863600C00EEE70C004968C2E714
S11330300323C41C9C43A042E0D0211A300000F0BA
S1133040D3FA431CDAD1C6E7E0000020E4000020F4
S1133050936810B5013B9360002B05DA9469A34291
S113306008DBCBB20A2B05D01368581C106019700A
S1133070C8B210BD00F016FBFBE7F8B506000F0060
S11330801400D518AC4201D1002007E021783A00A1
S11330903000FFF7DDFF0134431CF3D1F8BD00001D
S11330A0F0B59FB006000F0014000593002804D06B
S11330B08369002B01D1FFF71DFE7F4B9F425CD13A
S11330C07768BB891B0762D53B69002B5FD000235F
S11330D006AD6B6120336B761033AB760294029CA1
S11330E02378002B5DD1029BE31A04930DD0049B3B
S11330F0029A39003000FFF7C0FF431C00D1CCE036
S11331006A69049B944663446B612378002B00D165
S1133110C3E00122002352426A6002A954325218C9
S113312001342B60EB60AB601370AB652178052232
S1133130624800F0E1FB631C9C46002835D12968F5
S1133140CB0604D5532302AA20309B1818700B0712
S113315004D553232B2002AA9B18187023782A2BFA
S11331602CD000200A21099B2278303A092A00D861
S11331706BE000282AD0099328E0514B9F4201D1EB
S1133180B7689EE74F4B9F429BD1F76899E7390098
S1133190300000F0F1FA002899D0012040421FB01D
S11331A0F0BD252B9FD001349AE7444B2968C01AFF
S11331B0012383400B432B606446B7E7059B181D2E
S11331C01B680590002B3ADB0993644623782E2B69
S11331D00BD16378621C2A2B3FD1059B02341A1D44
S11331E01B680592002B35DB0793217803223648B0
S11331F000F082FB002807D0334B2A68C01A402312
S1133200834013432B6001342178631C06222F482A
S11332100293297600F070FB002844D02C4B002B3D
S11332202FD12968059B0722C90528D59B189343EC
S1133230083305936B69039A9B186B614FE75B42F4
S1133240EB6002230B432B60BFE74B4301349B1815
S1133250012089E701235B42C6E7002314000A200A
S11332601A006B6021783039092903D9002BBCD0AE
S11332700792BAE74243013452180123F2E70733B5
S1133280D5E705AB00933A00124B2900300000E06B
S113329000BF0390039B0133CCD1BB895B0600D5EF
S11332A07BE70B987BE705AB00933A00094B2900B9
S11332B0300000F07FF8ECE7CC3A00000C3B000053
S11332C0EC3A0000AC3A0000123B0000163B000050
S11332D0000000007B300000F7B5150001938A68F8
S11332E00B6900900C00934200DA130022002B605B
S11332F043321278002A01D001332B6023689B06E5
S113330002D52B6802332B60062723681F4027D081
S1133310230043331B785A1E93412268920630D40B
S11333202200019943320098089EB047431C25D0DF
S1133330062320682A68E16803400025042B03D192
S11333408D1AEB43DB171D40A3682269934201DD0C
S11333509B1AED180027BD4220D1002010E0013750
S1133360E3682A689B1A9F42D2DA220001231932A9
S113337001990098089EB047431CF0D101204042B7
S1133380FEBD3020E1184331087021005A1C45313C
S11333900978A218433202331170C1E722000123D5
S11333A01A3201990098089EB047431CE6D00137B1
S11333B0D1E70000F0B58BB006920A0043320793C0
S11333C0059004920A7E0C00109B6E2A00D18FE0B7
S11333D017D8632A2CD008D8002A00D199E0582A9B
S11333E054D026004236327029E0642A01D0692A7A
S11333F0F7D121681A68080623D5111D19601568CC
S113340025E0732A00D188E008D86F2A29D0702AD1
S1133410E7D1202209680A43226003E0752A20D0FC
S1133420782ADED122007821453211706C4A30E0CE
S11334300E001A684236111D196013683370012397
S113344079E04906D9D5111D19600023D55E002DF8
S113345003DA2D23049A6D421370624B0A270393F7
S11334602FE020681968050603D5081D18600D684B
S113347005E04006F9D50D68081D1860ADB2594B3A
S1133480082703936F2A18D00A2716E045310A70DB
S1133490544A03921A682168101D186015680806BA
S11334A022D5CB0702D52023194321601027002DF4
S11334B003D1202322689A4322602300002243334D
S11334C01A706368A360002B5CDB042221689143BB
S11334D02160002D58D1049E002B64D02600039B4C
S11334E042361B7833705EE04806DAD5ADB2D8E7D1
S11334F009681A68080605D5111D19601368626900
S11335001A6006E04906F7D5111D19601368A28AEE
S11335101A800023049E236154E01A68111D196067
S1133520166800216268300000F0E6F9002801D036
S1133530801B6060636823610023049A137041E078
S11335402369320006990598079DA847431C43D078
S1133550236800259B070FD4099BE06898423DDA55
S113356018003BE022000123193206990598079EB2
S1133570B047431C30D00135E368099A9B1A9D4239
S1133580F0DBE9E7002DA9D0049E28003900FEF7FE
S11335907BFC039B013E5B5C280033703900FEF723
S11335A0EDFB051EF1D1082F09D12368DB0706D5F1
S11335B063682269934202DC3023013E3370049B2A
S11335C09B1B2361079B09AA00932100069B059876
S11335D0FFF782FE431CB3D1012040420BB0F0BD83
S11335E02E3B00001D3B0000002370B5064C050077
S11335F008002360FEF784F8431C03D12368002BE2
S113360000D02B6070BDC046C001002070B50C0016
S11336100E25495F00F07EF9002803DB636D1B185B
S1133620636570BDA389024A1340A381F9E7C046CC
S1133630FFEFFFFFF8B51F008B8905000C00160093
S1133640DB0505D50E23C95E0022022300F040F9F4
S1133650A389054A28001340A38132000E23E15EAA
S11336603B0000F075F8F8BDFFEFFFFF70B50C00EC
S11336700E25495F00F02CF9A389421C03D1054AA9
S11336801340A38170BD802252011343A38160655E
S1133690F8E7C046FFEFFFFF10B50E23C95E00F048
S11336A0E1F810BDF8B505000E001400002804D0A0
S11336B08369002B01D1FFF71DFB224B9C422DD1C6
S11336C06C68A369A360A3891B0731D52369002B08
S11336D02ED023682269F7B2981A6369F6B2984229
S11336E005DB21002800FFF797FA002826D1A368FC
S11336F00130013BA36023685A1C22601F70636978
S1133700984204D0A389DB071AD50A2E18D12100C8
S11337102800FFF781FA002812D00FE00A4B9C42E0
S113372001D1AC68CDE7094B9C42CAD1EC68C8E72B
S11337302100280000F020F80028CAD00126764293
S11337403000F8BDCC3A0000EC3A0000AC3A00007E
S113375070B50500080011000022064C22601A0012
S1133760FDF7CAF8431C03D12368002B00D02B605B
S113377070BDC046C0010020364B70B51D68060000
S11337800C00002D05D0AB69002B02D12800FFF7F7
S1133790B1FA314B9C420FD16C680C23E25E93B2B8
S11337A019072DD4D90611D40923012033603733E6
S11337B01343A381404270BD284B9C4201D1AC68A5
S11337C0EBE7274B9C42E8D1EC68E6E75B0713D5AF
S11337D0616B002908D023004433994202D03000A1
S11337E0FFF78EFB002363632422A3899343A38101
S11337F000236360236923600823A2891343A38100
S11338002369002B0BD1A0218022A3898900920077
S11338100B40934203D021003000FFF729FB012322
S1133820A289134011D00023A36063695B42A361A2
S1133830002023698342BED10C23E25E1306BAD56D
S113384040231343A3810138B5E7920700D4636989
S1133850A360EDE720000020CC3A0000EC3A000021
S1133860AC3A0000002370B5064C05000800236044
S1133870FDF758FF431C03D12368002B00D02B60B5
S113388070BDC046C0010020002370B5064C050081
S1133890080011002360FDF748FF431C03D123688F
S11338A0002B00D02B6070BDC0010020002370B538
S11338B0064C050008002360FDF73CFF431C03D1C0
S11338C02368002B00D02B6070BDC046C0010020CF
S11338D070B50500080011000022064C22601A0091
S11338E0FDF72AFF431C03D12368002B00D02B6073
S11338F070BDC046C0010020C9B28218904201D1F7
S11339000020704703788B42FBD00130F6E7704704
S11339107047000070B50500080011000022064C35
S113392022601A00FCF7C6FF431C03D12368002B56
S113393000D02B6070BDC046C001002000080042CA
S1133940000C004200100042001400420018004223
S1133950001C0042002C00420030004200340042AF
S11339606A1000006610000066100000C810000015
S1133970C81000007E1000007010000084100000C9
S1133980B61000005011000030110000301100008A
S1133990BC110000421100005E110000341100004F
S11339A06C110000AC110000601900004419000003
S11339B0481900004C190000501900005419000067
S11339C058190000726564006F72616E67650000CB
S11339D079656C6C6F770000677265656E00000036
S11339E0626C756500000000736B7900707572700D
S11339F06C6500004E4F4E45000000002533642CDA
S1133A00202533642C20253364207C202533642C2A
S1133A10202533642C20253364207C202564207CDD
S1133A202025730A0000000038230000082300004A
S1133A301A2300005C2200001A230000FE2200006A
S1133A401A2300005C220000082300000823000061
S1133A50FE2200005C2200006422000064220000B8
S1133A606422000020230000082300000823000033
S1133A70DC220000C0230000DC220000FE22000043
S1133A80DC220000C02300000823000008230000FB
S1133A90FE220000C0230000642200006422000013
S1133AA064220000CA23000024000020000000005B
S1133AB00000000000000000000000000000000002
S1133AC000000000000000000000000000000000F2
S1133AD000000000000000000000000000000000E2
S1133AE000000000000000000000000000000000D2
S1133AF000000000000000000000000000000000C2
S1133B00000000000000000000000000232D302B06
S1133B102000686C4C0065666745464700303132CA
S1133B203334353637383941424344454600303121
S1133B303233343536373839616263646566000080
S1133B40F8B5C046F8BC08BC9E467047DD000000CE
S1133B50F8B5C046F8BC08BC9E467047B5000000E6
S1133B60401F000008000000000000000C000000DE
S1133B700000000000000000000000000100000040
S1133B802400002000000000CC3A0000EC3A0000C1
S1133B90AC3A00000000000000000000000000003B
S1133BA00000000000000000000000000000000011
S1133BB00000000000000000000000000000000001
S1133BC000000000000000000000000000000000F1
S1133BD000000000000000000000000000000000E1
S1073BE000000000DD
S903161DC9
