S0120000536C617665426F6172642E737265632F
S113000040230020812300007D2300007D23000085
S113001000000000000000000000000000000000DC
S11300200000000000000000000000007D2300002C
S113003000000000000000007D2300007D2300007C
S11300407D2300007D2300007D2300007D2300002C
S1130050F90700007D2300007D2300007D230000BC
S11300607D230000751C0000851C0000951C000009
S1130070A51C0000B51C0000C51C0000A91200004E
S1130080B9120000C9120000351300004513000026
S11300905513000000000000000000007D23000054
S11300A07D230000000000007D230000000000000C
S11300B00000000010B5064C2378002B07D1054B37
S11300C0002B02D0044800E000BF0123237010BDC0
S11300D0A80000200000000020740000084B10B5A8
S11300E0002B03D00749084800E000BF0748036815
S11300F0002B00D110BD064B002BFBD09847F9E72D
S113010000000000AC0000202074000020740000F7
S11301100000000001680322CB691A42FCD1704739
S113012070B50268002304240125022604E001338B
S11301309BB2C18899420AD9117E214209D1117E0C
S1130140294208D1117E3142F1D0002004E012206E
S113015002E0002000E0002070BDC046F0B54F462C
S11301604646C0B483B005000C00160029600B6835
S11301701C209B0700D59BE00B681738DB0700D5D4
S113018096E008004D4B994698474D4A136A811CE6
S11301900127B8468F403B43136201A9737E0B705D
S11301A01430C3B21F001800464B98473800464B22
S11301B09847707E0021454B98472868C847070038
S11301C04349444B9847BF00434BFD50002324222E
S11301D0AB540132AB54EB84337E6B721023236037
S11301E02F683389EB80337C2B7280236A4613702B
S11301F0002353706B4642469A7000236A46D370BC
S1130200F069346A002803D100213800334B984741
S11302106B46187002236A465370000CC0B26946DC
S11302202F4B9847002C04D1012138002B4B9847C1
S113023004006B461C7002236A465370240CE0B21F
S11302406946274B9847B27E8023002A04D1254B68
S11302509B789B07DB0FDB012522B25C002A04D1CB
S1130260802292047169914202D1802212051343C3
S11302703A687168706901430A432421715C8907F3
S11302800A432621715CC9050A4313433B60738901
S11302908022520013437B60B3895A00F3895B04C4
S11302A01343727C1343327CD20313437B620020DA
S11302B003B00CBC90469946F0BDC046A90C0000A2
S11302C0000400402522000099210000D50A000006
S11302D0E50300000D1C0000F0020020210B0000CB
S11302E01D23000000200041F0B55F4656464546F8
S11302F0E0B405000E000C881720002C67D02B8D6D
S11303001238002B63D12F68BB7D9B075FD4280074
S1130310314B984700285AD13B7E1C209B0756D569
S11303207A8B0C3843231A4251D17B8B1B070BD594
S11303307B688022D20213437B607B68C0229202D6
S113034013437B600A3042E07A68244B13407B609D
S11303507B68C022920213437B60013CA4B2631CFD
S1130360984600241C4B9B4601239A462800D847F4
S113037000282CD13B7E5246134202D13B7E9B0780
S113038003D501233B76042021E02800144B984731
S11303902823FA5C23041B0C7168CA5401344445B5
S11303A0E4D128000C4B98473B7E5B0709D57B685A
S11303B08022D20213437B607B6880229202134323
S11303C07B603B7E0020DB0701D501233B761CBC10
S11303D090469A46A346F0BD21010000FFFFFBFFB3
S11303E01501000070B58000874BC458256825238B
S11303F0E35C2422A65C1E402B7E9B0778D5E38C0D
S11304009BB2228D93420DD03023E35C002B09D1A3
S11304103122A354E3842385B30715D5236920002F
S1130420984711E0E38C9BB29A420DD03023E35CF1
S1130430012B09D100233122A354E3842385F3073C
S113044002D5E368200098476A8B43231A4207D0F9
S11304501022123BE254B30602D5236A20009847C7
S1130460637A002B06D0226853688021C9020B43AB
S1130470536033E06B8B1B0718D501223023E25401
S1130480730702D5636920009847E38C9BB2002B65
S113049006D1226853688021C9020B4353601DE0D2
S11304A022685168594B0B40536017E000223023F7
S11304B0E254330702D5A36920009847E38C9BB22A
S11304C0002B06D1226853688021C9020B43536074
S11304D004E0226851684D4B0B4053602368C022EE
S11304E092025A6022685168484B0B4053608AE07C
S11304F02B7EDB072ED501232B7604332B7520337B
S1130500E35C5B0705D42523E35C082B01D00223BD
S11305102B753123E35C1E2B75D03123E35C102B48
S113052071D000233122A354E3842385B30707D574
S11305303023E35C002B03D123692000984762E059
S1130540F30760D53023E35C012B5CD1E368200022
S1130550984758E02B7E5B0755D5238D002B0AD096
S11305603022A25C012A4AD1E28C92B2934246D252
S11305706B8B5B0743D500232385E3843033E35C33
S1130580002B12D16B688022D20213436B606B681C
S11305908022920213436B601E223123E254F3063D
S11305A031D5E369200098472DE06B688022D202A0
S11305B013436B606B688022920213436B600022CA
S11305C03123E2542D3B2B751DE03023E35C002BDB
S11305D00AD1E26A531CE3622823EB5CDBB213709A
S11305E0238D013B23850EE0E36A5A1CE2621B78EB
S11305F0DBB22822AB54238D013B238503E0E38C3B
S11306009BB2002BE1D170BDF0020020FFFFFBFF85
S113061030B58BB000226B461A7080239B03019384
S1130620002369464A81CA810B744B7405920B7688
S11306304B768B7624228B5401328B5401328B54AB
S113064012236A468B81104B0793104B0893FA23AD
S11306509B000B810E4D0F4928000F4B98472C68C7
S113066020000E4B98471F2318401E3B83400C4A22
S1130670136029680322CB691A42FCD12268022341
S1130680134323600BB030BD0200100002001100C0
S11306900C010020000C00425D010000491C000018
S11306A000E100E070B5214B1A6813689B070FD571
S11306B0022193681942FCD11D4B5362D362136823
S11306C002218B431360194B19688B68002BFCD1F2
S11306D0136801252B431360164E174C310020007C
S11306E0164B98470023A372154B6360E5720223EF
S11306F023769833E554883B23660D3B8022A35030
S11307001B32A554883A62667132A350074D220009
S1130710310028000B4B98472A680221936819423C
S1130720FCD1116802230B43136070BD4C010020FF
S11307300FF80F0000200042C4010020150D000036
S1130740FFFF0000610E000010B5154A00230021D0
S11307501370937093711381002050709172117310
S113076091735173117453619361117713625362DE
S1130770138553859385C0239B0093800123D372F3
S1130780084C09492000094B984722687F21D37BF4
S11307908B43FCD1118802330B43138010BDC04638
S11307A08C01002068020020002C00429D130000F0
S11307B030B583B001AD01236B700022AA70694685
S11307C00A704B708A702B7029001C20094CA047BA
S11307D069460D20A04769460820A04729000E203D
S11307E0A04769460F20A04729001720A04703B05F
S11307F030BDC046BD1D000070B50022154B1A70F7
S113080000231F25144E134C1F2B19D90FE0002170
S113081000E012490A619B009B59002B00D09847C5
S113082023780133DBB223700F2BEDD911E02900BB
S1130830194001228A40002109691142E7D1EFE7FA
S11308402900194001228A40044909691142E0D172
S1130850E6E770BD880200208C02002000180040EA
S1130860044A117802230B43137053785BB2002BB4
S1130870FBDB70470018004000B583B0124A916951
S113088040230B43936101A900230B7005200F4BF8
S1130890984705200E4B98470E4A117801230B43C5
S11308A0137053785BB2002BFBDB0B4B1900403108
S11308B0002204C39942FCD11022084B1A60084B51
S11308C0984703B000BDC046000400402522000044
S11308D099210000001800408C02002000E100E093
S11308E06108000010B5490840230024814201D268
S11308F00AE01C00091A631C9BB28842F9D9402300
S1130900FF2C01D814800023180010BDF0B55F46F9
S113091056464D464446F0B489B00C00059212AADE
S1130920117802004A434025A24200D9C6E0002BB8
S113093051D1020008000021644DA84783462600D7
S113094000270023002400930194002200233F2069
S113095020218C461F3902960397202464420419EF
S113096003D40D00A540A84604E06446241A0D00F3
S1130970E540A8460C008440A14614001D00A418BC
S11309805D4122002B0046465F463E4203D00E00E6
S1130990264332002B00029C039D9D420FD801D1B7
S11309A094420CD8029C039D121BAB414D46009E01
S11309B0019F35433C004646344300950194013879
S11309C0CBD20022012300980199121A8B41120CF8
S11309D01B041A436FE00022012B6CD1630F0493B4
S11309E0E30098460A0000230021384CA047040085
S11309F00D0000239C46069320339B460126634644
S1130A00079300230293002200233F2100940195C1
S1130A100F0020214942791803D4300088408446CD
S1130A2004E05946C91B3000C84084463100B9402F
S1130A308946100019008018594102000B004446F1
S1130A404D462C40A2466446049D2C40A446544680
S1130A5065462C4303D03400044322000B00009865
S1130A60019999420AD801D1904207D80098019976
S1130A70121A8B410299484601430291013FC8D2A0
S1130A80009C019D0299079A8B1ADB0810498B423E
S1130A900BD9069B0133DBB2190006931300013313
S1130AA007930829ADD1402508E04025069A082A75
S1130AB004D052031A43059B1A800025280009B06C
S1130AC03CBC90469946A246AB46F0BD415400005A
S1130AD0FF1F000010B582B004000E4B1B78002BE2
S1130AE001D000290DD001A90C7013200A4B98479E
S1130AF013200A4B9847074B5C7001221A700020A0
S1130B0006E0044B5B78834201D01D2000E0002006
S1130B1002B010BDC400002025220000992100006D
S1130B20444B984233D006D8434B98420DD0434BA4
S1130B3098421BD06FE0424B98424AD0414B9842B6
S1130B4058D0414B984266D132E0012906D00029A1
S1130B5063D0022906D0032906D001E03B4867E0B0
S1130B60002065E03A4863E03A4861E0012906D094
S1130B70002954D0022906D0032906D001E03648C2
S1130B8056E0002054E0354852E0354850E0012951
S1130B9006D0002945D0022906D0032906D001E059
S1130BA0304845E0002043E02F4841E02F483FE033
S1130BB0012906D0002936D0022906D0032906D0FF
S1130BC001E02B4834E0002032E02A4830E02A4893
S1130BD02EE0012906D0002927D0022906D00329B6
S1130BE006D001E0254823E0002021E024481FE04E
S1130BF024481DE0012906D0002918D0022906D076
S1130C00032906D001E0204812E0002010E01F482C
S1130C100EE01F480CE000200AE01E4808E0032014
S1130C2006E01D4804E01D4802E01D4800E01D48A0
S1130C307047C0460010004200080042000C004209
S1130C4000180042001C004200140042030005008A
S1130C5003000600030007000300010003001E0058
S1130C6003001F0002000D0002000E0002000F002E
S1130C7003001100030012000300130005003F00ED
S1130C8005003E0005005200030017000300180091
S1130C90030019000300040002000C00030010000C
S1130CA0050053000300160030B587B00C4B6A46AC
S1130CB032CB32C232CB32C2009B834206D00123F4
S1130CC09A0069465258824203D100E00023D8B208
S1130CD003E00133062BF3D1002007B030BDC0463A
S1130CE0B0700000084B98420AD0084B984205D0D7
S1130CF00023074A904205D1023302E0012300E0B9
S1130D000023DBB218007047002000420024004298
S1130D100028004210B5040008004F4B98470023F8
S1130D20236080004D4A82586260A372E372237389
S1130D3063722372E36123626362A3622375637542
S1130D40A375E3752376637623746374A374E374E1
S1130D502C22A3540132A3540132A3540132A354CC
S1130D600132A3540132A3540132A3540132A354D7
S1130D700132A3540132A3540132A3540132A354C7
S1130D800132A3540132A3540132A3540132A354B7
S1130D900132A3540132A3540132A3540132A354A7
S1130DA00132A3540132A3540132A3540132A35497
S1130DB00132A3540132A3540132A3540132A35487
S1130DC00132A3540132A3540132A3540132A35477
S1130DD00132A3540132A3540132A3540132A35467
S1130DE00132A3540132A3540132A3540132A35457
S1130DF00132A3540132A3540132A3540132A35447
S1130E004132A354A365A3670132A354E365E367A6
S1130E100132A35423661A3AA3501B32A3546366C7
S1130E20173AA3501832A354A366143AA3501532A8
S1130E30A354E366113AA3501232A35423670E3A23
S1130E40A3500F32A35463670B3AA35001210C3211
S1130E50A1540132A35410BDE50C0000D870000069
S1130E60F0B55F4656464D464446F0B48FB0019007
S1130E700C0016000800834B9847030001008248C9
S1130E80076A9D00814AAA583A43026222681C20DC
S1130E90920700D5C5E122681B3802401B30002AA6
S1130EA000D0BEE17A4FEF5917203568AF4200D227
S1130EB0B7E17568AF4200D2B3E1F069874200D26E
S1130EC09AE1306A874200D298E1706A874200D280
S1130ED096E1B06A874200D294E198208446B444F3
S1130EE06046069000270578002D04D0694D6D5C9E
S1130EF0BD4200DC88E101370130082FF3D1002026
S1130F00029080256D04AC4635182D7C012D09D145
S1130F10614D6D5C854200DA78E165468540029F4B
S1130F202F43029701300428EED1A121715C0029DE
S1130F3004D080210901029808430290317A481EA6
S1130F40814189000591717A012902D105980843EC
S1130F5005905149C95C080004913521775C8742AA
S1130F6000D35DE12C21715C0F2900D958E1307B5D
S1130F700890F07A099030002D3000259046A14663
S1130F802C00B346060007930AE09F7C049ABA42F9
S1130F9000D845E1597A0A3604340F2900D93FE1D3
S1130FA00906F0231B051940330035782D04FF2270
S1130FB012041540AA46727880200390002A01D1B9
S1130FC0424603929A780820002A00D14046DA78F3
S1130FD0944610226546002D00D14246BF02C0252A
S1130FE02D012F4039431F7903252F40394355469E
S1130FF00D435F797F0160210F403D4399790902D8
S1131000C027BF0039400D43D9790903E027FF0108
S113101039400D4303990D43284302430CA9625000
S1131020042CB2D14C465E46079B1A4AD25C9146C8
S11310305946503158464130002700220125AA461E
S11310400225FF35AB4680256D02A846A4461C0048
S11310504B460D78002D09D0934200D8D8E0454680
S113106095402F430578002D06D11AE00578002D10
S113107017D0934200D8CDE0022D0FD15D469540A4
S11310802F430EE0E50C000000040040CC7000008B
S1131090D8700000E8700000E470000055469540E8
S11310A02F43013201310230082AD2D1994623005C
S11310B06446727E120130210A40317E07200140CD
S11310C00A4392460022802040025546B118097D09
S11310D0002906D00499914200DC9DE00100914072
S11310E00D430132042AF1D1AA46019802000432C8
S11310F03430002102C28242FCD1002201984263B2
S1131100826399004A4A88500460A022B15C643A20
S113111081540BA9B27A0A70464AD55C2800464B22
S113112098472800454B98474B46002B22DD350055
S1131130583598339846B04401239946B3464646F9
S1131140A046069C2378002B0ED00AAB4A469A7020
S113115000230AAAD3702B6A137013004A465A70EC
S113116028781900364B984701340435B442E9D144
S113117044465E46089B1A03099B1B021343029ACA
S1131180134323600422A3681A42FCD1FF23237172
S11311900422A3681A42FCD16B461B7D63710C9B2D
S11311A0E3600D9B2361A761264AA3681342FCD127
S11311B05346E3631022A3681A42FCD13368636385
S11311C0214AA3681342FCD173682364049800285D
S11311D024DD1C3600211D4D2A008A40A3681A42D2
S11311E0FCD104CE0B0010339B00E3185A6001318C
S11311F08842F1DC002014E0172012E0172010E0F0
S113120017200EE017200CE017200AE0172008E052
S1131210172006E0172004E0172002E0002000E079
S113122017200FB03CBC90469946A246AB46F0BD91
S1131230CC020020C8700000252200009921000083
S11312401D2300004000020080000400000108008B
S1131250F8B54F464646C0B48000114BC358994672
S11312601B68DF6A4B465B6B1F404B469B6B1F4002
S11312700C4D4B461C1D34234B4498462E683E426D
S113128005D04846236898474B461B68DE62043500
S113129004344445F2D10CBC90469946F8BDC0468E
S11312A0CC020020EC70000010B50020014B9847E0
S11312B010BDC0465112000010B50120014B9847E3
S11312C010BDC0465112000010B50220014B9847D2
S11312D010BDC0465112000070B58000144BC558B3
S11312E02B689C7B2B7E1C406B7E1C40E30705D542
S11312F02800AB68984701232A689373A30705D590
S11313002800EB68984702232A689373E30605D5FF
S113131028002B69984710232A689373A30605D5E0
S113132028006B6998472B6820229A7370BDC046C9
S1131330D802002010B50020014B984710BDC046CC
S1131340D912000010B50120014B984710BDC046CA
S1131350D912000010B50220014B984710BDC046B9
S1131360D912000030B585B001AA0B4B32CB32C282
S1131370019B98420AD0029B984205D00023039A0D
S1131380824205D1023302E0012300E00023DBB2F4
S1131390180005B030BDC0461C710000F0B54F46C2
S11313A04646C0B487B004000E0090460800924B35
S11313B098478146914D29000C31032205A8904F8E
S11313C0B84729001031062203A8B8470023A360B8
S11313D0E36023616361237663764B469A00894B0D
S11313E0D450266043469B78082B04D117204A46E4
S11313F0D20700D4FBE0237133880520DB0700D536
S1131400F5E0F37B1730DB0600D5F0E033889B076B
S113141000D5ECE043461B7C002B0CD002A9012331
S11314208B700022CA704246127E0A704B7043468B
S1131430187D754B984743461B7F002B0DD002A99E
S113144001238B700022CA704246526A0A704B70A4
S113145043461B6AD8B26C4B98476C490B6A4A46A0
S1131460520003A8125A13430B6243469B78082B7D
S113147006D10B6A4A4601325200125A13430B62D8
S113148001A943461B780B7005AB4A469D5C2800B6
S11314905F4B984728005F4B9847434698789B7961
S11314A002001A43434618899B8803431A431000D9
S11314B043465B78002B02D080231B01184321682C
S11314C07F22CB7B9343FCD130804346587B431E21
S11314D09841800043469B7B002B01D00123184395
S11314E021687F22CB7B9343FCD1FF3333710028E7
S11314F005D021687F22CB7B9343FCD17071434696
S1131500987ADB7A002B01D01023184343461B7BC7
S1131510002B01D02023184321687F22CB7B9343E7
S1131520FCD1B07122687F21D37B8B43FCD123791A
S1131530042B05D0082B41D01720002B57D124E0D1
S11315407F21D37B8B43FCD128334246D35C337455
S113155021687F22CB7B9343FCD129334246D35C61
S1131560337521687F22CB7B9343FCD12A334246D7
S1131570D35C337621687F22CB7B9343FCD12B331E
S11315804246D35C7376002031E07F21D37B8B43CA
S1131590FCD143461B8D338221687F22CB7B93434E
S11315A0FCD143465B8D338321687F22CB7B9343FD
S11315B0FCD143469B8D7383002018E07F21D37BAD
S11315C08B43FCD143469B6A336121687F22CB7BEA
S11315D09343FCD14346DB6AB36121687F22CB7B12
S11315E09343FCD143461B6BF3610020FFE707B034
S11315F00CBC90469946F0BD651300001C710000B8
S113160001270000D80200201D2300000004004030
S11316102522000099210000F0B5474680B40C0053
S1131620904600280DD1002A0EDD8F18084E094D72
S1131630306821002B6898470134A742F8D140460E
S113164003E00120404200E0002004BC9046F0BDCD
S1131650EC020020E4020020F0B5474680B40E00FE
S113166015000138022811D8002A12D000240C4B8E
S113167098460C4F43461868315D3B6898470028EC
S113168009DB0134A542F5D1200006E001204042E7
S113169003E0002001E00120404204BC9046F0BD7C
S11316A0EC020020E8020020F0B55F4656464D46A5
S11316B04446F0B491B005000C00160029600800FF
S11316C0B94B984722680523D20700D564E1226804
S11316D01733920700D55FE1B4490A6A871C1B3BA4
S11316E0BB4013430B620FA92D27F35D0B7014301D
S11316F0C3B202931800AE4B98470298AD4B98477B
S1131700F05D0021AC4B9847F37A6B712423F35CB2
S1131710AB712523F35CEB71F37E2B72337F6B7219
S11317202B6899461800A04B9847143000220E23CA
S113173006A98C4663441A80328A02928023DB0114
S11317409A421AD004D880239B019A420BD004E118
S1131750C023DB01029A9A420AD080231B029A42D8
S113176000D1FFE0F9E0102306930F3B0793FDE05F
S113177008230693073B0793F8E033680493F36860
S11317809B4673690393337E98462623F35C059343
S113179073689A46002B15D080235B059A4536D191
S11317A02723F35C002B36D1336A1F00C0B2834B6E
S11317B0984701000E2206AB9C4662443800804BD9
S11317C0984725E008230693002307932723F35C17
S11317D0002B0BD0069B0093079B0E2206A98C4678
S11317E06244B16A306A774FB84711E0336A1F0028
S11317F0C0B2724B98470100069B0093079B0E22D0
S113180006A88446624438006E4FB84700E00020C2
S1131810031E00D0C0E0737E002B02D0B37E4A4684
S113182093732A68029FD369002BFCD10E3306AA56
S1131830944663441B884A469381049B5A46134347
S1131840039A1343524613433B4342461202134343
S1131850059A57071F432723F35C002B01D1043358
S11318601F43717E8902337F5B021943737F1B021E
S113187019432423F35C5B0419432523F25C12040B
S11318801143F37A19433389FF2B04D08022520485
S11318901743194305E0F37E002B02D08023DB04B9
S11318A01F432C23F35C002B03D1474B9B789B07EE
S11318B001D580231F432A68D369002BFCD14B46F2
S11318C059602A68D369002BFCD14B461F600EABCC
S11318D080221A7000225A70DA709A70336B0A935D
S11318E0736B0B93B36B0C93F36B02930D93002701
S11318F00EAEF9B2BB000AAA9858002802D1200003
S1131900324B9847431C05D03070000CC0B23100F4
S11319102F4B98470137042FEBD10023EB602B6149
S11319206B61AB61EB612B62AB626B620022EB8596
S1131930AB853033EA540133EA540133EA540133BA
S1131940EA542868184B984704002249224B9847C8
S1131950A400224BE55000231EE01023069300232D
S1131960079303E003230693002307933368049348
S1131970F3689B4673690393337E98462623F35C8E
S1131980059373689A46002B00D11FE780235B05FB
S11319909A4500D104E73EE7180011B03CBC9046DC
S11319A09946A246AB46F0BDA90C000000040040D5
S11319B02522000099210000D50A000041220000E0
S11319C0E50800000D09000000200041210B000083
S11319D01D2300007D1A00000D1C0000F0020020F1
S11319E0C2791C23002A0ED0C28D92B2173B002A62
S11319F009D10368DA69002AFCD1198502211A7E0B
S1131A000A42FCD0002318007047C04682791C2388
S1131A10002A30D0828D92B2173B002A2BD1026863
S1131A20107E400727D5D369002BFCD1538BDBB242
S1131A3098061DD0980703D50223538318331AE060
S1131A40580703D5042353831A3314E0D80703D566
S1131A500123538312330EE0D80603D51023538396
S1131A60323308E09B0603D520235383213302E05D
S1131A70138D0B80002318007047C046F8B5800012
S1131A80604BC5582C68E369002BFCD1237EA67DEE
S1131A901E403023EB5C3122AF5C1F40F30722D59C
S1131AA0EB8D9BB2002B1CD0AA6A1378DBB2511CBD
S1131AB0A9626979012901D09BB204E05178090235
S1131AC00B430232AA62DB05DB0D2385EB8D013B60
S1131AD09BB2EB85002B06D1013323750133A3752B
S1131AE001E001232375B30709D5022323750022DE
S1131AF03133EA54FB0702D52800EB689847730793
S1131B0060D5AB8D9BB2002B5AD0638BDBB21A0726
S1131B1002D43F22134001E037221340002B2DD082
S1131B209A0705D51A223223EA54303B63831FE017
S1131B305A0705D51E223223EA542E3B638317E04D
S1131B40DA0705D513223223EA54313B63830FE0CD
S1131B50DA0605D542223223EA54223B638307E0A6
S1131B6020221A4204D021323223EA54123B6383E6
S1131B707B0727D528006B69984723E0238DDB0575
S1131B80DB0DDAB2696A0A706A6A511C69626979A2
S1131B90012904D11B0A53706B6A01336B62AB8D4C
S1131BA0013B9BB2AB85002B0CD10433237500227F
S1131BB02E33EA54BB0705D528002B69984701E06A
S1131BC004232375F30607D5102323752376FB0618
S1131BD002D52800EB699847B30607D5202323755F
S1131BE023763B0702D52800AB699847330707D50E
S1131BF0082323752376BB0602D52B6A2800984751
S1131C00F8BDC046F00200207047C046F0B50A4B4C
S1131C101B78002B0CD1094F094E0A4D0024DE51CC
S1131C205A1914600433182BF9D10122024B1A708B
S1131C308000024BC150F0BDC6000020C800002047
S1131C40091C0000F002002010B582B00400062236
S1131C5005496846054B98472000054B98476B4655
S1131C60185602B010BDC0463471000001270000B0
S1131C70A90C000010B5024B1B680020984710BD4A
S1131C80C800002010B5024B5B680120984710BDC6
S1131C90C800002010B5024B9B680220984710BD75
S1131CA0C800002010B5024BDB680320984710BD24
S1131CB0C800002010B5024B1B690420984710BDD2
S1131CC0C800002010B5024B5B690520984710BD81
S1131CD0C800002070B50020084B98470500084C48
S1131CE0FA218900A047074B186007492800A0473C
S1131CF0064B18600522064B1A6070BD0D210000CA
S1131D00D95000000400002040420F0000000020D1
S1131D1010E000E00C4B1B68002B10D1EFF3108394
S1131D20002B09D172B6BFF35F8F0022074B1A70E4
S1131D300132074B1A7002E00022054B1A70024A66
S1131D401368013313607047E0000020080000208E
S1131D50E4000020084B1A68013A1A601B68002B43
S1131D6009D1064B1B78002B05D00122044B1A70B5
S1131D70BFF35F8F62B67047E0000020E4000020EC
S1131D8008000020F0B583B001AC01256570002780
S1131D90A770257021001320064EB047802212033D
S1131DA0054B9A612770657021001C20B04703B071
S1131DB0F0BDC046BD1D00000044004100B583B025
S1131DC001AB80221A700A785A704A789A708A781D
S1131DD0DA701900014B984703B000BD1D230000C1
S1131DE010B5082803D880001B4B1B589F460020C1
S1131DF030E01A4B18692DE0194B1B6A9B059B0FA9
S1131E001848D84026E0154B586923E0134B1B684B
S1131E10022018401ED012491022CB681A42FCD06E
S1131E200E4B1B685B0714D500200F4B98470B4BD8
S1131E309B681B041B0C58430CE05023084AD35CDA
S1131E4000205B0706D5054BD86803E0802000021C
S1131E5000E0064810BDC0463C710000E8000020C8
S1131E600008004000127A0041220000006CDC02ED
S1131E7070B50C4C236A01788578427801200240C1
S1131E8092014026B343134302002A40D2017F301B
S1131E908343134303220A40120203490B401343B2
S1131EA0236270BD00080040FFFCFFFF082803D830
S1131EB08000254B1B589F46172044E0234A116A93
S1131EC002230B43136200203DE0204A9169022360
S1131ED00B439361002036E01C4A118A02230B4312
S1131EE0138200202FE0194A918A02230B43938224
S1131EF0002028E016490B68022213430B60134BA1
S1131F009A8419000E32CB681A42FCD0104A9168A8
S1131F100E4BD96252689A6200229A8419001032D8
S1131F20CB681A42FCD00A4B1B689BB2074A9384C5
S1131F30002008E005494422885C022303438B54B3
S1131F40002000E00020704760710000000800409D
S1131F50E800002030B585B0C222D2001A4B9A6046
S1131F601A4A53681E218B43536001236A46137037
S1131F700024174DE0B26946A8470134252CF9D155
S1131F8003A800244470012585700470114B984700
S1131F900620114B9847114B9847114B1C725C72E9
S1131FA09C72DC7201956B465C7006236A46137062
S1131FB014725472694600200A4B984700200A4B59
S1131FC0984705B030BDC0460008004000400041BD
S1131FD025220000711E0000AD1E0000ED1F000050
S1131FE00004004011200000C9200000064A916945
S1131FF008230B4393610122044B1A7019000B78D8
S11320001342FCD17047C04600040040000C00405D
S113201070B5060005000C78240204434B78002BAD
S113202002D08023DB021C434B7A002B02D0802396
S11320301B031C434868012818D9431E184210D1B9
S1132040022806D90223002201325B009842FBD801
S113205000E0002212023243150080235B031C437C
S113206004E00502354380239B021C430B7A002BBA
S113207002D080239B031C430F4A53785BB2002B8E
S1132080FBDB0E4B98470E4B1E700B4A53785BB22A
S1132090002BFBDB084B9D601A0053785BB2002BCE
S11320A0FBDB054A516880235B020B401C435460F0
S11320B0044B984770BDC046000C0040151D00003D
S11320C0080C0040551D000010B504000B4A53785D
S11320D05BB2002BFBDB0A4B98470A4B1C70074A88
S11320E053785BB2002BFBDB044A5368802149021E
S11320F00B435360044B984710BDC046000C00408E
S1132100151D0000040C0040551D000070B50400AE
S11321101A4A53785BB2002BFBDB194B9847194BD7
S11321201C70164A53785BB2002BFBDB134E7068AD
S1132130C004C00E144B98470500124B1C707668FF
S1132140F602F60F114B1C700C4A53785BB2002B4D
S1132150FBDB0A4B9C682402240C0D4B9847002E91
S113216007D1012C07D9210028000A4B9847050004
S113217001E00134E540280070BDC046000C004079
S1132180151D0000040C0040E11D0000080C004077
S1132190551D0000D950000010B50400064B9847A7
S11321A0064B1C70064A51888023DB010B43538085
S11321B0044B984710BDC046151D0000020C00409A
S11321C0000C0040551D000010B504000F4B98474B
S11321D00F4B1C700F4B5A881205100F59880E4A6A
S11321E00A405A8059880D4A0A405A8019008022B0
S11321F0D2014B881342FCD106494C880202064B9B
S1132200234013434B80064B984710BD151D000017
S1132210020C0040000C0040FFF0FFFFFFBFFFFF77
S1132220551D000010B50C7824020443024B984756
S1132230A4B2024B5C8010BDC9210000000C004018
S113224010B50400064B9847064B1C70064B5C887F
S11322502405240F054B98472000054B984710BDD3
S1132260151D0000020C0040000C0040551D00002C
S11322700D21000030B5D378002B1ED11378802BAC
S113228004D01B0680246402234300E00023547816
S11322900225AC430AD19478002C03D18024A402F3
S11322A0234302E0C024E402234341605478013C08
S11322B0012C12D8184C23400FE041600B041B0C76
S11322C0A024E405234383620B0CD0242406234377
S11322D08362D378002B18D01CE00C04240CA025B6
S11322E0ED052C431C4384620C0CD0252D062C4395
S11322F01C438462D478002C0CD15B0305D59378FD
S1132300012B01D1816100E041615378013B012B34
S113231000D8816030BDC046FFFFFBFF10B503004D
S11323200A00C1090020002904D15809C001054947
S11323308C4660441F210B401E399940024B98473C
S113234010BDC04600440041752200007047C046DD
S113235010B5054B9847054B9847054B9847054BD7
S11323609847054B984710BD551F0000851D000078
S11323704D230000790800004D230000FEE7C0460D
S113238070B52E4B2E4A9A4203D02E4B2B4A9A42BA
S113239004D32D4B2D4A9A4210D31EE02C4A294BCC
S11323A003339B1A9B0801339B00002223482449D2
S11323B08C58845004329A42FAD1EAE7254A224BD7
S11323C003339B1A9B0801339B0000221F48002102
S11323D01418216004329A42FAD11F4AFF211F4B7C
S11323E08B439360FD3990235B001D4AD1501D48F7
S11323F0C3780324A34302221343C370C3780C2677
S1132400B34308210B43C370174B987B3025A84373
S11324100500202028439873987BB04301439973A7
S1132420997BA1430A439A73104A516880230B4352
S113243053600F4B98470F4B9847FEE7000000206E
S113244020740000A800002040030020A800002001
S113245004000020AC00002000ED00E000000000BB
S1132460007000410050004100480041004000411C
S1132470B5260000052600000300064A1268002A5B
S113248002D10549034A1160024A1068C318136057
S11324907047C04600010020402300200120404234
S11324A07047C04680239B014B6000207047C046A4
S11324B0012070470020704770B582B005000E00FF
S11324C000226B46DA80064C6B46991D2800A04713
S11324D00028F9D16B4606331B88337002B070BDF7
S11324E00D1A000070B505008CB2034E21002800BF
S11324F0B0470028FAD170BDE119000030B591B0A1
S11325008023DB05009300230193FF2269460A819F
S113251000228B72CB72962189010891012124201B
S11325206C462154013021542531635401316354E4
S11325300A93053163540131635405932382E3768E
S11325402276227762761323A376627780235B0355
S113255003931E4B0C931E4B0D9301235B420E936E
S11325600F931C4D1C4C6A461C492800A0470028A8
S1132570F9D1184D2C682000194B98471F23184097
S11325801E3B8340174A13602A68D369002BFCD191
S113259022680233134323600E48134B1860134A16
S11325A0134B1A60134A144B1A606A460B490A4BC0
S11325B09847124D2B6898680021114CA0472B684E
S11325C058680021A04711B030BDC0460300040084
S11325D00300050008030020A916000000080042BB
S11325E0491C000000E100E0EC020020E5240000AA
S11325F0E8020020B9240000E40200206C0000205E
S113260045310000F0B5474680B482B0184B984776
S1132610184B9847184B9847184B9847184B9847AE
S1132620184B98476A46184B03CB03C21748184BFC
S11326309847184B9847164B98461748C047174F6A
S1132640174D0BE00024174E019B195D2800B0477D
S11326500134032CF8D10A20134B984769461348D8
S1132660B8470028EED11248094B9847E5E7C04621
S113267051230000D51C0000FD2400004907000080
S1132680A506000011060000847100008C71000092
S113269031310000B1070000A0710000E902000020
S11326A0AC71000011300000453000000C01002026
S11326B0B07100000E4B70B500251E000D4CE41ADD
S11326C0A410A54204D0AB00F35898470135F8E7AD
S11326D004F096FE084B00251E00084CE41AA410D2
S11326E0A54204D0AB00F35898470135F8E770BD14
S11326F00C7400000C7400000C74000010740000D2
S1132700002310B59A4203D0CC5CC4540133F9E7DA
S113271010BD03008218934202D019700133FAE706
S11327207047F0B58BB014001D1E129906DA802490
S113273024061B191D0014002D2300E000230B7038
S11327402023149E03229E43462E07D03300453B8C
S113275059424B411099013ACB18109309AB049399
S113276008AB0393139B00920293109B22000193E6
S11327702B0000F0FDFE0700472E02D1119BDB0762
S11327802DD5109BFB180793462E14D13B78302B84
S11327900CD1002200232000290002F023FE00288F
S11327A004D10123109A9B1A139A1360139B079A5E
S11327B01B68D3180793002200232000290002F08D
S11327C011FE3022002802D0079B099307E0099BE1
S11327D00799994203D9591C09911A70F7E73800EF
S11327E0099B159ADB1B13600BB0F0BDF7B52B23C7
S11327F007000C000270861C002901DA2D234C42CC
S11328007B70092C1CDD6B46DD1D20000A2102F0C3
S1132810D3FD013D3031297020000A2102F0E6FC8D
S1132820041E092CF1DC013D30342C706B46073357
S11328303000AB4209D92B78013533700136F5E706
S11328403023E4183370B01C7470C01BFEBD00004C
S1132850F0B595B00C000A920B931A9D099001F003
S1132860D5FD036818000D9300F026FD0023129394
S113287023680E900C930C99277E2B680722C905B8
S113288001D59B1800E0073393431A0008322A60ED
S11328901A685B68A264E3640122E56CA66C6B00B1
S11328A05B080F935242C04B30000F9904F012FBA7
S11328B0002819D10122BC4B524230000F9902F07A
S11328C0A1FD002810D1002200233000290002F0CD
S11328D08FFD002803D023002D2243331A70B34DFB
S11328E0472F0ED8B24D0CE032002B0030002900E7
S11328F004F0F0FA002800D19AE1AE4D472F00D839
S1132900AD4D03230C9A236101339A4322600026C0
S113291042E0672F00D193E1472F00D190E10C9A58
S11329200021134312AA059211AA039223222360C1
S11329300691019308A96368521802920093320029
S11329402B0004970998FFF7ECFE20233A000500BA
S11329509A43472A00D18EE11199652F00D996E157
S1132960200001393A0050301191FFF73FFF129ACD
S1132970060083182361012A00DD85E12268D2075D
S113298000D581E1232308AA9B181B78002B03D0D0
S113299023002D2243331A700B9B13AA00932100AA
S11329A00A9B099800F0A4F9431C02D1012040427B
S11329B09BE12268530501D4236964E0652F00D8A4
S11329C0CCE0A06CE16C0022002302F00BFD002897
S11329D02CD00123794A0A9909980B9DA847431CD6
S11329E0E4D0119B129A934208DB2368DB0705D4D9
S11329F0236800259B0700D50FE113E10B9D0E9B77
S1132A000D9A0A990998A8470025431CCED0129B19
S1132A10013B9D42ECDA220001231A320A990998FB
S1132A200B9EB047431CC1D00135F0E7119B002B2E
S1132A302BDC0123614A0A9909980B9EB047431C79
S1132A40B4D0119B002B05D1129B002B02D123681B
S1132A50DB07CDD50B9E0E9B0D9A0A990998B047BA
S1132A600026431CA2D0119B5B429E420ADA22003C
S1132A7001231A320A9909980B9FB847431C95D031
S1132A800136F0E7129B2A00ACE0A36D129E9E4231
S1132A9000DD1E00002E05DC00230C93F343DB173E
S1132AA00F9315E033002A000A9909980B9FB84741
S1132AB0431CF1D17AE7220001231A320A990998BA
S1132AC00B9FB847431C00D170E70C9B01330C9358
S1132AD00F9BA26D0C993340D31A9942EBDBAE18CD
S1132AE0119B129A93420DDB2368DB070AD4129BD5
S1132AF0119AED18AD1B9B1A9D4200DD1D00002D9F
S1132B0009DC11E00E9B0D9A0A9909980B9FB847AE
S1132B10431CECD14AE72B0032000A9909980B9E1A
S1132B20B047431C00D141E7EF43FB1700260C9349
S1132B300AE0220001231A320A9909980B9FB84728
S1132B40431C00D132E70136119A129B0C999B1A4F
S1132B502A000A409B1A9E42EBDB49E7129B012B99
S1132B6002DC01231A4245D001232A000A9909985C
S1132B700B9FB847431C00D118E70E9B0D9A0A9986
S1132B8009980B9FB847431C00D10FE7A06CE16C78
S1132B900022002302F026FC002801D000251AE0C0
S1132BA0129B6A1C013B26E0FFFFEF7FC871000007
S1132BB0C4710000D0710000CC710000D471000019
S1132BC0220001231A320A9909980B9FB847431C23
S1132BD000D1EBE60135129B013B9D42F0DB220064
S1132BE0330050320A9909980B9DA847431C00D022
S1132BF0FEE6DBE62A000A9909980B9DA847431CC8
S1132C00EDD1D3E62200012319320A9909980B9ECB
S1132C10B047431C00D1C9E60135E368139A9B1AF7
S1132C209D42EFDB139BE06898425EDA18005CE09B
S1132C3080236268DB00511C00D06AE6073202E0A0
S1132C40002A02D10122626069E60C9908A80B43AC
S1132C500021069112A9059111A9039123210918B4
S1132C602360019300922B0004970291320009988B
S1132C70FFF757FD0500119BDA1C02DB62689342E3
S1132C801CDD023FFFB267E6013323617AE6662F5B
S1132C9015D16368002909DD2161002B02D1226866
S1132CA0D2071ED50133591821611AE0002B03D134
S1132CB001222168114213D09A1C11E06727119B4D
S1132CC0129A934206DB22682361D20709D50133A5
S1132CD0236106E00121002B01DC4918C91A8A1876
S1132CE02261119B0026A3654CE615B0F0BDC046D9
S1132CF0F7B5170001938A680B6900900C009342A2
S1132D0000DA130022003B6043321278002A01D01B
S1132D1001333B6023689B0602D53B6802333B606A
S1132D20062523681D401ED0230043331B785A1EFA
S1132D309341226892061CD53020E1184331087073
S1132D4021005A1C45310978A2184332023311700C
S1132D500FE022000123193201990098089EB04720
S1132D60431C0ED00135E3683A689B1A9D42F0DBA0
S1132D70DAE72200019943320098089DA847431CD2
S1132D8002D10120404220E006232068E1683A682D
S1132D9003400025042B03D18D1AEB43DB171D40A0
S1132DA0A3682269934201DD9B1AED180027BD42F6
S1132DB00AD0220001231A3201990098089EB047D4
S1132DC0431CDED00137F2E70020FEBDF0B58BB026
S1132DD006920A0043320793059004920A7E0C007F
S1132DE0109B6E2A00D1ABE011D8632A22D009D8F7
S1132DF0002A00D1B5E0582A00D0C5E045310A7058
S1132E00814A4FE0642A1DD0692A1BD0BCE0732A92
S1132E1000D1AAE009D86F2A29D0702A00D0B3E0E3
S1132E20202209680A43226037E0752A1FD0782AD5
S1132E3033D0A9E00E001A684236111D19601368D8
S1132E403370A4E021681A68080606D4490604D53C
S1132E50111D19600023D55E02E0111D196015686B
S1132E60002D3BDA2D23049A6D42137036E021685D
S1132E701A68080606D4490604D51568111D196098
S1132E80ADB202E0111D196015685F4B227E0393F9
S1132E9008276F2A1DD00A271BE02200782145321B
S1132EA011705A4A19680392081D226818600D6847
S1132EB0100602D4500600D5ADB2D30702D52023A4
S1132EC01A4322601027002D03D1202322689A433D
S1132ED022602300002243331A7002E00A274A4B7F
S1132EE003936368A360002B09DB042221689143E8
S1132EF02160002D05D1049E002B11D07BE0002D14
S1132F0079D0049E2800390002F06CF9039B013E3D
S1132F105B5C28003370390002F0DEF8051EF1D145
S1132F20082F09D12368DB0706D563682269934219
S1132F3002DC3023013E3370049B9B1B23612BE096
S1132F4009681A68080607D4490605D5111D1960D1
S1132F501368A28A1A8004E0111D1960136862695B
S1132F601A600023049E236116E01A68111D19607B
S1132F70166800216268300001F0BAFA002801D016
S1132F80801B6060636803E02600423632700123D0
S1132F9023610023049A1370079B09AA009321005C
S1132FA0069B0598FFF7A4FE431C02D10120404272
S1132FB027E02369320006990598079DA847431C1A
S1132FC0F4D0236800259B070FD4099BE06898423E
S1132FD017DA180015E02200012319320699059822
S1132FE0079EB047431CE1D00135E368099A9B1A58
S1132FF09D42F0DBE9E72600039B42361B783370E1
S11330008EE70BB0F0BDC046D6710000E77100003A
S11330100FB40B4B13B51C68002C05D0A369002B0F
S113302002D1200001F05EF905AB049AA1682000EA
S1133030019301F025FE16BC08BC04B01847C04635
S11330406C000020084B70B51C680500002C05D0EE
S1133050A369002B02D1200001F044F92900A268E1
S1133060200001F029FF70BD6C00002070B5050040
S11330700E00002804D08369002B01D101F032F93D
S1133080AB69AC68002B02D1280001F02BF9254B69
S11330909C4201D16C6808E0234B9C4201D1AC688E
S11330A003E0224B9C4200D1EC68A3891B0702D5A4
S11330B02369002B11D12100280000F05DF90028BC
S11330C00BD0012040422BE0013B0136A360002BD2
S11330D008DB23685A1C226019703178A368002920
S11330E0F2D10BE0A269934201DB0A29F1D122005B
S11330F0280000F0E9F8431CEFD1E2E7013BA360AC
S1133100002B08DA22000A31280000F0DDF8431C05
S1133110D7D00A2004E00A2023685A1C22601870C1
S113312070BDC0460872000028720000487200009A
S113313010B5034B01001868FFF798FF10BDC04697
S11331406C0000204A424A41802310B55200DB0043
S113315000F002F810BD0000F0B51D00514B85B021
S11331601E6804000F000092002E05D0B369002BE6
S113317002D1300001F0B6F84B4B9C4201D1746887
S113318008E04A4B9C4201D1B46803E0484B9C429E
S113319000D1F468009B022B05D0012B00D97CE000
S11331A0002D00DA79E02100300001F02DF8616B88
S11331B0002908D023004433994202D0300001F0A2
S11331C09BFC002363630023A3616360A3891B0644
S11331D003D52169300001F08FFCA289354B1340DF
S11331E0A381009B022B21D003AB02AA2100300053
S11331F001F010F9A3891843A081002D01D1029D8B
S113320001E0002F25D1280001F068F90195071E7F
S11332101AD1029B0193AB4202D10120404206E045
S1133220019801F05BF9071E0ED1F6E70020022297
S1133230A3891343A3810023A3602300473323609E
S11332402361012363612AE08022A389019D134342
S1133250A381B369002B02D1300001F043F8009B35
S1133260012B03D1A389009A1A43A2810823A289BE
S11332702760134027616561181E0CD001231A4092
S11332800023101E984204D06D42A360A56118006B
S113329005E0A56003E0A36001E00120404205B021
S11332A0F0BDC0466C0000200872000028720000C7
S11332B0487200005CF3FFFF0023C25C0133002A64
S11332C0FBD1581E70470000F8B505000F0014002C
S11332D0002804D08369002B01D101F003F8234BAB
S11332E09C4201D16C6808E0214B9C4201D1AC683E
S11332F003E0204B9C4200D1EC68A369A360A3893E
S11333001B070AD52369002B07D023682269FEB264
S1133310981A636998420FDB08E02100280000F046
S11333202BF80028F1D0012040421DE021002800A4
S113333000F06AFF0028F6D1A3680130013BA360C6
S113334023685A1C22601F706369984205D0A389C0
S11333503000DB0708D50A2E06D12100280000F032
S113336053FF0028DFD13000F8BDC04608720000CA
S11333702872000048720000364B70B51D680600C4
S11333800C00002D05D0AB69002B02D1280000F001
S1133390A9FF314B9C4201D16C6808E02F4B9C4241
S11333A001D1AC6803E02E4B9C4200D1EC680C22A6
S11333B0A35E9AB2110723D4D10607D409220120AF
S11333C0326037321343A381404242E0530713D59E
S11333D0616B002908D023004433994202D03000A5
S11333E001F08AFB002363632422A3899343A3810E
S11333F000236360236923600822A3891343A38104
S11334002369002B0BD1A023A2899B0013408022A7
S11334109200934203D02100300001F021F80123EF
S1133420A289134005D00023A36063695B42A361B2
S113343003E0920700D46369A360002023698342F8
S113344007D10C22A35E1A0603D540221343A3819D
S1133450013870BD6C000020087200002872000062
S113346048720000F0B503690C6989B00700059142
S113347000269C4279DC0B00013C1433A500039325
S11334805B1904930300143302935D19049B2868A9
S11334901B68591C019301F01FFE0190B04233D008
S11334A0039B02989C460696634604CB9C46019B6C
S11334B091B25943120C5A4389190B0CD318079330
S11334C0069A1E0C038889B29B1802685B1A110CB9
S11334D06A46928B8A1A1914521811149BB2120458
S11334E0134308C0049B06916345DDD22B68002B6F
S11334F00AD1029B043DAB4201D33C6104E02B683A
S1133500002BFAD1013CF4E70599380001F00CFADC
S1133510002829DB0020019B02990133039A0193BF
S113352040CA0B881818B3B2C31A0868360C000CCA
S1133530801B1D14451928149BB22D042B4308C16C
S1133540049B9342ECD2029AA300D3181A68002A6F
S11335500AD1029A043B9A4201D33C6104E01A68FE
S1133560002AFAD1013CF4E7019E300009B0F0BD15
S1133570F0B516001F00446A9DB00490259D069680
S11335800797002C08D1102000F0A8FF049B586274
S1133590446084600460C460049B5B6A1968002909
S11335A00BD05A68012393404A608B60049800F062
S11335B0E2FF0022049B5B6A1A60079B002B05DA7A
S11335C001232B607B005B08079301E000232B6041
S11335D0079CC84B220019931A409A4219D1C64B32
S11335E0249A1360069AC54B002A02D1240300D101
S11335F0C34B269A1800002A01D100F07DFDD9782A
S1133600DA1C002900D00532269918000A6000F05F
S113361073FD069E079F002200233000390001F04D
S1133620E1FE051E0ED00123249A1360B54B269AA1
S11336301800002A01D100F05FFDB34A26990A6000
S113364000F05AFD1AAB01931BAB009332003B0010
S1133650049801F0EFF9630005905B0D09D03A037B
S1133660AA4C120B1443AA4A300021009E18179545
S11336701AE01A9B1B9A9E18A64BF318202B08DD00
S1133680A54A0698B218D0404022D31A9C40204341
S113369003E020220698D31A984003F0B3FC0123D8
S11336A09E4C013E0919179300229D4B03F0BEF86E
S11336B09C4A9D4B02F040FE9C4A9D4B01F0ECFE5F
S11336C0040030000D0003F05BFC9A4A9A4B02F0B0
S11336D033FE02000B002000290001F0DDFE04008F
S11336E00D0003F017FC00220390002320002900A2
S11336F001F07EFE00280DD0039803F041FC020087
S11337000B002000290001F06DFE43424341039A5F
S1133710D31A039301231693039B162B11D88749BD
S1133720DB00C91808684968069A079B01F074FE13
S1133730002805D0039B013B03930023169300E06C
S113374016901A9B9E1B00230B93013E0C9604D5E6
S11337500C9B5B420B9300230C93039B002B08DB15
S1133760039A0C9B944663440C9300231192089390
S113377007E00B9B039A9B1A0B9353420893002375
S11337801193229B0125092B25D8052B02DD002549
S1133790043B2293229B981E032824D801F092FC18
S11337A0060E0204012302E0012308E00023109323
S11337B0239B002B20DD1F000A9321E00023239A82
S11337C01093039B9F187B1C0A930123FA18002A69
S11337D016DD130014E0012700237F422293109585
S11337E00A97123305E0012701237F4210930A97B9
S11337F011330022239203E001273B000A97239709
S1133800049A546A0022626004321100143199420D
S113381004D86168520001316160F6E76168049878
S113382000F071FE049B20605B6A1B680D930A9B89
S11338300E2B00D981E1002D00D17EE1069B079C6F
S113384014931594039B002B31DD0F223B49134045
S1133850DB00CB185C681B680E930F94039B022457
S11338601D11EB060AD514981599354B15401A6AA3
S11338705B6A02F03DF9069007910134304E002D49
S11338800ED001231D4208D00E980F99E418326817
S1133890736802F051FD0E900F916D100836EEE73B
S11338A00E9A0F9B0698079902F022F94CE0039BAD
S11338B002245D42002D49D0149815990F231F4A04
S11338C02B40DB00D3181A685B6802F035FD002337
S11338D0069007911A4E2D11002D33D00122154266
S11338E005D0A4183268736802F026FD01236D1018
S11338F00836F1E70000F07F0F2700000172000096
S1133900F8710000D4710000D57100000000F03F90
S113391001FCFFFF3204000012040000000010FE4E
S11339200000F83F61436F63A787D23FB3C8608B41
S1133930288AC63FFB799F501344D33F707200001E
S113394038730000002B01D006900791169B002BC2
S11339501DD0069D079E0022C74B2800310001F0B0
S113396047FD002813D00A9B002B10D0002F00DC49
S1133970DFE0039B3100013B0E930022BF4B280084
S113398002F0DAFC0134069007913E0002E0039B4A
S11339900A9E0E93200003F0F3FA069A079B02F0A6
S11339A0CBFC0022B64B01F077FDB64A129013917E
S11339B0129C139D9446139B634418931D00002E80
S11339C01CD1069807990022AF4B02F02FFF22006A
S11339D0189B0690079101F01FFD002800D054E2C7
S11339E0AA481399844661440B000698079922005B
S11339F001F0FEFC002800D03DE29AE0109A731E0C
S1133A00A349DB00002A49D0CB181A685B68002060
S1133A10A04902F06DF82B00220002F007FF12907B
S1133A2013910D9D0698079903F074FA040003F0AE
S1133A30A7FA02000B000698079902F0F7FE013579
S1133A406B1E30341C70129A139B0690079101F080
S1133A50CFFC002800D02EE3069A079B002086495D
S1133A6002F0E4FE129A139B01F0C2FC002800D07D
S1133A70C7E00D9BEB1AB3425BDA1298139900224C
S1133A807E4B02F059FC002212901391069807997C
S1133A907A4B02F051FC06900791C3E7C918220043
S1133AA0086849682B0002F047FC0D9C12901391A2
S1133AB0A5190698079903F02DFA060003F060FA99
S1133AC002000B000698079902F0B0FE303626700B
S1133AD00134069007910022A54222D16D4B129821
S1133AE0139901F0D9FC02000B000698079901F024
S1133AF093FC002800D084E0129A139B00206549AF
S1133B0002F094FE02000B000698079901F070FC85
S1133B1000280ED06B1E1A78302A00D0CBE21D008C
S1133B20F8E706980799554B02F006FC06900791B2
S1133B30BFE7149B159C069307941B9B002B00DA8C
S1133B4081E0039A0E2A00DD7DE0D300504AD318A9
S1133B505C681B6808930994239B002B15DA0A9B65
S1133B60002B12DC00D088E1089809990022464B0A
S1133B7002F0E2FB069A079B01F058FC0A9B0893AB
S1133B801E00002800D07BE182E10D9D069E079F68
S1133B90089A099B3000390001F0AAFF03F0BAF932
S1133BA0040003F0EDF9089A099B02F0C5FB02003A
S1133BB00B003000390002F039FE220001356B1E83
S1133BC030321A700D9B0A9AEB1A9A422ED10200D7
S1133BD00B0001F061FC06000F0002000B000898C6
S1133BE0099901F005FC00280FD1089809993200C1
S1133BF03B0001F0F7FB002800D15EE2E30704D4A8
S1133C005BE20E9B039300E01D006B1E1A78392AB9
S1133C1008D10D9A9A42F7D1039A0D990132039271
S1133C2030220A701A7801321A7046E20022134BCD
S1133C3002F082FB0022002306000F0001F0D2FBF9
S1133C400028A5D039E2109A002A44D0229A012AE9
S1133C500BDC179A002A02D00F4A9B1802E0362385
S1133C601A9A9B1A089D0B9C29E00A9B5D1E089BCF
S1133C70AB4213DB5D1B18E00000F03F0000244062
S1133C8000001C400000C0FC000014400000C07C88
S1133C90707200000000E03F33040000089B0895A8
S1133CA0EA1A0025119B9B1811930A9B002B04DA36
S1133CB00B9B0A9A9C1A002301E00B9C0A9B0B9A0B
S1133CC00121D2180B920C9A0498D3180C9300F08B
S1133CD0F2FC060002E0089D0B9C109E002C0ED006
S1133CE00C9B002B0BDD0C9A231E934200DD13006A
S1133CF00B9AE41AD21A0B920C9AD31A0C93089BBF
S1133D00002B20DD109B002B17D0002D11D031008B
S1133D102A00049800F062FD059A01000600049848
S1133D2000F0D2FC05990E90049800F024FC0E9B40
S1133D300593089B5A1B06D000E0089A059904983D
S1133D4000F04CFD05900121049800F0B4FC119B97
S1133D500890002B00D1C0E11A000100049800F083
S1133D603DFD229B0890012B17DC0025069BAB42EE
S1133D700ED1079B1B03AB420AD1199B079A13422E
S1133D8006D00B9B013501330B930C9B01330C9331
S1133D90119B0120002B0DD000E00025089B089A00
S1133DA01B690E9303339B00D318586800F039FC49
S1133DB02023181A0C9BC0181F23184009D0013364
S1133DC01B1A042B02DD1C23181A03E0042B08D051
S1133DD018001C300B9B24181B180B930C9B1B18EE
S1133DE00C930B9B002B05DD1A000599049800F039
S1133DF049FD05900C9B002B05DD1A0008990498D9
S1133E0000F040FD0890169B002B1DD008990598E2
S1133E1000F08AFD002817DA039B0A22013B039372
S1133E2005990023049800F0BFFB109B0590002B1C
S1133E3000D159E1310000230A22049800F0B4FBB8
S1133E400600002F37DC33E00A9B0A9F002B2ADC94
S1133E50229B022B27DD002F12D108993B0005225B
S1133E60049800F0A1FB08900100059800F05CFDA7
S1133E7000280DDC04E0089602E000231E000893ED
S1133E80239B0D9DDB4303930AE00E9B089603934B
S1133E900D9B0D9A5D1C31231370039B0133039317
S1133EA00A960026F3E0109B002B04D10D9DB5E08B
S1133EB0229B022BCFDC002C05DD3100220004986C
S1133EC000F0E0FC06000A96002D12D071680498F8
S1133ED000F019FB3100040033690C319A1C920084
S1133EE00C30FEF70DFC01222100049800F0CAFCFE
S1133EF00A900D9B7D1E0B935B190E9308990598F0
S1133F00FFF7B0FA310010900400059800F00CFDA2
S1133F100A9A05000899049800F021FD01230C93E6
S1133F20C36830340700002B04D10100059800F069
S1133F30FBFC0C903900049800F01DFB0C9B229AAA
S1133F40134308D1069A0133134204D1392C2AD0E1
S1133F50002D1CDC1DE0002D06DB229B1D431BD124
S1133F600123069A134217D10C9B002B11DD0599EE
S1133F700122049800F086FC0899059000F0D4FC16
S1133F80002802DC05D1E30703D5392C0BD0109CA3
S1133F9031340B9B5D1C0FE00B9B5F1C0C9B002BB7
S1133FA00CDD392C05D10B9B0B9A5D1C3923137046
S1133FB057E03D000B9B01341C7068E00B9B0E9A8C
S1133FC03D001C7093423CD000230A2205990498BA
S1133FD000F0EAFA0A9B05909E4208D131000023C2
S1133FE00A22049800F0E0FA06000A900DE031007D
S1133FF000230A22049800F0D7FA002306000A22BC
S11340000A99049800F0D0FA0A900B9776E70023F7
S11340100A220599049800F0C7FA059008990598B2
S1134020FFF720FA0D9B3030287001350400EB1A9D
S1134030BB42ECDB3D1E00DC01250A9600260D9BED
S11340405D1905990122049800F01CFC089905905B
S113405000F06AFC002804DC13D1E30701D410E06B
S11340601D006B1E1A78392A08D10D9A9A42F7D18D
S1134070039B013303933123137008E001321A7058
S113408005E06B1E1A78302A01D11D00F9E7089962
S1134090049800F070FA0A9B002B0ED0002E05D075
S11340A09E4203D03100049800F065FA0A990498FE
S11340B000F061FA01E00E9B03930498059900F067
S11340C05AFA00232B70039B249A01331360269B16
S11340D00D98002B10D01D600EE0229B012B00DCFC
S11340E043E6119D012065E6002F00DDDEE6229BFC
S11340F0022B00DCDAE6AEE61DB0F0BDF7B58A8926
S113410005000C0013075AD44B68002B02DC0B6C1F
S1134110002B19DDE76A002F16D000232E682B60D0
S113412080235B011A4001D0606D14E00123216AF1
S11341302800B847431C0ED12B68002B0BD01D2B35
S113414001D0162B02D12E6000205AE04022A38910
S11341501343A38155E0A3895B0706D56368C01A9E
S1134160636B002B01D0236CC01A00230200216A68
S11341702800E76AB847A389421C06D129681D298B
S11341803AD8204ACA40D20736D500226260226952
S11341902260DB0405D5431C02D12B68002B00D11F
S11341A06065616B2E600029CED0230044339942B0
S11341B002D0280000F0A0FC0020606321E00F6919
S11341C0002FC1D00B680F60DB1B01930023920703
S11341D000D14B69A36003E0019B3F181B1A0193B4
S11341E0019B002BB0DD019B3A00216A2800A66ADE
S11341F0B0470028F0DCA389402201201343A381A7
S11342004042FEBD010040200B6970B505000C0062
S1134210002B01D100201CE0002804D08369002B6E
S113422001D100F05FF80B4B9C4201D16C6808E0AF
S1134230094B9C4201D1AC6803E0084B9C4200D17D
S1134240EC680C22A35E002BE4D021002800FFF7C9
S113425055FF70BD0872000028720000487200000B
S113426010B5024900F0B0F810BDC0460942000084
S1134270002310B5040003604360836081814366BA
S1134280C281036143618361190008225C30FEF737
S113429040FA054B24626362044BA362044BE3625D
S11342A0044B236310BDC046494F0000714F00000A
S11342B0A94F0000D54F000070B568254B1E5D4323
S11342C00E002900743100F05DFC041E08D00021AA
S11342D02A00016046600C30A0606832FEF719FACB
S11342E0200070BD836913B50400002B28D18364BA
S11342F0C3640365134B144A1B688262019398429A
S113430001D101238361200000F020F860602000C7
S113431000F01CF8A060200000F018F80022E06013
S113432004216068FFF7A4FF01220921A068FFF7B8
S11343309FFF02221221E068FFF79AFF0123A36185
S113434013BDC046C071000061420000F8B51D4BAA
S113435006001D68AB69002B02D12800FFF7C2FFDD
S11343604835AC686B68013B05D40C22A75E002F6E
S113437010D06834F7E72B68002B01D02D68F0E7E4
S113438004213000FFF798FF28600028F6D10C23A1
S1134390336016E0012320005B42E3810233A381F2
S11343A067662760A760676027616761A7615C3003
S11343B008223900FEF7ADF920006763A763A764FC
S11343C0E764F8BDC0710000F7B5040007000026DB
S11343D001914834002C16D06368A5680093009BB3
S11343E0013B00930DD4AB89012B08D90E22AB5E9F
S11343F0013304D029003800019B984706436835EF
S1134400EDE72468E6E73000FEBD00000048704791
S11344107000002070B50E001D000E23C95E90B020
S11344201400002906DA00232B60B3891B060FD57C
S113443040230FE001AA00F0F9FD0028F3DBF0238C
S1134440029A1B021340054A9B185A4253412B609F
S11344508023DB000020236010B070BD00E0FFFF6C
S1134460F7B502268B8905000C00334210D101AB4D
S11344706A46FFF7CFFF00990700280000F082FB8F
S113448000280CD10C22A35E9A0523D43343A381C4
S11344902300473323602361012363611AE08022F0
S11344A00D4BAB62A38920601343A381009B206161
S11344B06361019B002B0AD00E23E15E280000F00B
S11344C0C7FD002803D00122A3891343A381A38934
S11344D01F43A781F7BDC0466142000010B5034BDE
S11344E00100186800F04EFB10BDC0466C000020AF
S11344F0C9B28218904204D003788B4202D00130B2
S1134500F8E70020704770B5466A04000D00002EDD
S113451007D11020FFF7E2FF606246608660066004
S1134520C660666AF368002B09D0636AAA00DB6878
S11345309B18186800280ED002681A6017E0212220
S11345400421200000F0CAFA636AF060DB68002BE3
S1134550EBD100200EE001210E00AE40721D92004E
S1134560200000F0BBFA0028F3D0456086600023E9
S11345700361C36070BD70B5456A06000C00002D70
S113458007D11020FFF7AAFF7062456085600560BF
S1134590C560002C07D0726A6368D2689B00D31888
S11345A01A6822601C6070BDF7B5070008000C0093
S11345B00D691E00002101921430019A0388013113
S11345C053439B190668360C56431A0C9446B4445C
S11345D06246160C120494469BB2634408C08D4292
S11345E0EBDC002E1BD0A3689D4212DB636838000D
S11345F0591CFFF788FF2100236901909A1C92003F
S11346000C310C30FEF77CF821003800FFF7B3FFC3
S1134610019C2B1D9B00E31801355E602561200081
S1134620FEBD00220300010C914201D103041032AB
S1134630190E01D108321B02190F01D104321B01DA
S1134640990F01D102329B001000002B03DB2020C4
S11346505B0000D5501C70470722036810B50100A9
S11346601A400CD001240020234223D102221342F9
S113467003D0E34020000B601CE09B0818E098B2D4
S1134680002801D110221B0CD8B2002801D1083215
S11346901B0A180701D104321B09980701D1023201
S11346A09B08D80704D45B082020002B02D00132D9
S11346B010000B6010BD10B50C000121FFF723FFA3
S11346C001234461036110BDF0B50B691400126944
S11346D089B00D00934201DA25000C002F69266988
S11346E0AA68BB1969680193934200DD0131FFF7A1
S11346F00AFF0200BB1914329B00D3189C46002108
S113470013000290634501D202C3FBE71435BF00D6
S1134710EB191434B6000593A31903950793079B6B
S11347209C4251D2208800281ED015000026039FE9
S113473008CF069504936B461B8A434319002B88C4
S1134740CB1804999B19090C41432E68360C89191E
S11347501E0C89190E0C9BB209040B4308C5059B5A
S1134760BB42E5D8069B5E6023681D0C1FD0002168
S113477010001368039F04913E8801686E43090C7E
S11347807118049E9BB289190E043343036008CF49
S113479086881B0C6B43090C9B195B18190C04913C
S11347A0059906900430B942E6D806994B60043462
S11347B00432B4E704235B429C4463461B68002B29
S11347C005D1019B013B0193019B002BF2DC029B71
S11347D0019A18001A6109B0F0BD00000323F7B56F
S11347E0134005000E001400002B08D02349013BA0
S11347F09A00525800233100FFF7D6FE0600A3109A
S1134800019338D06C6A002C07D11020FFF766FEA4
S11348106862446084600460C4606F6ABC68002C91
S113482010D117492800FFF746FF0023B8600400A1
S1134830036007E0019B5B1001931CD020680028F3
S113484010D004000122019B1342F3D03100220056
S11348502800FFF739FF070031002800FFF78BFE1F
S11348603E00E7E7220021002800FFF72DFF002388
S113487020600360E5E73000FEBDC04660730000C1
S113488071020000F0B50C0017002369551185B0C2
S1134890EB180193013300934968A3680290009ACE
S11348A0934202DA01315B00F9E70298FFF72BFE2D
S11348B000230200060019001432AB4203DA980008
S11348C011500133F9E7EB43DB171D402300AD0022
S11348D055192269143392009A1894461F221740DE
S11348E014D00132D21B0392002219682800B94067
S11348F00A4304C504CB0399CA409C45F5D84260D9
S1134900002A07D0019B0233009303E004CB04C5C3
S11349109C45FBD8009B0298013B33612100FFF7C3
S11349202AFE300005B0F0BD03690A6910B59B1A70
S11349300400181E12D1930014341431E218C9185B
S1134940043A043913680868834204D083429B41C3
S11349500120184302E09442F2D3002010BDF0B5C8
S11349600C0085B00700110020001500FFF7DCFFE4
S1134970061E07D101003800FFF7C5FD012346617B
S1134980036155E000230193984204DA23002C00CC
S11349901D000123019361683800FFF7B4FD019BFA
S11349A026692F00C3601434B300E3180200029395
S11349B02B69002514379B00FB180393143208CC91
S11349C069469C4608CF0432009363468B808B88EB
S11349D05D19009B9BB2EB1A65460193009B2D0C5D
S11349E0190C019B691A1D14131F9C466B46491927
S11349F09B880D1409040B4361460B60039BBB4267
S1134A00DDD8029913008C420BD202CC8BB25B1915
S1134A101D14090C49190D149BB209040B4308C257
S1134A20EFE7043B1A68002A01D1013EF9E7066169
S1134A3005B0F0BDF7B51D000121089F1400FFF774
S1134A4062FD2B036D0006001B0B6D0D02D080224E
S1134A50520313430193002C18D068460094FFF7C7
S1134A60FBFD009C002809D0019B20211A00091A93
S1134A708A40C34022437261019300E07461019C47
S1134A80B461631E9C410134346107E001A8FFF75F
S1134A90E3FD0124019B346173612030002D06D0B5
S1134AA00B4BED1835232D183D60181A0BE0094BFC
S1134AB0C018094B3860E3189B00F3185869FFF7D6
S1134AC0B0FD6401201A099B18603000FEBDC04689
S1134AD0CDFBFFFFCEFBFFFFFFFFFF3F4A4370B557
S1134AE01100140000F04EF8051E03D0220000212E
S1134AF0FDF70FFE280070BD30B500293ED0043903
S1134B000B68002B00DAC9181D4A13681400002B27
S1134B1002D14B60116031E08B420DD90A688818CC
S1134B20834203D118685B6882180A604B60216075
S1134B3024E08A4203D813005A68002AF9D11D6878
S1134B405C198C420BD109686918581819608242A3
S1134B5014D110685268411819605A600EE08C42F2
S1134B6002D90C23036009E008680C18A24203D19F
S1134B7014685268201808604A60596030BDC04605
S1134B8008010020032370B5CD1C9D4308350600A1
S1134B900C2D01D20C2505E0002D03DA0C23002096
S1134BA0336040E0A942F9D81F4B1C681A00210069
S1134BB0002913D00B685B1B0DD40B2B02D90B609F
S1134BC0CC181EE08C4202D1636813601AE04B6873
S1134BD063600C0016E00C004968E9E7134C236895
S1134BE0002B03D1300000F09DF920602900300033
S1134BF000F098F9431CD1D00323C41C9C43A04269
S1134C000AD12560200007220B30231D9043C31ACC
S1134C1009D05A42E25006E0211A300000F082F92D
S1134C20431CEED1BAE770BD080100200401002046
S1134C30936810B5013B9360002B05DA9469A34295
S1134C4008DBCBB20A2B05D01368581C106019700E
S1134C50C8B201E0FEF738FB10BDF8B506000F003E
S1134C601400D518AC4208D021783A003000FFF780
S1134C70DFFF0134431CF5D100E00020F8BD000043
S1134C80F0B59FB006000F0002920593002804D0EF
S1134C908369002B01D1FFF725FB7F4B9F4201D194
S1134CA0776808E07D4B9F4201D1B76803E07C4BF5
S1134CB09F4200D1F768BB891B070AD53B69002BCB
S1134CC007D0002306AD6B6120336B761033AB76CF
S1134CD03DE039003000FEF74FFB0028F1D0012001
S1134CE04042D6E0059A111D12680591002A00DAA7
S1134CF07FE00992013423782E2B00D18DE02178B6
S1134D0003226848FFF7F4FB002807D0654B2A68A4
S1134D10C01A4023834013432B6001342178631C61
S1134D200622614802932976FFF7E2FB002800D1AE
S1134D309DE05E4B002B00D090E00722059B0733DB
S1134D409343083305936B69039A9B186B61029C28
S1134D502378002B04D1029BE31A049312D003E0BE
S1134D60252BF8D00134F3E7049B029A3900300074
S1134D70FFF773FF431C00D186E06A69049B9446E5
S1134D8063446B612378002B7ED0012200235242BE
S1134D906A6002A95432521801342B60EB60AB6094
S1134DA01370AB65217805224148FFF7A1FB002869
S1134DB008D03F4B2A68C01A0123834013432B6059
S1134DC00134EFE72B68DA0604D55322202102A828
S1134DD0121811701A0704D553222B2102A8121895
S1134DE0117022782A2A00D17CE7099B00200A212D
S1134DF005E05242EA60022213432B607AE72278EC
S1134E00303A092A04D84B4301349B180120F6E7B1
S1134E10002800D16FE709936DE763782A2B0AD144
S1134E20059B02341A1D1B680592002B01DA01232D
S1134E305B42079363E700230A201A0001346B6086
S1134E4021783039092904D8424301345218012306
S1134E50F6E7002B00D152E7079250E705AB009329
S1134E603A00144B29003000FDF7F2FC07E005ABD3
S1134E7000933A000F4B29003000FDF7A7FF039081
S1134E80039B013300D05EE7BB895B0600D526E7B0
S1134E900B981FB0F0BDC0460872000028720000D5
S1134EA048720000727300007673000051280000FD
S1134EB06C7300005B4C000070B506000D0014001C
S1134EC0002804D08369002B01D1FFF70BFA124BA1
S1134ED09C4201D1746808E0104B9C4201D1B46833
S1134EE003E00F4B9C4200D1F468A368013BA3602C
S1134EF0002B05DAA269934208DBEBB20A2B05D03A
S1134F002368E8B25A1C22601D7004E022002900C4
S1134F103000FEF7D9F970BD087200002872000055
S1134F2048720000002370B5064C05000800236099
S1134F30FDF7A2FA431C03D12368002B00D02B6099
S1134F4070BDC0463C03002070B50C000E25495FBF
S1134F5000F0A4F8002803DB636D1B18636503E00D
S1134F60A289024B1340A38170BDC046FFEFFFFF2F
S1134F70F8B51F008B8905000C001600DB0505D56C
S1134F800E23C95E0022022300F074F8A289054BA7
S1134F9028001340A38132000E23E15E3B0000F0A1
S1134FA01FF8F8BDFFEFFFFF70B50C000E25495F39
S1134FB000F060F8A389421C03D1054A1340A38181
S1134FC004E0802252011343A381606570BDC04692
S1134FD0FFEFFFFF10B50E23C95E00F015F810BDFA
S1134FE070B50500080011000022064C22601A006A
S1134FF0FCF732FB431C03D12368002B00D02B6049
S113500070BDC0463C030020002370B5064C05006B
S113501008002360FDF742FA431C03D12368002BE8
S113502000D02B6070BDC0463C030020002370B547
S1135030064C0500080011002360FDF733FA431CF9
S113504003D12368002B00D02B6070BD3C030020EB
S1135050002370B5064C050008002360FDF728FA0C
S1135060431C03D12368002B00D02B6070BDC046C5
S11350703C03002070B50500080011000022064C16
S113508022601A00FDF716FA431C03D12368002B93
S113509000D02B6070BDC0463C03002070B50500F5
S11350A0080011000022064C22601A00FCF7B4FA32
S11350B0431C03D12368002B00D02B6070BDC04675
S11350C03C03002002B4714649084900095C4900C8
S11350D08E4402BC7047C046002243088B4274D3FE
S11350E003098B425FD3030A8B4244D3030B8B42E5
S11350F028D3030C8B420DD3FF22090212BA030CEE
S11351008B4202D31212090265D0030B8B4219D3CE
S113511000E0090AC30B8B4201D3CB03C01A5241EE
S1135120830B8B4201D38B03C01A5241430B8B4236
S113513001D34B03C01A5241030B8B4201D30B031F
S1135140C01A5241C30A8B4201D3CB02C01A524146
S1135150830A8B4201D38B02C01A5241430A8B4209
S113516001D34B02C01A5241030A8B4201D30B02F2
S1135170C01A5241CDD2C3098B4201D3CB01C01A0C
S1135180524183098B4201D38B01C01A5241430916
S11351908B4201D34B01C01A524103098B4201D304
S11351A00B01C01A5241C3088B4201D3CB00C01A71
S11351B0524183088B4201D38B00C01A52414308E9
S11351C08B4201D34B00C01A5241411A00D201460E
S11351D0524110467047FFE701B5002000F0F0F897
S11351E002BDC0460029F7D076E7704703460B435B
S11351F07FD4002243088B4274D303098B425FD3CC
S1135200030A8B4244D3030B8B4228D3030C8B42F7
S11352100DD3FF22090212BA030C8B4202D31212DD
S1135220090265D0030B8B4219D300E0090AC30BB2
S11352308B4201D3CB03C01A5241830B8B4201D35F
S11352408B03C01A5241430B8B4201D34B03C01A48
S11352505241030B8B4201D30B03C01A5241C30AC0
S11352608B4201D3CB02C01A5241830A8B4201D331
S11352708B02C01A5241430A8B4201D34B02C01A1B
S11352805241030A8B4201D30B02C01A5241CDD2C0
S1135290C3098B4201D3CB01C01A524183098B420B
S11352A001D38B01C01A524143098B4201D34B01F4
S11352B0C01A524103098B4201D30B01C01A524157
S11352C0C3088B4201D3CB00C01A524183088B42DE
S11352D001D38B00C01A524143088B4201D34B00C7
S11352E0C01A5241411A00D2014652411046704739
S11352F05DE0CA0F00D04942031000D3404253403E
S113530000229C4603098B422DD3030A8B4212D3FD
S1135310FC22890112BA030A8B420CD3890192112F
S11353208B4208D3890192118B4204D389013AD06C
S1135330921100E08909C3098B4201D3CB01C01A41
S1135340524183098B4201D38B01C01A5241430954
S11353508B4201D34B01C01A524103098B4201D342
S11353600B01C01A5241C3088B4201D3CB00C01AAF
S1135370524183088B4201D38B00C01A5241D9D2C7
S113538043088B4201D34B00C01A5241411A00D248
S11353900146634652415B10104601D34042002B44
S11353A000D54942704763465B1000D3404201B5C3
S11353B0002000F005F802BD0029F8D016E7704778
S11353C07047C0468446101C62468C46191C6346CE
S11353D000E0C0461FB500F045FF002801D40021BD
S11353E0C8421FBD10B500F099FE4042013010BD07
S11353F010B500F037FF002801DB002010BD0120AC
S113540010BDC04610B500F02DFF002801DD0020BE
S113541010BD012010BDC04610B500F0BFFE00282D
S113542001DC002010BD012010BDC04610B500F005
S1135430B5FE002801DA002010BD012010BDC046D1
S1135440F0B54F464646C0B41604360C99463300B0
S113545005042C0C070C150C63437E436F43654312
S11354601C0CAD1964199C46A64203D980235B0227
S1135470984647446346250CEF191D044B464A439E
S113548043432D0C240464199918C91920000CBC39
S113549090469946F0BDC046F8B556465F464D461F
S11354A04446F0B40F00FD0FAA4609037C002E0009
S11354B05F00450F490A7F0D2943C5001803BC4608
S11354C0400A570F640DDB0F3843D2009A4500D1D0
S11354D0AAE06646A61B002E00DCFFE06346002B14
S11354E039D10300134300D0D9E06B0709D00F234F
S11354F02B40042B05D02B1DAB42AD416D42491905
S11355001D000B0200D482E0CA4B01349C4200D13E
S1135510FEE00A005646C84BED081A4050076405E1
S113552052020543120B640D002112030B0D1B05DF
S11355306405120B1A436308C04CF60714401C435D
S1135540640064083443280021003CBC904699461A
S1135550A246AB46F8BDB74B9C42C6D080231B0481
S11355601843382E00DDEBE01F2E00DD1EE1202362
S11355709B1B9C4603006746BB4098461300474666
S1135580F3403B436746BA40571EBA4113430200F7
S1135590F240EB1A9D42B6411D008A1A7642911BD5
S11355A00B0231D54A02560A002E00D1B4E0300075
S11355B001F060FD0300083B1F2B00DDB5E0202255
S11355C02900D21AD1409E400A009D4032439C4299
S11355D000DDB1E01C1B631C1F2B00DDD5E0202186
S11355E014002800C91A8C40D8408D400443DA4086
S11355F0681E854111002543002476E74146314366
S113560000D134E2310045466B0700D06FE75646BF
S11356104807ED08C9080543864B9C4235D00A0368
S11356206405120B640D7FE76346E31A9B46002B67
S113563000DC8BE06746002F3CD07E4FBC4200D19B
S113564053E780273F0438435B46382B00DCF7E000
S11356500243501E82410020D2B253194218AB4279
S113566089411D00494289180B02CDD5714B013483
S11356709C4200D13DE101206F4A6B080A4028405A
S11356801843D507054351082FE72B000B4300D1DE
S1135690CBE180231B030B431A03120B44E7013EA7
S11356A0002E6DD1AE1AB5429B41091A5B42C91A4C
S11356B0350075E70700174300D116E701235B4265
S11356C09C46E3445B46002B00D0E0E0AA18AA42C3
S11356D09B4109185B4259181500C5E7002E75D186
S11356E0661C7605760D012E00DCF3E0AE1AB0469A
S11356F04545BF410E1A7F42F61B370200D48FE0A6
S1135700551BAA42B641411A76428E1B9A464BE774
S113571056460022002507E7280001F0ABFC2030A4
S11357200300083B1F2B00DC49E72A00283882408D
S113573000259C4200DC4DE73F49E41A1140D4E6C1
S11357400243501E8241D3B2002222E7002B00D034
S1135750F3E0631C9C465B055B0D012B00DC9FE0C2
S1135760344B9C4500D1C3E0AA180918AA428041D1
S113577040424118CD075208154349086446B4E62F
S11357802C4B9C4200D0ECE6AFE611001F3CE140FC
S11357900C00202B00D17FE04021CB1A9A40154306
S11357A06A1E95410021254300242DE7330007009C
S11357B0203BDF403B00202E70D04027BE1BB04072
S11357C00243501E824113430022E2E6002C4FD0D4
S11357D0184CA44500D1ABE0802424047642214334
S11357E0382E00DDDFE01F2E00DD43E12027BC1B47
S11357F0A1460C004F46BC40A0462C004746F4404E
S11358003C434F46BD406F1EBD41F1402C43151B28
S1135810AA429241411A5242891A64469A46BFE604
S113582041464546314300D0BEE60026002400250B
S1135830F2E6C046FF070000FFFF7FFFFFFF0F8077
S11358401F2B59DC2027FF1ABC46070063469F40E4
S11358505B46B9461700DF40B8464F4643461F43F0
S113586063469A40531E9A415B463A43D840F4E655
S11358700C002C435CD0F643002E55D1551BAA4294
S1135880A441411A6442091B9A46644688E6964F2D
S1135890BC4200D0D8E628E6002280E700208FE74B
S11358A00B002B43002C00D0C2E0002B00D101E1FF
S11358B00300134300D118E6AB18AB42B6410918F4
S11358C0764271180A0200D409E1884A1D00114089
S11358D064460AE6002C5BD10E002E4300D08AE019
S11358E00100114300D1C2E0010015009A46FCE515
S11358F06446002100258FE620235B429C46DC445D
S113590063460700DF405B46BC46202B00D1ACE079
S113591040235F46DB1B98400243501E824163468E
S113592013431A00002098E66F4CA44500D057E7B3
S11359300100150064469A46D7E5002C39D10C00C5
S11359402C436ED0DB43002B1AD0674CA44568D09F
S1135950382B00DDA4E01F2B00DDAEE020240F0077
S1135960E41AA740B9462F00DF40B846A3464F4685
S1135970444627435C46A5406C1EA541D9403D439F
S1135980AD1895429B4109185B42591864466BE671
S11359900C002C4315D1010011437BD001001500EC
S11359A09A46514CA1E50D43691E8D410021ECB28C
S11359B02DE74D4CA44534D0802424045B4221437C
S11359C0C6E7040014434ED0ED084C072C43802551
S11359D0C9082D03294208D0C6082E4205D1D20891
S11359E0410711430C009A463100620FC900E500DB
S11359F011433D4C79E50600164300D175E5AE1A16
S1135A00B0464545BF410E1A7F42F61B370200D40B
S1135A10F4E5551BAA42B641411A7642891B9A46BF
S1135A2063E50100150064465FE5002200257BE57F
S1135A30002B3BD00300134315D0ED084B072B4339
S1135A408025C9082D03294207D0C4082C4204D15B
S1135A5041070B002100D2081343C9005A0F114318
S1135A60DD00214C41E5204C3FE5002054E70026B1
S1135A700025D1E534000F00203CE7403C00202EF7
S1135A802BD04027BE1BB1400D43691E8D41002120
S1135A902C43BCE6802100260903134C0025BBE5FA
S1135AA00D43691E8D410021EDB269E70100150027
S1135AB00D4C1AE50100150017E51C000F00203CF1
S1135AC0E7403C00202B0CD04027FB1A99400D43A3
S1135AD0691E8D410021254352E70021D4E71D00B2
S1135AE092E50021F3E7C046FF070000FFFF7FFFB8
S1135AF0F0B556464D4644465F46F0B41D000E03CD
S1135B004C00CB0F87B0070092468146360B640DDC
S1135B1098466AD06D4B9C4235D08022430F1204C4
S1135B201343F6001E43C3009946694B00279C4665
S1135B300023644402932B0368001B0BED0F5146B2
S1135B409B46400D009500D178E0604B98426CD0A4
S1135B505B46DA004B0F802109040B4313439B4639
S1135B605346D9005A4B9C46002360444246201AAF
S1135B706A40924601901F430F2F00D9B0E0554868
S1135B80BF00C0598746374300D088E000239946B8
S1135B900233082700260293CDE74346B34649461D
S1135BA00093029B009A9246022B00D0BFE1002191
S1135BB053460122002689461A40444B00213603ED
S1135BC00C0D2405360B2643434C1B0526401E436F
S1135BD07600D207760816434846310007B03CBC2D
S1135BE090469946A246AB46F0BD330003434FD0DE
S1135BF0002E00D1BCE1300001F03CFA03000B3B65
S1135C001C2B00DDADE11D220100D31A08393A0036
S1135C108F408E40DA40B9461643304B00279C46ED
S1135C20002360444442029385E753465A46134393
S1135C302CD1002300219B46023397E70B4320D04D
S1135C405B46002B00D19EE1584601F013FA030095
S1135C500B3B1C2B00DD8FE102005946083A9140B2
S1135C608B461D21CB1A5146D9400B0059460B4394
S1135C7051469B469140194B9C4660444042002348
S1135C8074E7002300219B4601336FE703236DE78C
S1135C900023994601330427002602934BE703238C
S1135CA00C27029347E70122D51A382D00DCB0E116
S1135CB053461A4000210023002689467EE700232C
S1135CC08026994600223603004B77E7FF07000041
S1135CD001FCFFFF80730000FFFF0F80F30300004F
S1135CE05E4500D972E100D16DE1019B4D46013B57
