S02700005350495F515549434B5F53544152545F534C4156455F43414C4C4241434B332E73726563AF
S1130000882100207516000071160000711600008A
S113001000000000000000000000000000000000DC
S11300200000000000000000000000007116000045
S113003000000000000000007116000071160000AE
S11300407116000071160000711600007116000090
S11300507116000071160000711600007116000080
S113006071160000A90C0000B90C0000C90C0000B6
S1130070D90C0000E90C0000F90C00007116000016
S11300807116000071160000711600007116000050
S1130090711600000000000000000000711600004E
S11300A0711600000000000071160000000000003E
S11300B00000000010B5064C2378002B07D1054B37
S11300C0002B02D0044800E000BF0123237010BDC0
S11300D070000020000000008C2D0000084B10B5BB
S11300E0002B03D00749084800E000BF0748036815
S11300F0002B00D110BD064B002BFBD09847F9E72D
S113010000000000740000208C2D00008C2D0000E5
S11301100000000070B50020084B98470500084C0B
S1130120FA218900A047074B186007492800A04717
S1130130064B18600522064B1A6070BD01140000BE
S1130140A91A00000400002040420F000000002013
S113015010E000E030B5084B1C68084A00258021F7
S1130160490206E0002C04D05460956013680B42E9
S1130170FCD00138F6D230BD0400002010E000E0CD
S1130180F0B5474680B40C00904600280DD1002AF3
S11301900EDD8F18084E094D306821002B689847F2
S11301A00134A742F8D1404603E00120404200E078
S11301B0002004BC9046F0BDF4000020EC000020B8
S11301C0F0B5474680B40E0015000138022811D856
S11301D0002A12D000240C4B98460C4F4346186852
S11301E0315D3B689847002809DB0134A542F5D10D
S11301F0200006E00120404203E0002001E001204D
S1130200404204BC9046F0BDF4000020F000002001
S1130210F0B55F4656464D464446F0B491B00500ED
S11302200C00160029600800B94B98472268052382
S1130230D20700D564E122681733920700D55FE145
S1130240B4490A6A871C1B3BBB4013430B620FA9CA
S11302502D27F35D0B701430C3B202931800AE4B1C
S113026098470298AD4B9847F05D0021AC4B9847F6
S1130270F37A6B712423F35CAB712523F35CEB718C
S1130280F37E2B72337F6B722B6899461800A04B58
S11302909847143000220E2306A98C4663441A8022
S11302A0328A02928023DB019A421AD004D8802336
S11302B09B019A420BD004E1C023DB01029A9A42CB
S11302C00AD080231B029A4200D1FFE0F9E01023F8
S11302D006930F3B0793FDE008230693073B079320
S11302E0F8E033680493F3689B4673690393337EA1
S11302F098462623F35C059373689A46002B15D021
S113030080235B059A4536D12723F35C002B36D135
S1130310336A1F00C0B2834B984701000E2206AB1C
S11303209C4662443800804B984725E00823069396
S1130330002307932723F35C002B0BD0069B009329
S1130340079B0E2206A98C466244B16A306A774F35
S1130350B84711E0336A1F00C0B2724B98470100DE
S1130360069B0093079B0E2206A88446624438002D
S11303706E4FB84700E00020031E00D0C0E0737E3B
S1130380002B02D0B37E4A4693732A68029FD36936
S1130390002BFCD10E3306AA944663441B884A46BC
S11303A09381049B5A461343039A134352461343BF
S11303B03B43424612021343059A57071F43272320
S11303C0F35C002B01D104331F43717E8902337F18
S11303D05B021943737F1B0219432423F35C5B0400
S11303E019432523F25C12041143F37A1943338928
S11303F0FF2B04D0802252041743194305E0F37EF7
S1130400002B02D08023DB041F432C23F35C002B3E
S113041003D1474B9B789B0701D580231F432A6850
S1130420D369002BFCD14B4659602A68D369002B51
S1130430FCD14B461F600EAB80221A7000225A700A
S1130440DA709A70336B0A93736B0B93B36B0C93E0
S1130450F36B02930D9300270EAEF9B2BB000AAA08
S11304609858002802D12000324B9847431C05D0ED
S11304703070000CC0B231002F4B98470137042F65
S1130480EBD10023EB602B616B61AB61EB612B6201
S1130490AB626B620022EB85AB853033EA540133E7
S11304A0EA540133EA540133EA542868184B984754
S11304B004002249224B9847A400224BE550002314
S11304C01EE0102306930023079303E003230693FF
S11304D00023079333680493F3689B46736903937B
S11304E0337E98462623F35C059373689A46002B63
S11304F000D11FE780235B059A4500D104E73EE75E
S1130500180011B03CBC90469946A246AB46F0BDDB
S1130510010C000000040040191500008D140000B7
S11305202D0A0000351500003D0800006508000094
S113053000200041790A000011160000E5050000C2
S1130540410C0000F8000020C2791C23002A0ED0C0
S1130550C28D92B2173B002A09D10368DA69002AD6
S1130560FCD1198502211A7E0A42FCD0002318000E
S11305707047C04682791C23002A30D0828D92B203
S1130580173B002A2BD10268107E400727D5D36978
S1130590002BFCD1538BDBB298061DD0980703D5F2
S11305A00223538318331AE0580703D504235383D3
S11305B01A3314E0D80703D50123538312330EE012
S11305C0D80603D510235383323308E09B0603D5A2
S11305D020235383213302E0138D0B800023180062
S11305E07047C046F8B58000604BC5582C68E36975
S11305F0002BFCD1237EA67D1E403023EB5C3122F0
S1130600AF5C1F40F30722D5EB8D9BB2002B1CD0AF
S1130610AA6A1378DBB2511CA9626979012901D055
S11306209BB204E0517809020B430232AA62DB0553
S1130630DB0D2385EB8D013B9BB2EB85002B06D1B3
S1130640013323750133A37501E001232375B30737
S113065009D50223237500223133EA54FB0702D55E
S11306602800EB689847730760D5AB8D9BB2002BCD
S11306705AD0638BDBB21A0702D43F22134001E045
S113068037221340002B2DD09A0705D51A22322386
S1130690EA54303B63831FE05A0705D51E223223F8
S11306A0EA542E3B638317E0DA0705D5132232237D
S11306B0EA54313B63830FE0DA0605D54222322344
S11306C0EA54223B638307E020221A4204D02132F9
S11306D03223EA54123B63837B0727D528006B69D6
S11306E0984723E0238DDB05DB0DDAB2696A0A70D3
S11306F06A6A511C69626979012904D11B0A537021
S11307006B6A01336B62AB8D013B9BB2AB85002BF3
S11307100CD10433237500222E33EA54BB0705D5CC
S113072028002B69984701E004232375F30607D5B5
S1130730102323752376FB0602D52800EB6998471E
S1130740B30607D52023237523763B0702D528005B
S1130750AB699847330707D5082323752376BB066F
S113076002D52B6A28009847F8BDC046F80000203F
S11307700C4B1B68002B10D1EFF31083002B09D115
S113078072B6BFF35F8F0022074B1A700132074B1A
S11307901A7002E00022054B1A70024A13680133F2
S11307A0136070478C000020080000209000002097
S11307B0084B1A68013A1A601B68002B09D1064BD2
S11307C01B78002B05D00122044B1A70BFF35F8FF6
S11307D062B670478C0000209000002008000020C2
S11307E0F0B583B001AC012565700027A7702570B2
S11307F021001320064EB04780221203054B9A6154
S11308002770657021001C20B04703B0F0BDC046BE
S1130810190800000044004100B583B001AB8022F8
S11308201A700A785A704A789A708A78DA701900BD
S1130830014B984703B000BD1116000010B54908DC
S113084040230024814201D20AE01C00091A631CDF
S11308509BB28842F9D94023FF2C01D8148000238D
S1130860180010BDF0B55F4656464D464446F0B4F8
S113087089B00C00059212AA117802004A4340255F
S1130880A24200D9C6E0002B51D102000800002189
S1130890644DA847834626000027002300240093C4
S11308A00194002200233F2020218C461F39029608
S11308B0039720246442041903D40D00A540A846DC
S11308C004E06446241A0D00E540A8460C00844068
S11308D0A14614001D00A4185D4122002B004646C9
S11308E05F463E4203D00E00264332002B00029C9A
S11308F0039D9D420FD801D194420CD8029C039DC4
S1130900121BAB414D46009E019F35433C004646B9
S11309103443009501940138CBD20022012300987E
S11309200199121A8B41120C1B041A436FE0002226
S1130930012B6CD1630F0493E30098460A00002353
S11309400021384CA04704000D0000239C46069368
S113095020339B460126634607930023029300221B
S113096000233F21009401950F002021494279186A
S113097003D430008840844604E05946C91B300043
S1130980C84084463100B9408946100019008018D7
S1130990594102000B0044464D462C40A246644691
S11309A0049D2C40A446544665462C4303D0340091
S11309B0044322000B000098019999420AD801D1FE
S11309C0904207D800980199121A8B41029948461F
S11309D001430291013FC8D2009C019D0299079AEC
S11309E08B1ADB0810498B420BD9069B0133DBB20F
S11309F0190006931300013307930829ADD140254C
S1130A0008E04025069A082A04D052031A43059B9D
S1130A101A800025280009B03CBC90469946A2469D
S1130A20AB46F0BDC11B0000FF1F000010B582B033
S1130A3004000E4B1B78002B01D000290DD001A916
S1130A400C7013200A4B984713200A4B9847074B06
S1130A505C7001221A70002006E0044B5B7883422C
S1130A6001D01D2000E0002002B010BD9400002041
S1130A70191500008D140000444B984233D006D859
S1130A80434B98420DD0434B98421BD06FE0424BEE
S1130A9098424AD0414B984258D0414B984266D133
S1130AA032E0012906D0002963D0022906D00329A7
S1130AB006D001E03B4867E0002065E03A4863E087
S1130AC03A4861E0012906D0002954D0022906D011
S1130AD0032906D001E0364856E0002054E03548AA
S1130AE052E0354850E0012906D0002945D00229BA
S1130AF006D0032906D001E0304845E0002043E059
S1130B002F4841E02F483FE0012906D0002936D084
S1130B10022906D0032906D001E02B4834E0002046
S1130B2032E02A4830E02A482EE0012906D0002984
S1130B3027D0022906D0032906D001E0254823E066
S1130B40002021E024481FE024481DE0012906D0AC
S1130B50002918D0022906D0032906D001E0204834
S1130B6012E0002010E01F480EE01F480CE00020B7
S1130B700AE01E4808E0032006E01D4804E01D4882
S1130B8002E01D4800E01D487047C04600100042C6
S1130B9000080042000C004200180042001C004201
S1130BA000140042030005000300060003000700D0
S1130BB00300010003001E0003001F0002000D00DB
S1130BC002000E0002000F000300110003001200D7
S1130BD00300130005003F0005003E00050052001D
S1130BE003001700030018000300190003000400A9
S1130BF002000C000300100005005300030016005F
S1130C0030B587B00C4B6A4632CB32C232CB32C2DB
S1130C10009B834206D001239A00694652588242BF
S1130C2003D100E00023D8B203E00133062BF3D153
S1130C30002007B030BDC046502C00007047C046AD
S1130C40F0B50A4B1B78002B0CD1094F094E0A4D05
S1130C500024DE515A1914600433182BF9D10122EF
S1130C60024B1A708000024BC150F0BD9600002068
S1130C70980000203D0C0000F800002010B582B060
S1130C800400062205496846054B98472000054B99
S1130C9098476B46185602B010BDC046682C000039
S1130CA0651C0000010C000010B5024B1B680020FD
S1130CB0984710BD9800002010B5024B5B680120D6
S1130CC0984710BD9800002010B5024B9B68022085
S1130CD0984710BD9800002010B5024BDB68032034
S1130CE0984710BD9800002010B5024B1B690420E2
S1130CF0984710BD9800002010B5024B5B69052091
S1130D00984710BD98000020F0B5474680B488B0DD
S1130D1005000C00160029600B681C209B0700D5F9
S1130D20BDE00B681738DB0700D5B8E008005E4B60
S1130D3098475E490A6A871C0123BB4013430B6230
S1130D4007A92427F35D0B701430C3B20193180074
S1130D50574B98470198574B9847F05D0021564BE5
S1130D6098473378002B03D1226808331343236058
S1130D702B000C3329002831002204C38B42FCD100
S1130D800023EB62AB620024AB862B863633EC5433
S1130D900133EC540133EC54353B6B722C712868ED
S1130DA0414B984707004549454B9847B800454B88
S1130DB0C5502B689846802302AA137054700123EF
S1130DC09370D4703378002B00D19370B36A03937B
S1130DD0F36A0493336B0593736B069300273A4CC1
S1130DE0F9B2BB0003AA9858002802D14046374BF9
S1130DF09847431C05D002AB1870000CC0B2190010
S1130E00A0470137042FEBD133786B71337CAB717E
S1130E10B37CEB71337D2B723378002B11D1B06925
S1130E20B38B4246516AF27F1204B47F22430A43D1
S1130E3041464A622022B25C002A04D040210B437E
S1130E4001E0002300207268B1680A43F1680A4394
S1130E500243317C0B43717C002903D11C498978FE
S1130E60890701D580210A43B17C002902D0802161
S1130E7089020B43F17C002902D0802189000B43B5
S1130E80317D002902D0802189010B434146096844
S1130E900A4341460A604A6813434B60002008B085
S1130EA004BC9046F0BDC046010C000000040040A4
S1130EB0191500008D1400002D0A00003D0F0000DC
S1130EC0410C0000F800002011160000790A00000F
S1130ED000200041931C9B00C31859603621012354
S1130EE09340425C134343547047C04630B51724C3
S1130EF0002A1ED0C5790534002D1AD01C34045D97
S1130F00E4B2052C15D00C4C238002864286816203
S1130F1005223823C2540023437203684179013AFD
S1130F20002904D1023A1A7606321A7606329A75E4
S1130F300024200030BDC04610010020F8B5800018
S1130F40634BC45826683723E35C3622A75C1F40F2
S1130F50337EB57D1D40EB0729D56379002B26D15F
S1130F60637A002B23D0E16A0B78DAB24B1CE3627C
S1130F70A379012B01D093B204E04B781B021343F5
S1130F800231E162DB05DB0DB362A38E013B9BB250
S1130F90A386A38E9BB2002B09D101333375637AE8
S1130FA0012B04D1E379002B01D10233B3756B0714
S1130FB05FD5738B5B0712D5637A012B0BD01E228E
S1130FC03823E254353B6372023333753B0702D551
S1130FD02000A3699847B36A0423738349E0637AC2
S1130FE0012B16D123689B6A638E013B9BB26386F7
S1130FF0638E9BB2002B3CD104333375002234330F
S1131000E254353B6372FB0733D52000E36898470D
S11310102FE023689B6ADB05DB0DDAB2A16A0A7054
S1131020A26A511CA162A179012904D11B0A53703F
S1131030A36A0133A362238E013B9BB22386238ED2
S11310409BB2002B15D100223833E254343B337564
S1131050637A022B05D17B070BD52000636998477F
S113106007E0637A002B04D1BB0702D52000236973
S11310709847AB0713D56379002B1DD1073333751C
S1131080053B3376013363720023A386238638330A
S11310900022E254FB0602D52000E36998472B079F
S11310A00AD56379002B07D1083333753376BB0631
S11310B002D52000236A9847ED0907D080233375B1
S11310C033767B0602D5636A20009847F8BDC04694
S11310D0F800002010B5082803D880001B4B1B58CB
S11310E09F46002030E01A4B18692DE0194B1B6A0B
S11310F09B059B0F1848D84026E0154B586923E000
S1131100134B1B68022018401ED012491022CB68D2
S11311101A42FCD00E4B1B685B0714D500200F4B02
S113112098470B4B9B681B041B0C58430CE0502343
S1131130084AD35C00205B0706D5054BD86803E05A
S11311408020000200E0064810BDC046702C00005C
S1131150B00000200008004000127A00351500009D
S1131160006CDC0270B50C4C236A017885784278F7
S11311700120024092014026B343134302002A4057
S1131180D2017F308343134303220A4012020349EE
S11311900B401343236270BD00080040FFFCFFFFB7
S11311A0082803D88000254B1B589F46172044E08D
S11311B0234A116A02230B43136200203DE0204AB4
S11311C0916902230B439361002036E01C4A118A83
S11311D002230B43138200202FE0194A918A022331
S11311E00B439382002028E016490B680222134324
S11311F00B60134B9A8419000E32CB681A42FCD050
S1131200104A91680E4BD96252689A6200229A84FD
S113121019001032CB681A42FCD00A4B1B689BB2EF
S1131220074A9384002008E005494422885C02238D
S113123003438B54002000E000207047942C0000EE
S113124000080040B000002030B585B0C222D200B2
S11312501A4B9A601A4A53681E218B435360012328
S11312606A4613700024174DE0B26946A84701345A
S1131270252CF9D103A8002444700125857004703D
S1131280114B98470620114B9847114B9847114B27
S11312901C725C729C72DC7201956B465C70062356
S11312A06A46137014725472694600200A4B9847B8
S11312B000200A4B984705B030BDC04600080040E6
S11312C0004000411915000065110000A111000043
S11312D0E11200000004004005130000BD130000EB
S11312E0064A916908230B4393610122044B1A7047
S11312F019000B781342FCD17047C046000400402B
S1131300000C004070B5060005000C78240204436C
S11313104B78002B02D08023DB021C434B7A002B3A
S113132002D080231B031C434868012818D9431E9C
S1131330184210D1022806D90223002201325B0090
S11313409842FBD800E000221202324315008023A9
S11313505B031C4304E00502354380239B021C43CA
S11313600B7A002B02D080239B031C430F4A537833
S11313705BB2002BFBDB0E4B98470E4B1E700B4AE7
S113138053785BB2002BFBDB084B9D601A0053784B
S11313905BB2002BFBDB054A516880235B020B40E8
S11313A01C435460044B984770BDC046000C004079
S11313B071070000080C0040B107000010B50400DC
S11313C00B4A53785BB2002BFBDB0A4B98470A4B62
S11313D01C70074A53785BB2002BFBDB044A53684A
S11313E0802149020B435360044B984710BDC0460B
S11313F0000C004071070000040C0040B10700001D
S113140070B504001A4A53785BB2002BFBDB194B0E
S11314109847194B1C70164A53785BB2002BFBDBC0
S1131420134E7068C004C00E144B98470500124B4D
S11314301C707668F602F60F114B1C700C4A537838
S11314405BB2002BFBDB0A4B9C682402240C0D4B83
S11314509847002E07D1012C07D9210028000A4BF8
S11314609847050001E00134E540280070BDC046FE
S1131470000C004071070000040C0040D51000006F
S1131480080C0040B1070000A91A000010B50400C0
S1131490064B9847064B1C70064A51888023DB0193
S11314A00B435380044B984710BDC046710700009E
S11314B0020C0040000C0040B107000010B504000D
S11314C00F4B98470F4B1C700F4B5A881205100F87
S11314D059880E4A0A405A8059880D4A0A405A804F
S11314E019008022D2014B881342FCD106494C8852
S11314F00202064B234013434B80064B984710BD12
S113150071070000020C0040000C0040FFF0FFFFD8
S1131510FFBFFFFFB107000010B50C78240204439D
S1131520024B9847A4B2024B5C8010BDBD1400006E
S1131530000C004010B50400064B9847064B1C7085
S1131540064B5C882405240F054B98472000054B67
S1131550984710BD71070000020C0040000C0040C9
S1131560B10700000114000030B5D378002B1ED160
S11315701378802B04D01B0680246402234300E0EC
S1131580002354780225AC430AD19478002C03D16B
S11315908024A402234302E0C024E40223434160E4
S11315A05478013C012C12D8184C23400FE04160C0
S11315B00B041B0CA024E405234383620B0CD024EE
S11315C0240623438362D378002B18D01CE00C0438
S11315D0240CA025ED052C431C4384620C0CD0255F
S11315E02D062C431C438462D478002C0CD15B035D
S11315F005D59378012B01D1816100E041615378D5
S1131600013B012B00D8816030BDC046FFFFFBFFCA
S113161010B503000A00C1090020002904D15809AB
S1131620C00105498C4660441F210B401E39994076
S1131630024B984710BDC0460044004169150000A4
S11316407047C04610B5054B9847054B9847054B66
S11316509847054B9847054B984710BD4912000021
S1131660E107000041160000411600004116000089
S1131670FEE7C04670B52E4B2E4A9A4203D02E4B3D
S11316802B4A9A4204D32D4B2D4A9A4210D31EE082
S11316902C4A294B03339B1A9B0801339B000022DD
S11316A0234824498C58845004329A42FAD1EAE7F8
S11316B0254A224B03339B1A9B0801339B000022CB
S11316C01F4800211418216004329A42FAD11F4A9B
S11316D0FF211F4B8B439360FD3990235B001D4A10
S11316E0D1501D48C3780324A34302221343C3707B
S11316F0C3780C26B34308210B43C370174B987B64
S11317003025A8430500202028439873987BB043D4
S113171001439973997BA1430A439A73104A516810
S113172080230B4353600F4B98470F4B9847FEE7BA
S1131730000000208C2D0000700000208801002093
S113174070000020040000207400002000ED00E080
S113175000000000007000410050004100480041BA
S113176000400041191C0000D11900000300064A82
S11317701268002A02D10549034A1160024A10681E
S1131780C31813607047C046C80000208821002099
S1131790012040427047C04680239B014B600020DB
S11317A07047C04601207047002070470122014B5A
S11317B01A707047E000002070B582B005000E007A
S11317C000226B46DA80064C6B46991D2800A04720
S11317D00028F9D16B4606331B88337002B070BD04
S11317E07505000070B505008CB2034E2100280079
S11317F0B0470028FAD170BD4905000010B5064C69
S1131800012206492000064B98473722A15C022397
S11318100B43A35410BDC04614010020AD170000B3
S1131820D50E000070B58EB00024019402946B466E
S11318301C745C7401259D74DD741C7524236A4634
S1131840D4540C22002106A8154B98476B461C70F3
S113185020236A46D554069480235B020393114BDC
S11318600A93114B0B93114B0C93114B0D93114E87
S113187011493000114B984734682000104B9847A9
S11318801F23184085400F4B1D603268D369002B1D
S1131890FCD122680233134323600EB070BDC046EE
S11318A0771C00000300220003002300030036001D
S11318B00300370014010020001C0042090D000041
S11318C07D0C000000E100E030B591B08023DB0521
S11318D0009300230193FF2269460A8100228B7240
S11318E0CB72012124206C4621540130215425312E
S11318F06354013163540A930531635401316354D1
S113190005932382E3762276227762761323A376E5
S11319106277E1235B02089380235B0303931E4BEE
S11319200C931E4B0D9301235B420E930F931C4D9E
S11319301C4C6A461C492800A0470028F9D1184DC0
S11319402C682000194B98471F2318401E3B8340E6
S1131950174A13602A68D369002BFCD1226802332A
S1131960134323600E48134B1860134A134B1A6039
S1131970134A144B1A606A460B490A4B9847124D96
S11319802B6898680021114CA0472B6858680021E7
S1131990A04711B030BDC046030004000300050099
S11319A05001002011020000000800427D0C0000DC
S11319B000E100E0F4000020E5170000F000002042
S11319C0B9170000EC0000206C000020BD1C0000D2
S11319D0F0B5474680B482B0234B9847234B9847D1
S11319E0234B9847234B9847234B984700231422B3
S11319F022492348234CA047234B1A78002AFCD0C1
S1131A00002300261D49214A5C5C985C844201D075
S1131A100136F6B20133142BF6D1184C9846A04483
S1131A201B4F1C4D21783800A84701344445F9D197
S1131A30194D80242403194F002E08D06C61184BD3
S1131A400093009B5A1E0092002BFAD1F4E76C61BC
S1131A506420B847AC61134B0193019B5A1E019259
S1131A60002BFAD1E8E7C046451600001501000036
S1131A7025180000FD170000C9180000CC00002044
S1131A8014010020ED0E0000E0000020B82C00003E
S1131A90CC2C0000891C00000044004155010000CA
S1131AA030750000C0270900002243088B4274D31C
S1131AB003098B425FD3030A8B4244D3030B8B424B
S1131AC028D3030C8B420DD3FF22090212BA030C54
S1131AD08B4202D31212090265D0030B8B4219D335
S1131AE000E0090AC30B8B4201D3CB03C01A524155
S1131AF0830B8B4201D38B03C01A5241430B8B429D
S1131B0001D34B03C01A5241030B8B4201D30B0385
S1131B10C01A5241C30A8B4201D3CB02C01A5241AC
S1131B20830A8B4201D38B02C01A5241430A8B426F
S1131B3001D34B02C01A5241030A8B4201D30B0258
S1131B40C01A5241CDD2C3098B4201D3CB01C01A72
S1131B50524183098B4201D38B01C01A524143097C
S1131B608B4201D34B01C01A524103098B4201D36A
S1131B700B01C01A5241C3088B4201D3CB00C01AD7
S1131B80524183088B4201D38B00C01A524143084F
S1131B908B4201D34B00C01A5241411A00D2014674
S1131BA0524110467047FFE701B5002000F006F8E7
S1131BB002BDC0460029F7D076E770477047C0469B
S1131BC0F0B54F464646C0B41604360C9946330069
S1131BD005042C0C070C150C63437E436F436543CB
S1131BE01C0CAD1964199C46A64203D980235B02E0
S1131BF0984647446346250CEF191D044B464A4357
S1131C0043432D0C240464199918C91920000CBCF1
S1131C1090469946F0BDC0460E4B70B500251E0097
S1131C200D4CE41AA410A54204D0AB00F358984715
S1131C300135F8E701F09AF8084B00251E00084C1E
S1131C40E41AA410A54204D0AB00F3589847013518
S1131C50F8E770BD782D0000782D0000782D000085
S1131C607C2D0000002310B59A4203D0CC5CC454F0
S1131C700133F9E710BD03008218934202D01970B2
S1131C800133FAE7704700000FB40B4B13B51C681F
S1131C90002C05D0A369002B02D1200000F0BCF970
S1131CA005AB049AA1682000019300F07BFB16BCED
S1131CB008BC04B01847C0466C0000204A424A41A0
S1131CC0802310B55200DB0000F002F810BD0000C4
S1131CD0F0B51D00514B85B01E6804000F00009242
S1131CE0002E05D0B369002B02D1300000F094F926
S1131CF04B4B9C4201D1746808E04A4B9C4201D191
S1131D00B46803E0484B9C4200D1F468009B022B6A
S1131D1005D0012B00D97CE0002D00DA79E0210008
S1131D20300000F00BF9616B002908D02300443324
S1131D30994202D0300000F071FA0023636300235B
S1131D40A3616360A3891B0603D52169300000F0F9
S1131D5065FAA289354B1340A381009B022B21D045
S1131D6003AB02AA2100300000F0EAF9A38918436A
S1131D70A081002D01D1029D01E0002F25D1280072
S1131D8000F042FA0195071E1AD1029B0193AB425F
S1131D9002D10120404206E0019800F035FA071E06
S1131DA00ED1F6E700200222A3891343A381002366
S1131DB0A3602300473323602361012363612AE086
S1131DC08022A389019D1343A381B369002B02D10F
S1131DD0300000F021F9009B012B03D1A389009A64
S1131DE01A43A2810823A2892760134027616561F1
S1131DF0181E0CD001231A400023101E984204D050
S1131E006D42A360A561180005E0A56003E0A3602E
S1131E1001E00120404205B0F0BDC0466C00002046
S1131E20D82C0000F82C0000182D00005CF3FFFFF4
S1131E30F7B58A8905000C0013075AD44B68002BA8
S1131E4002DC0B6C002B19DDE76A002F16D000238F
S1131E502E682B6080235B011A4001D0606D14E072
S1131E600123216A2800B847431C0ED12B68002B9C
S1131E700BD01D2B01D0162B02D12E6000205AE06E
S1131E804022A3891343A38155E0A3895B0706D5A8
S1131E906368C01A636B002B01D0236CC01A002343
S1131EA00200216A2800E76AB847A389421C06D1C8
S1131EB029681D293AD8204ACA40D20736D50022BB
S1131EC0626022692260DB0405D5431C02D12B68C1
S1131ED0002B00D16065616B2E600029CED02300F9
S1131EE04433994202D0280000F098F9002060633E
S1131EF021E00F69002FC1D00B680F60DB1B019339
S1131F000023920700D14B69A36003E0019B3F18B3
S1131F101B1A0193019B002BB0DD019B3A00216A3F
S1131F202800A66AB0470028F0DCA38940220120DB
S1131F301343A3814042FEBD010040200B6970B5EC
S1131F4005000C00002B01D100201CE0002804D067
S1131F508369002B01D100F05FF80B4B9C4201D147
S1131F606C6808E0094B9C4201D1AC6803E0084B63
S1131F709C4200D1EC680C22A35E002BE4D021002B
S1131F802800FFF755FF70BDD82C0000F82C000086
S1131F90182D000010B5024900F0B0F810BDC0467D
S1131FA03D1F0000002310B50400036043608360FC
S1131FB081814366C2810361436183611900082200
S1131FC05C30FFF758FE054B24626362044BA36246
S1131FD0044BE362044B236310BDC0462129000077
S1131FE04929000081290000AD29000070B5682549
S1131FF04B1E5D430E002900743100F055F9041E98
S113200008D000212A00016046600C30A0606832CC
S1132010FFF731FE200070BD836913B50400002B67
S113202028D18364C3640365134B144A1B6882621A
S11320300193984201D101238361200000F020F82C
S11320406060200000F01CF8A060200000F018F888
S11320500022E06004216068FFF7A4FF0122092147
S1132060A068FFF79FFF02221221E068FFF79AFFA2
S11320700123A36113BDC046D42C0000951F0000AA
S1132080F8B51D4B06001D68AB69002B02D1280072
S1132090FFF7C2FF4835AC686B68013B05D40C22DE
S11320A0A75E002F10D06834F7E72B68002B01D00F
S11320B02D68F0E704213000FFF798FF286000281E
S11320C0F6D10C23336016E0012320005B42E38148
S11320D00233A38167662760A76067602761676131
S11320E0A7615C3008223900FFF7C5FD2000676353
S11320F0A763A764E764F8BDD42C0000F7B5040017
S11321000700002601914834002C16D06368A568A6
S11321100093009B013B00930DD4AB89012B08D99C
S11321200E22AB5E013304D029003800019B98478E
S113213006436835EDE72468E6E73000FEBD00009D
S113214070B50E001D000E23C95E90B01400002966
S113215006DA00232B60B3891B060FD540230FE05A
S113216001AA00F01DFD0028F3DBF023029A1B02F4
S11321701340054A9B185A4253412B608023DB00CD
S11321800020236010B070BD00E0FFFFF7B5022609
S11321908B8905000C00334210D101AB6A46FFF76E
S11321A0CFFF00990700280000F07EF800280CD12A
S11321B00C22A35E9A0523D43343A381230047331F
S11321C023602361012363611AE080220D4BAB621B
S11321D0A38920601343A381009B20616361019B59
S11321E0002B0AD00E23E15E280000F0EBFC00284F
S11321F003D00122A3891343A381A3891F43A78189
S1132200F7BDC046951F000010B5034B01001868C8
S113221000F04AF810BDC0466C00002030B500291B
S11322203ED004390B68002B00DAC9181D4A136824
S11322301400002B02D14B60116031E08B420DD9A8
S11322400A688818834203D118685B6882180A6098
S11322504B60216024E08A4203D813005A68002AA4
S1132260F9D11D685C198C420BD10968691858189A
S11322701960824214D110685268411819605A607A
S11322800EE08C4202D90C23036009E008680C18A4
S1132290A24203D114685268201808604A60596049
S11322A030BDC046E8000020032370B5CD1C9D431B
S11322B0083506000C2D01D20C2505E0002D03DAAB
S11322C00C230020336040E0A942F9D81F4B1C685E
S11322D01A002100002913D00B685B1B0DD40B2BB3
S11322E002D90B60CC181EE08C4202D163681360E3
S11322F01AE04B6863600C0016E00C004968E9E7DB
S1132300134C2368002B03D1300000F0F7FA20604F
S11323102900300000F0F2FA431CD1D00323C41C7E
S11323209C43A0420AD12560200007220B30231DC4
S11323309043C31A09D05A42E25006E0211A3000F1
S113234000F0DCFA431CEED1BAE770BDE8000020CF
S1132350E4000020936810B5013B9360002B05DA7C
S11323609469A34208DBCBB20A2B05D01368581C2E
S113237010601970C8B201E000F01EFB10BDF8B582
S113238006000F001400D518AC4208D021783A009A
S11323903000FFF7DFFF0134431CF5D100E00020DB
S11323A0F8BD0000F0B59FB006000F00029205933F
S11323B0002804D08369002B01D1FFF72DFE7F4B49
S11323C09F4201D1776808E07D4B9F4201D1B768F5
S11323D003E07C4B9F4200D1F768BB891B070AD5F9
S11323E03B69002B07D0002306AD6B6120336B766D
S11323F01033AB763DE03900300000F049FB002893
S1132400F1D001204042D6E0059A111D12680591D1
S1132410002A00DA7FE00992013423782E2B00D1C0
S11324208DE021780322684800F0F2FB002807D0F1
S1132430654B2A68C01A4023834013432B60013440
S11324402178631C062261480293297600F0E0FBA0
S1132450002800D19DE05E4B002B00D090E00722C5
S1132460059B07339343083305936B69039A9B18C1
S11324706B61029C2378002B04D1029BE31A049322
S113248012D003E0252BF8D00134F3E7049B029A21
S113249039003000FFF773FF431C00D186E06A69FE
S11324A0049B944663446B612378002B7ED0012205
S11324B0002352426A6002A95432521801342B603C
S11324C0EB60AB601370AB6521780522414800F0E6
S11324D09FFB002808D03F4B2A68C01A0123834081
S11324E013432B600134EFE72B68DA0604D553223B
S11324F0202102A8121811701A0704D553222B2187
S113250002A81218117022782A2A00D17CE7099BAC
S113251000200A2105E05242EA60022213432B60A4
S11325207AE72278303A092A04D84B4301349B18BD
S11325300120F6E7002800D16FE709936DE763787F
S11325402A2B0AD1059B02341A1D1B680592002B05
S113255001DA01235B42079363E700230A201A0090
S113256001346B6021783039092904D8424301349D
S113257052180123F6E7002B00D152E7079250E7E7
S113258005AB00933A00144B2900300000E000BF73
S113259007E005AB00933A000F4B2900300000F030
S11325A08BF80390039B013300D05EE7BB895B0685
S11325B000D526E70B981FB0F0BDC046D82C00000C
S11325C0F82C0000182D00003E2D0000422D0000C4
S11325D000000000382D00007F230000F7B517002D
S11325E001938A680B6900900C00934200DA13008F
S11325F022003B6043321278002A01D001333B6051
S113260023689B0602D53B6802333B60062523689A
S11326101D401ED0230043331B785A1E9341226869
S113262092061CD53020E1184331087021005A1C51
S113263045310978A2184332023311700FE02200A9
S11326400123193201990098089EB047431C0ED00B
S11326500135E3683A689B1A9D42F0DBDAE7220011
S1132660019943320098089DA847431C02D10120D8
S1132670404220E006232068E1683A6803400025D0
S1132680042B03D18D1AEB43DB171D40A368226989
S1132690934201DD9B1AED180027BD420AD02200A7
S11326A001231A3201990098089EB047431CDED0DA
S11326B00137F2E70020FEBDF0B58BB006920A00A8
S11326C043320793059004920A7E0C00109B6E2AF5
S11326D000D1ABE011D8632A22D009D8002A00D156
S11326E0B5E0582A00D0C5E045310A70814A4FE070
S11326F0642A1DD0692A1BD0BCE0732A00D1AAE049
S113270009D86F2A29D0702A00D0B3E020220968A2
S11327100A43226037E0752A1FD0782A33D0A9E013
S11327200E001A684236111D196013683370A4E054
S113273021681A68080606D4490604D5111D1960D3
S11327400023D55E02E0111D19601568002D3BDAE7
S11327502D23049A6D42137036E021681A68080626
S113276006D4490604D51568111D1960ADB202E0FE
S1132770111D196015685F4B227E039308276F2A89
S11327801DD00A271BE022007821453211705A4AD5
S113279019680392081D226818600D68100602D497
S11327A0500600D5ADB2D30702D520231A432260C8
S11327B01027002D03D1202322689A43226023008E
S11327C0002243331A7002E00A274A4B03936368DA
S11327D0A360002B09DB0422216891432160002DB2
S11327E005D1049E002B11D07BE0002D79D0049EEE
S11327F028003900FFF7DEF9039B013E5B5C2800EB
S113280033703900FFF750F9051EF1D1082F09D1B3
S11328102368DB0706D563682269934202DC302310
S1132820013E3370049B9B1B23612BE009681A68EB
S1132830080607D4490605D5111D19601368A28A34
S11328401A8004E0111D1960136862691A6000237C
S1132850049E236116E01A68111D19601668002190
S11328606268300000F0D4F9002801D0801B606059
S1132870636803E02600423632700123236100239B
S1132880049A1370079B09AA00932100069B0598DC
S1132890FFF7A4FE431C02D10120404227E0236934
S11328A0320006990598079DA847431CF4D0236875
S11328B000259B070FD4099BE068984217DA18009B
S11328C015E022000123193206990598079EB047A6
S11328D0431CE1D00135E368099A9B1A9D42F0DB61
S11328E0E9E72600039B42361B7833708EE70BB072
S11328F0F0BDC046492D00005A2D0000002370B5DC
S1132900064C050008002360FEF730FF431C03D18A
S11329102368002B00D02B6070BDC04684010020CA
S113292070B50C000E25495F00F07EF9002803DB2A
S1132930636D1B18636503E0A289024B1340A381F6
S113294070BDC046FFEFFFFFF8B51F008B8905007F
S11329500C001600DB0505D50E23C95E00220223F8
S113296000F042F9A289054B28001340A3813200EC
S11329700E23E15E3B0000F077F8F8BDFFEFFFFFA8
S113298070B50C000E25495F00F02EF9A389421C96
S113299003D1054A1340A38104E08022520113436A
S11329A0A381606570BDC046FFEFFFFF10B50E2325
S11329B0C95E00F0E3F810BDF8B505000F0014007F
S11329C0002804D08369002B01D1FFF725FB234B9A
S11329D09C4201D16C6808E0214B9C4201D1AC6857
S11329E003E0204B9C4200D1EC68A369A360A38957
S11329F01B070AD52369002B07D023682269FEB27E
S1132A00981A636998420FDB08E02100280000F05F
S1132A103FF80028F1D0012040421DE021002800A9
S1132A20FFF78CFA0028F6D1A3680130013BA360BC
S1132A3023685A1C22601F706369984205D0A389D9
S1132A403000DB0708D50A2E06D121002800FFF745
S1132A5075FA0028DFD13000F8BDC046D82C00003C
S1132A60F82C0000182D000070B5050008001100B6
S1132A700022064C22601A00FDF7A2FB431C03D17E
S1132A802368002B00D02B6070BDC0468401002059
S1132A90364B70B51D6806000C00002D05D0AB69DF
S1132AA0002B02D12800FFF7B7FA314B9C4201D129
S1132AB06C6808E02F4B9C4201D1AC6803E02E4BBC
S1132AC09C4200D1EC680C22A35E9AB2110723D475
S1132AD0D10607D409220120326037321343A3817F
S1132AE0404242E0530713D5616B002908D023000C
S1132AF04433994202D03000FFF790FB0023636314
S1132B002422A3899343A381002363602369236060
S1132B100822A3891343A3812369002B0BD1A0238B
S1132B20A2899B00134080229200934203D021008B
S1132B303000FFF72BFB0123A289134005D00023AB
S1132B40A36063695B42A36103E0920700D46369F5
S1132B50A36000202369834207D10C22A35E1A06D6
S1132B6003D540221343A381013870BD6C000020BB
S1132B70D82C0000F82C0000182D0000002370B59C
S1132B80064C050008002360FEF702FE431C03D137
S1132B902368002B00D02B6070BDC0468401002048
S1132BA0002370B5064C0500080011002360FEF7F1
S1132BB0F3FD431C03D12368002B00D02B6070BDB0
S1132BC084010020002370B5064C05000800236032
S1132BD0FEF7E8FD431C03D12368002B00D02B60D3
S1132BE070BDC0468401002070B5050008001100C6
S1132BF00022064C22601A00FEF7D6FD431C03D1C6
S1132C002368002B00D02B6070BDC04684010020D7
S1132C10C9B28218904204D003788B4202D00130AA
S1132C20F8E700207047000070B5050008001100A7
S1132C300022064C22601A00FDF7A2FA431C03D1BD
S1132C402368002B00D02B6070BDC0468401002097
S1132C5000080042000C0042001000420014004230
S1132C6000180042001C0042090A0B0C0D0E000063
S1132C70E6100000E2100000E21000004011000025
S1132C8040110000FA100000EC10000000110000D8
S1132C902E110000CC110000AC110000AC1100009A
S1132CA038120000BE110000DA110000B01100005B
S1132CB0E8110000281200000001020304050607C1
S1132CC008090A0B0C0D0E0F1011121325640000D5
S1132CD0430000000C000020000000000000000081
S1132CE000000000000000000000000000000000E0
S1132CF000000000000000000000000000000000D0
S1132D0000000000000000000000000000000000BF
S1132D1000000000000000000000000000000000AF
S1132D20000000000000000000000000000000009F
S1132D300000000000000000232D302B2000686CF0
S1132D404C006566674546470030313233343536CA
S1132D503738394142434445460030313233343503
S1132D60363738396162636465660000F8B5C04679
S1132D70F8BC08BC9E467047DD000000F8B5C046AC
S10F2D80F8BC08BC9E467047B50000007B
S1132D8C08000000401F00000100000000000000CB
S1132D9CD82C0000F82C0000182D000000000000B6
S1132DAC000000000000000000000000D02C000017
S1132DBC0000000000000000000000000000000003
S1132DCC00000000000000000000000000000000F3
S1132DDC00000000000000000000000000000000E3
S1132DEC0000000000000000000000000C000020A7
S903167571
