S01300004D6173746572426F6172642E73726563BD
S113000020220020812000007D2000007D200000AF
S113001000000000000000000000000000000000DC
S11300200000000000000000000000007D2000002F
S113003000000000000000007D2000007D20000082
S11300407D2000007D2000007D2000007D20000038
S1130050511400007D2000007D2000007D20000060
S1130060B509000091190000A1190000B1190000A0
S1130070C1190000D1190000E1190000F10A0000C3
S1130080010B0000110B0000C10E0000D10E000096
S1130090E10E000000000000000000007D200000D0
S11300A07D200000000000007D2000000000000012
S11300B00000000010B5064C2378002B07D1054B37
S11300C0002B02D0044800E000BF0123237010BDC0
S11300D08400002000000000B0520000084B10B55E
S11300E0002B03D00749084800E000BF0748036815
S11300F0002B00D110BD064B002BFBD09847F9E72D
S11301000000000088000020B0520000B05200003F
S11301100000000001680722CB691A42FCD1704735
S1130120F0B55F4656464D464446F0B48BB00700E2
S11301300D00160039600800994B984799490A6ADE
S1130140841C0123A34013430B6209A9337B0B7066
S11301501430C4B22000944B98472000934B984726
S1130160307B0021924B98472B681C209B0700D5BD
S11301700FE12B681738DB0700D50AE13868884B94
S11301809946984704008B498B4B9847A4008B4BA6
S1130190E75000233B767B7600247B83BB832522B8
S11301A0BC543B6214332B603B6898461800C84724
S11301B08146802308AA1370547001239370D4706D
S11301C0F069356A002803D1002140467C4B9847EA
S11301D008AB1870022308AA5370000CC0B21100B7
S11301E0784B9847002D04D101214046744B984721
S11301F0050008AB1D70022308AA5370280CC0B276
S11302001100704B9847B38AFB80F38A3B81327E9E
S11302108023002A04D16C4B9B789B07DB0FDB0106
S1130220B16832690A4313432422B25C002A02D023
S11302308022D2051343B26A13432C22B25C002AF3
S113024003D180229204914202D1802212051343E9
S11302502D22B25C002A02D08022120413432E22E3
S1130260B25C002A02D08022D203134342461268B1
S113027013434246136080235B00536048461430A6
S1130280C0B2524B984705000790FA27BF00336865
S11302905F4373689A464E4CA047029003917800DE
S11302A0A04700900191308E6843A047494B9B467C
S11302B0494A4A4BD8474A4D00224A4BA847049022
S11302C005913800A04702000B0004980599D8470F
S11302D002000B00444C02980399A047009A019B2A
S11302E0A8470022414BA047009A019B404CA047DD
S11302F0404B98470400B26880239B049A4242D141
S1130300FA21890057464F430298039902000B00D3
S1130310A8470090019138002D4B98470022364B96
S1130320D84702000B0000980199314EB0470022D3
S11303302E4B2D4EB0472F4B9847061E06D0390042
S113034007982E4B98470238831B07E07900481E14
S1130350079B9C466044294B9847431EFF2C03D8B7
S1130360FF2B03D9402014E0402012E0FF22144068
S1130370360634431B04FF22120413401C43434635
S1130380DC60002005E04020FF2C02D8002600237A
S1130390ECE70BB03CBC90469946A246AB46F0BD98
S11303A0E918000000040040251F0000991E000009
S11303B0151700005D06000029190000CC0100207B
S11303C0611700001D20000000200041411F0000B3
S11303D0313E00002932000095D626E80B2E113E4E
S11303E0A5250000000024401D3700000000F03F58
S11303F0FD2B0000C53D000000000840352400002E
S113040003681A7E920707D502221A765B8B9B0734
S11304104120DB1718400AE05A8B520706D55A6868
S1130420C02189020A435A60182000E00020704766
S113043030B5026800230124022504E001339BB295
S11304400189994207D9117E214206D1117E2942A0
S1130450F4D0002002E0122000E0002030BDC046AD
S113046010B5046863688022D2021343636061623A
S1130470024B98470123237610BDC0463104000087
S1130480F0B55F4656464D464446F0B483B0060088
S11304900F0005684C88314B98477B7A002B03D0BA
S11304A0B97A30002E4B98476A682E4B13406B6024
S11304B03B7A002B09D03B885A007B7A9B03134379
S11304C08022120213436B6205E03B885A007B7A58
S11304D09B0313436B623000234B9847002836D1AB
S11304E03000224B9847031E019030D1A0460024CF
S11304F020339946194B9B461B4B9A4611E06B8B54
S11305004A46134222D03000D8477B681A5D28231C
S1130510EA543000D047002806D16B8B01345B07C6
S113052004D4A045EBD103E0019001E01E23019324
S1130530B37A0198002B0AD03000084B98476B68B7
S1130540C022920213436B60019800E0412003B083
S11305503CBC90469946A246AB46F0BD150100004E
S113056061040000FFFFFBFF3104000001040000F0
S113057010B5838B9BB20522002B05D10133837206
S1130580C372024B98470200100010BD81040000A2
S113059001680722CB691A42FCD1704770B5040088
S11305A006683268438B858B5D1BADB2838B013B40
S11305B09BB2838313010CD5C37A002B15D0838B94
S11305C09BB2012B11D173688022D2021343736052
S11305D00BE0C37A002B08D0838B9BB2002B04D191
S11305E073688022D20213437360A38B9BB2002BE7
S11305F00AD1A37A002B07D02000084B98477368D0
S1130600C0229202134373602000044B9847236A6C
S11306105D192823F35CDBB22B7070BD91050000DB
S113062070B504000668738B5B0703D51E2225236F
S1130630C2540FE0438B858B5D1BADB2838B013BB2
S11306409BB28383044B9847236A5D192B78DBB2F2
S11306502822B35470BDC0469105000070B58000D7
S11306606F4BC45825682B681B01DA0F637E267E06
S11306701E40638B9BB2002B35D1A38B9BB2002B06
S113068031D02B7EDB071BD501232B766B8B9B078D
S113069003D541222523E25412E06B8B5B070FD56F
S11306A018222523E2540023A383A37A002B07D026
S11306B020005C4B98476B68C022920213436B6026
S11306C0A38B9BB263832523E35C052B56D11F3395
S11306D0E35C002B03D12000534B98474EE02000ED
S11306E0524B98474AE0638B9BB2002B26D0A38BD6
S11306F09BB2002B22D12533E35C052B1ED11F3383
S1130700E35C002B1AD103332B7500236383253359
S11307100022E254A37A002B08D02000414B9847D2
S11307206B68C022920213436B6001E001232B76B5
S1130730F30723D5E368200098471FE0638B9BB23F
S1130740002B1BD0A38B9BB2002B17D06B8B9B066B
S113075009D4002A03D0A38B9BB2012B03D04122DE
S11307602523E2540AE02423E35C002B03D1200078
S11307702D4B984702E020002C4B9847638B9BB28B
S1130780002B2AD0A38B9BB2002B26D12533E35C0C
S1130790052B22D11F33E35C012B1ED12B7E9B073B
S11307A001D502232B7603232B7500236383253382
S11307B00022E254B30707D52423E35C012B03D1C1
S11307C023692000984708E0F30706D52423E35C57
S11307D0002B02D1E368200098472523E35C052B16
S11307E01CD02523E35C002B18D003232B75002396
S11307F06383A3832533E35C412B0AD0A37A002BC4
S113080007D02000074B98476B68E022D2021343BD
S11308106B60730702D563692000984770BDC046BA
S1130820CC01002091050000210600009D05000078
S113083030B583B001AD00222A7001236B70AA7019
S113084069464B708A700B700E20104CA0476946A5
S11308500820A04769460D20A04769461C20A047F0
S113086029000F20A04729001720A047084B802209
S1130870D2019A61802252009A61802292015A61C7
S1130880802252055A6103B030BDC046991A000057
S11308900044004110B5154A002300219370937160
S11308A013810020507091721173917351731174FC
S11308B05361936111771362536213855385938552
S11308C003331370C0239B0093800123D372084C1D
S11308D008492000084B984722687F21D37B8B432B
S11308E0FCD1118802330B43138010BDEC000020AF
S11308F020010020002C0042590B000030B58FB0BD
S113090001AA64230193224B536000239360137361
S11309101376802189031161012149429182253195
S11309205354936208315354013153540131535495
S1130930D7331386174BD361174B1362174BD382EC
S1130940174C18492000184B984724680722E3697C
S11309501A42FCD12268022313432360104D2868F5
S1130960124B98471F2318401E3B8340104A1360C4
S1130970E8880023102105E00133834202D31023C9
S1130980638302E0628B0A42F6D00FB030BDC046EA
S1130990480D0000020010000200110010270000A2
S11309A03C010020000C00422101000065190000F8
S11309B000E100E010B50B4B1C690B4988699A688B
S11309C002439A60094B8B61002C05D02068636850
S11309D09847A468002CF9D1024BD9689A688A43D5
S11309E09A6010BD0000002000040042FFFF0F0FBA
S11309F0064A116A02230B4313620122044B1A7044
S1130A0019000B781342FCD17047C0460004004023
S1130A1000040042044A117802230B4313705378F4
S1130A205BB2002BFBDB70470018004000B583B0BD
S1130A30124A916940230B43936101A900230B706F
S1130A4005200F4B984705200E4B98470E4A117806
S1130A5001230B43137053785BB2002BFBDB0B4B6E
S1130A6019004031002204C39942FCD11022084BE2
S1130A701A60084B984703B000BDC046000400400C
S1130A80251F0000991E000000180040640100208A
S1130A9000E100E0150A0000F8B54F464646C0B430
S1130AA08000114BC35899461B68DF6A4B465B6B49
S1130AB01F404B469B6B1F400C4D4B461C1D342363
S1130AC04B4498462E683E4205D0484623689847D2
S1130AD04B461B68DE62043504344445F2D10CBC39
S1130AE090469946F8BDC046A401002080500000FD
S1130AF010B50020014B984710BDC046990A00006C
S1130B0010B50120014B984710BDC046990A00005A
S1130B1010B50220014B984710BDC046990A000049
S1130B2030B585B001AA0B4B32CB32C2019B98423F
S1130B300AD0029B984205D00023039A824205D131
S1130B40023302E0012300E00023DBB2180005B009
S1130B5030BDC046B0500000F0B54F464646C0B464
S1130B6087B004000E0090460800924B98478146D7
S1130B70914D29000C31032205A8904FB847290054
S1130B801031062203A8B8470023A360E360236161
S1130B906361237663764B469A00894BD450266072
S1130BA043469B78082B04D117204A46D20700D429
S1130BB0FBE0237133880520DB0700D5F5E0F37BE8
S1130BC01730DB0600D5F0E033889B0700D5ECE056
S1130BD043461B7C002B0CD002A901238B700022FE
S1130BE0CA704246127E0A704B704346187D754B9C
S1130BF0984743461B7F002B0DD002A901238B701D
S1130C000022CA704246526A0A704B7043461B6AFD
S1130C10D8B26C4B98476C490B6A4A46520003A8F9
S1130C20125A13430B6243469B78082B06D10B6A76
S1130C304A4601325200125A13430B6201A9434639
S1130C401B780B7005AB4A469D5C28005F4B9847A8
S1130C5028005F4B9847434698789B7902001A43D3
S1130C60434618899B8803431A43100043465B7824
S1130C70002B02D080231B01184321687F22CB7BE9
S1130C809343FCD130804346587B431E98418000F7
S1130C9043469B7B002B01D00123184321687F220C
S1130CA0CB7B9343FCD1FF333371002805D02168FB
S1130CB07F22CB7B9343FCD170714346987ADB7AD5
S1130CC0002B01D01023184343461B7B002B01D07B
S1130CD02023184321687F22CB7B9343FCD1B0713E
S1130CE022687F21D37B8B43FCD12379042B05D04D
S1130CF0082B41D01720002B57D124E07F21D37B30
S1130D008B43FCD128334246D35C337421687F2261
S1130D10CB7B9343FCD129334246D35C33752168A2
S1130D207F22CB7B9343FCD12A334246D35C337678
S1130D3021687F22CB7B9343FCD12B334246D35C87
S1130D407376002031E07F21D37B8B43FCD1434673
S1130D501B8D338221687F22CB7B9343FCD1434696
S1130D605B8D338321687F22CB7B9343FCD1434645
S1130D709B8D7383002018E07F21D37B8B43FCD1B0
S1130D8043469B6A336121687F22CB7B9343FCD12A
S1130D904346DB6AB36121687F22CB7B9343FCD15A
S1130DA043461B6BF3610020FFE707B00CBC904681
S1130DB09946F0BD210B0000B0500000293F00000F
S1130DC0BC0100201D20000000040040251F00007D
S1130DD0991E0000F0B5474680B40C0090460028E8
S1130DE00DD1002A0EDD8F18084E094D3068210000
S1130DF02B6898470134A742F8D1404603E001200C
S1130E00404200E0002004BC9046F0BDB801002040
S1130E10B0010020F0B5474680B40E00150001383B
S1130E20022811D8002A12D000240C4B98460C4FEB
S1130E3043461868315D3B689847002809DB013454
S1130E40A542F5D1200006E00120404203E0002045
S1130E5001E00120404204BC9046F0BDB8010020EE
S1130E60B401002070B58000144BC5582B689C7BDE
S1130E702B7E1C406B7E1C40E30705D52800AB6825
S1130E80984701232A689373A30705D52800EB68C4
S1130E90984702232A689373E30605D528002B6933
S1130EA0984710232A689373A30605D528006B6915
S1130EB098472B6820229A7370BDC046BC0100205D
S1130EC010B50020014B984710BDC046650E0000C8
S1130ED010B50120014B984710BDC046650E0000B7
S1130EE010B50220014B984710BDC046650E0000A6
S1130EF0F0B55F4656464D464446F0B491B0050001
S1130F000C00160029600800B94B98472268052395
S1130F10D20700D564E122681733920700D55FE158
S1130F20B4490A6A871C1B3BBB4013430B620FA9DD
S1130F302D27F35D0B701430C3B202931800AE4B2F
S1130F4098470298AD4B9847F05D0021AC4B984709
S1130F50F37A6B712423F35CAB712523F35CEB719F
S1130F60F37E2B72337F6B722B6899461800A04B6B
S1130F709847143000220E2306A98C4663441A8035
S1130F80328A02928023DB019A421AD004D8802349
S1130F909B019A420BD004E1C023DB01029A9A42DE
S1130FA00AD080231B029A4200D1FFE0F9E010230B
S1130FB006930F3B0793FDE008230693073B079333
S1130FC0F8E033680493F3689B4673690393337EB4
S1130FD098462623F35C059373689A46002B15D034
S1130FE080235B059A4536D12723F35C002B36D149
S1130FF0336A1F00C0B2834B984701000E2206AB30
S11310009C4662443800804B984725E008230693A9
S1131010002307932723F35C002B0BD0069B00933C
S1131020079B0E2206A98C466244B16A306A774F48
S1131030B84711E0336A1F00C0B2724B98470100F1
S1131040069B0093079B0E2206A884466244380040
S11310506E4FB84700E00020031E00D0C0E0737E4E
S1131060002B02D0B37E4A4693732A68029FD36949
S1131070002BFCD10E3306AA944663441B884A46CF
S11310809381049B5A461343039A134352461343D2
S11310903B43424612021343059A57071F43272333
S11310A0F35C002B01D104331F43717E8902337F2B
S11310B05B021943737F1B0219432423F35C5B0413
S11310C019432523F25C12041143F37A194333893B
S11310D0FF2B04D0802252041743194305E0F37E0A
S11310E0002B02D08023DB041F432C23F35C002B52
S11310F003D1474B9B789B0701D580231F432A6864
S1131100D369002BFCD14B4659602A68D369002B64
S1131110FCD14B461F600EAB80221A7000225A701D
S1131120DA709A70336B0A93736B0B93B36B0C93F3
S1131130F36B02930D9300270EAEF9B2BB000AAA1B
S11311409858002802D12000324B9847431C05D000
S11311503070000CC0B231002F4B98470137042F78
S1131160EBD10023EB602B616B61AB61EB612B6214
S1131170AB626B620022EB85AB853033EA540133FA
S1131180EA540133EA540133EA542868184B984767
S113119004002249224B9847A400224BE550002327
S11311A01EE0102306930023079303E00323069312
S11311B00023079333680493F3689B46736903938E
S11311C0337E98462623F35C059373689A46002B76
S11311D000D11FE780235B059A4500D104E73EE771
S11311E0180011B03CBC90469946A246AB46F0BDEF
S11311F0E918000000040040251F0000991E0000AB
S113120015170000411F0000251500004D150000B2
S113121000200041611700001D200000C5120000DD
S113122029190000CC010020C2791C23002A0ED009
S1131230C28D92B2173B002A09D10368DA69002AE9
S1131240FCD1198502211A7E0A42FCD00023180021
S11312507047C04682791C23002A30D0828D92B216
S1131260173B002A2BD10268107E400727D5D3698B
S1131270002BFCD1538BDBB298061DD0980703D505
S11312800223538318331AE0580703D504235383E6
S11312901A3314E0D80703D50123538312330EE025
S11312A0D80603D510235383323308E09B0603D5B5
S11312B020235383213302E0138D0B800023180075
S11312C07047C046F8B58000604BC5582C68E36988
S11312D0002BFCD1237EA67D1E403023EB5C312203
S11312E0AF5C1F40F30722D5EB8D9BB2002B1CD0C3
S11312F0AA6A1378DBB2511CA9626979012901D069
S11313009BB204E0517809020B430232AA62DB0566
S1131310DB0D2385EB8D013B9BB2EB85002B06D1C6
S1131320013323750133A37501E001232375B3074A
S113133009D50223237500223133EA54FB0702D571
S11313402800EB689847730760D5AB8D9BB2002BE0
S11313505AD0638BDBB21A0702D43F22134001E058
S113136037221340002B2DD09A0705D51A22322399
S1131370EA54303B63831FE05A0705D51E2232230B
S1131380EA542E3B638317E0DA0705D51322322390
S1131390EA54313B63830FE0DA0605D54222322357
S11313A0EA54223B638307E020221A4204D021320C
S11313B03223EA54123B63837B0727D528006B69E9
S11313C0984723E0238DDB05DB0DDAB2696A0A70E6
S11313D06A6A511C69626979012904D11B0A537034
S11313E06B6A01336B62AB8D013B9BB2AB85002B07
S11313F00CD10433237500222E33EA54BB0705D5E0
S113140028002B69984701E004232375F30607D5C8
S1131410102323752376FB0602D52800EB69984731
S1131420B30607D52023237523763B0702D528006E
S1131430AB699847330707D5082323752376BB0682
S113144002D52B6A28009847F8BDC046CC0100207D
S113145070B50022154B1A7000231F25144E134C2F
S11314601F2B19D90FE0002100E012490A619B00EB
S11314709B59002B00D0984723780133DBB22370AB
S11314800F2BEDD911E02900194001228A400021D7
S113149009691142E7D1EFE72900194001228A4086
S11314A0044909691142E0D1E6E770BDC801002092
S11314B0640100200018004070B50020084B9847D4
S11314C00500084CFA218900A047074B186007491A
S11314D02800A047064B18600522064B1A6070BD11
S11314E00D1E0000352400001800002040420F00AB
S11314F01400002010E000E030B5084B1C68084AD6
S113150000258021490206E0002C04D05460956037
S113151013680B42FCD00138F6D230BD180000200D
S113152010E000E010B5490840230024814201D2B4
S11315300AE01C00091A631C9BB28842F9D94023B3
S1131540FF2C01D814800023180010BDF0B55F46AD
S113155056464D464446F0B489B00C00059212AA92
S1131560117802004A434025A24200D9C6E0002B6C
S113157051D1020008000021644DA847834626008B
S113158000270023002400930194002200233F201D
S113159020218C461F3902960397202464420419A3
S11315A003D40D00A540A84604E06446241A0D00A7
S11315B0E540A8460C008440A14614001D00A41870
S11315C05D4122002B0046465F463E4203D00E009A
S11315D0264332002B00029C039D9D420FD801D16B
S11315E094420CD8029C039D121BAB414D46009EB5
S11315F0019F35433C00464634430095019401382D
S1131600CBD20022012300980199121A8B41120CAB
S11316101B041A436FE00022012B6CD1630F049367
S1131620E30098460A0000230021384CA047040038
S11316300D0000239C46069320339B4601266346F7
S1131640079300230293002200233F210094019575
S11316500F0020214942791803D430008840844681
S113166004E05946C91B3000C84084463100B940E3
S11316708946100019008018594102000B004446A5
S11316804D462C40A2466446049D2C40A446544634
S113169065462C4303D03400044322000B00009819
S11316A0019999420AD801D1904207D8009801992A
S11316B0121A8B410299484601430291013FC8D254
S11316C0009C019D0299079A8B1ADB0810498B42F2
S11316D00BD9069B0133DBB21900069313000133C7
S11316E007930829ADD1402508E04025069A082A29
S11316F004D052031A43059B1A800025280009B020
S11317003CBC90469946A246AB46F0BD4D25000030
S1131710FF1F000010B582B004000E4B1B78002B95
S113172001D000290DD001A90C7013200A4B984751
S113173013200A4B9847074B5C7001221A70002053
S113174006E0044B5B78834201D01D2000E00020BA
S113175002B010BDA0000020251F0000991E00004B
S1131760444B984233D006D8434B98420DD0434B58
S113177098421BD06FE0424B98424AD0414B98426A
S113178058D0414B984266D132E0012906D0002955
S113179063D0022906D0032906D001E03B4867E064
S11317A0002065E03A4863E03A4861E0012906D048
S11317B0002954D0022906D0032906D001E0364876
S11317C056E0002054E0354852E0354850E0012905
S11317D006D0002945D0022906D0032906D001E00D
S11317E0304845E0002043E02F4841E02F483FE0E7
S11317F0012906D0002936D0022906D0032906D0B3
S113180001E02B4834E0002032E02A4830E02A4846
S11318102EE0012906D0002927D0022906D0032969
S113182006D001E0254823E0002021E024481FE001
S113183024481DE0012906D0002918D0022906D029
S1131840032906D001E0204812E0002010E01F48E0
S11318500EE01F480CE000200AE01E4808E00320C8
S113186006E01D4804E01D4802E01D4800E01D4854
S11318707047C0460010004200080042000C0042BD
S113188000180042001C004200140042030005003E
S113189003000600030007000300010003001E000C
S11318A003001F0002000D0002000E0002000F00E2
S11318B003001100030012000300130005003F00A1
S11318C005003E0005005200030017000300180045
S11318D0030019000300040002000C0003001000C0
S11318E0050053000300160030B587B00C4B6A4660
S11318F032CB32C232CB32C2009B834206D00123A8
S11319009A0069465258824203D100E00023D8B2BB
S113191003E00133062BF3D1002007B030BDC046ED
S1131920C85000007047C046F0B50A4B1B78002B26
S11319300CD1094F094E0A4D0024DE515A19146086
S11319400433182BF9D10122024B1A708000024B88
S1131950C150F0BDA2000020A40000202519000001
S1131960CC01002010B582B0040006220549684667
S1131970054B98472000054B98476B46185602B014
S113198010BDC046E0500000293F0000E9180000E7
S113199010B5024B1B680020984710BDA40000201E
S11319A010B5024B5B680120984710BDA4000020CD
S11319B010B5024B9B680220984710BDA40000207C
S11319C010B5024BDB680320984710BDA40000202B
S11319D010B5024B1B690420984710BDA4000020D9
S11319E010B5024B5B690520984710BDA400002088
S11319F00C4B1B68002B10D1EFF31083002B09D183
S1131A0072B6BFF35F8F0022074B1A700132074B87
S1131A101A7002E00022054B1A70024A136801335F
S1131A2013607047BC0000201C000020C000002090
S1131A30084B1A68013A1A601B68002B09D1064B3F
S1131A401B78002B05D00122044B1A70BFF35F8F63
S1131A5062B67047BC000020C00000201C000020BB
S1131A60F0B583B001AC012565700027A77025701F
S1131A7021001320064EB04780221203054B9A61C1
S1131A802770657021001C20B04703B0F0BDC0462C
S1131A90991A00000044004100B583B001AB8022D4
S1131AA01A700A785A704A789A708A78DA7019002B
S1131AB0014B984703B000BD1D20000010B5082855
S1131AC003D880001B4B1B589F46002030E01A4B64
S1131AD018692DE0194B1B6A9B059B0F1848D840C9
S1131AE026E0154B586923E0134B1B68022018406D
S1131AF01ED012491022CB681A42FCD00E4B1B6830
S1131B005B0714D500200F4B98470B4B9B681B04B5
S1131B101B0C58430CE05023084AD35C00205B079D
S1131B2006D5054BD86803E08020000200E0064893
S1131B3010BDC046E8500000C4000020000800406A
S1131B4000127A00411F0000006CDC0270B50C4CDE
S1131B50236A017885784278012002409201402668
S1131B60B343134302002A40D2017F30834313431B
S1131B7003220A40120203490B401343236270BD3F
S1131B8000080040FFFCFFFF082803D88000254B15
S1131B901B589F46172044E0234A116A02230B4333
S1131BA0136200203DE0204A916902230B439361B4
S1131BB0002036E01C4A118A02230B4313820020C2
S1131BC02FE0194A918A02230B439382002028E0D4
S1131BD016490B68022213430B60134B9A841900B5
S1131BE00E32CB681A42FCD0104A91680E4BD9626F
S1131BF052689A6200229A8419001032CB681A4201
S1131C00FCD00A4B1B689BB2074A9384002008E06F
S1131C1005494422885C022303438B54002000E0DE
S1131C20002070470C51000000080040C400002050
S1131C30F0B5474680B484B0C222D200224B9A60E9
S1131C40224A53681E218B43536001236A46137052
S1131C5000241F4DE0B26946A8470134252CF9D170
S1131C6003A800244470012585700470194B98471B
S1131C700620194B9847194B984701956B465C70A1
S1131C80062398466B4642461A701C725C7269467B
S1131C900320134FB8470320124EB047124B1C7257
S1131CA05C729C72DC7201956B465C7042461A70E1
S1131CB01C725C7269460020B8470020B04704B02B
S1131CC004BC9046F0BDC0460008004000400041FE
S1131CD0251F00004D1B0000891B0000ED1C0000A7
S1131CE0111D0000C91D000000040040064A91694E
S1131CF008230B4393610122044B1A7019000B78DB
S1131D001342FCD17047C04600040040000C004060
S1131D1070B5060005000C78240204434B78002BB0
S1131D2002D08023DB021C434B7A002B02D0802399
S1131D301B031C434868012818D9431E184210D1BC
S1131D40022806D90223002201325B009842FBD804
S1131D5000E0002212023243150080235B031C437F
S1131D6004E00502354380239B021C430B7A002BBD
S1131D7002D080239B031C430F4A53785BB2002B91
S1131D80FBDB0E4B98470E4B1E700B4A53785BB22D
S1131D90002BFBDB084B9D601A0053785BB2002BD1
S1131DA0FBDB054A516880235B020B401C435460F3
S1131DB0044B984770BDC046000C0040F119000068
S1131DC0080C0040311A000010B504000B4A537887
S1131DD05BB2002BFBDB0A4B98470A4B1C70074A8B
S1131DE053785BB2002BFBDB044A53688021490221
S1131DF00B435360044B984710BDC046000C004091
S1131E00F1190000040C0040311A000070B5040000
S1131E101A4A53785BB2002BFBDB194B9847194BDA
S1131E201C70164A53785BB2002BFBDB134E7068B0
S1131E30C004C00E144B98470500124B1C70766802
S1131E40F602F60F114B1C700C4A53785BB2002B50
S1131E50FBDB0A4B9C682402240C0D4B9847002E94
S1131E6007D1012C07D9210028000A4B9847050007
S1131E7001E00134E540280070BDC046000C00407C
S1131E80F1190000040C0040BD1A0000080C0040C9
S1131E90311A00003524000010B50400064B9847A1
S1131EA0064B1C70064A51888023DB010B43538088
S1131EB0044B984710BDC046F1190000020C0040C5
S1131EC0000C0040311A000010B504000F4B984775
S1131ED00F4B1C700F4B5A881205100F59880E4A6D
S1131EE00A405A8059880D4A0A405A8019008022B3
S1131EF0D2014B881342FCD106494C880202064B9E
S1131F00234013434B80064B984710BDF119000042
S1131F10020C0040000C0040FFF0FFFFFFBFFFFF7A
S1131F20311A000010B50C7824020443024B984780
S1131F30A4B2024B5C8010BDC91E0000000C00401E
S1131F4010B50400064B9847064B1C70064B5C8882
S1131F502405240F054B98472000054B984710BDD6
S1131F60F1190000020C0040000C0040311A00007E
S1131F700D1E000030B5D378002B1ED11378802BB2
S1131F8004D01B0680246402234300E00023547819
S1131F900225AC430AD19478002C03D18024A402F6
S1131FA0234302E0C024E402234341605478013C0B
S1131FB0012C12D8184C23400FE041600B041B0C79
S1131FC0A024E405234383620B0CD024240623437A
S1131FD08362D378002B18D01CE00C04240CA025B9
S1131FE0ED052C431C4384620C0CD0252D062C4398
S1131FF01C438462D478002C0CD15B0305D5937800
S1132000012B01D1816100E041615378013B012B37
S113201000D8816030BDC046FFFFFBFF10B5030050
S11320200A00C1090020002904D15809C00105494A
S11320308C4660441F210B401E399940024B98473F
S113204010BDC04600440041751F00007047C046E3
S113205010B5054B9847054B9847054B9847054BDA
S11320609847054B984710BD311C0000611A0000C9
S1132070F10900002D0A00004D200000FEE7C046D3
S113208070B52E4B2E4A9A4203D02E4B2B4A9A42BD
S113209004D32D4B2D4A9A4210D31EE02C4A294BCF
S11320A003339B1A9B0801339B00002223482449D5
S11320B08C58845004329A42FAD1EAE7254A224BDA
S11320C003339B1A9B0801339B0000221F48002105
S11320D01418216004329A42FAD11F4AFF211F4B7F
S11320E08B439360FD3990235B001D4AD1501D48FA
S11320F0C3780324A34302221343C370C3780C267A
S1132100B34308210B43C370174B987B3025A84376
S11321100500202028439873987BB04301439973AA
S1132120997BA1430A439A73104A516880230B4355
S113213053600F4B98470F4B9847FEE70000002071
S1132140B0520000840000201C0200208400002003
S1132150040000208800002000ED00E000000000E2
S1132160007000410050004100480041004000411F
S1132170DD3E0000612300000300064A1268002AC5
S113218002D10549034A1160024A1068C31813605A
S11321907047C046DC00002020220020012040427D
S11321A07047C04680239B014B6000207047C046A7
S11321B0012070470020704770B584B003A9002443
S11321C00C708C7002264E7008200F4DA84702A98F
S11321D00C708C704E700E20A84701A90C708C7086
S11321E04E701620A847094B1A6A0949120A0120A1
S11321F002400A701A6A920B02404A701B6A9B0DD5
S113220003408B7004B070BD991A00000044004173
S1132210E000002070B582B005000E0000226B467D
S1132220DA80064C6B46991D2800A0470028F9D196
S11322306B4606331B88337002B070BD5512000024
S113224070B505008CB2034E21002800B047002869
S1132250FAD170BD2912000030B591B08023DB059E
S1132260009300230193FF2269460A8100228B72A6
S1132270CB72962189010891012124206C462154B6
S11322800130215425316354013163540A930531DB
S113229063540131635405932382E37622762277D3
S11322A062761323A376627780235B0303931E4B2A
S11322B00C931E4B0D9301235B420E930F931C4D05
S11322C01C4C6A461C492800A0470028F9D1184D27
S11322D02C682000194B98471F2318401E3B83404D
S11322E0174A13602A68D369002BFCD12268023391
S11322F0134323600E48134B1860134A134B1A60A0
S1132300134A144B1A606A460B490A4B9847124DFC
S11323102B6898680021114CA0472B68586800214D
S1132320A04711B030BDC0460300040003000500FF
S1132330E4010020F10E00000008004265190000CD
S113234000E100E0B801002041220000B4010020B7
S113235015220000B0010020800000208140000010
S1132360F0B54F464646C0B485B01F4B98471F4B47
S113237098471F4B98471F4B98471F4B98471F4838
S11323801F4B98471F4B984701AA1F4B13CB13C2EF
S113239000261B4B99461D4B98461D48C847C0470D
S11323A01C4C1D4D06E0731C9BB2FA22920096420F
S11323B006D01E0001A92000A8470028F3D100E0A0
S11323C01E000520154B98470024154F154D395D07
S11323D01548A8470134032CF9D10A20134B984718
S11323E01348074B9847D8E751200000B914000060
S11323F05922000095080000FD0800003C5100002F
S11324006D4000003108000030510000B921000087
S1132410505100003C01002071050000F914000037
S1132420E00000204D3F000060510000813F0000AB
S113243064510000002243088B4274D303098B4289
S11324405FD3030A8B4244D3030B8B4228D3030C80
S11324508B420DD3FF22090212BA030C8B4202D322
S11324601212090265D0030B8B4219D300E0090A4A
S1132470C30B8B4201D3CB03C01A5241830B8B4253
S113248001D38B03C01A5241430B8B4201D34B033C
S1132490C01A5241030B8B4201D30B03C01A5241A1
S11324A0C30A8B4201D3CB02C01A5241830A8B4226
S11324B001D38B02C01A5241430A8B4201D34B020F
S11324C0C01A5241030A8B4201D30B02C01A524173
S11324D0CDD2C3098B4201D3CB01C01A5241830927
S11324E08B4201D38B01C01A524143098B4201D361
S11324F04B01C01A524103098B4201D30B01C01A8C
S11325005241C3088B4201D3CB00C01A5241830805
S11325108B4201D38B00C01A524143088B4201D332
S11325204B00C01A5241411A00D201465241104692
S11325307047FFE701B5002000F006F802BDC04671
S11325400029F7D076E770477047C046F0B54F468C
S11325504646C0B41604360C9946330005042C0CC8
S1132560070C150C63437E436F4365431C0CAD1984
S113257064199C46A64203D980235B0298464744CB
S11325806346250CEF191D044B464A4343432D0C67
S1132590240464199918C91920000CBC9046994662
S11325A0F0BDC046F8B556465F464D464446F0B4C5
S11325B00F00FD0FAA4609037C002E005F00450FA3
S11325C0490A7F0D2943C5001803BC46400A570F2A
S11325D0640DDB0F3843D2009A4500D1AAE0664669
S11325E0A61B002E00DCFFE06346002B39D103005C
S11325F0134300D0D9E06B0709D00F232B40042BE1
S113260005D02B1DAB42AD416D4249191D000B0293
S113261000D482E0CA4B01349C4200D1FEE00A009F
S11326205646C84BED081A4050076405520205434C
S1132630120B640D002112030B0D1B056405120B14
S11326401A436308C04CF60714401C436400640832
S11326503443280021003CBC90469946A246AB4630
S1132660F8BDB74B9C42C6D080231B041843382EB8
S113267000DDEBE01F2E00DD1EE120239B1B9C46AA
S113268003006746BB40984613004746F3403B436C
S11326906746BA40571EBA4113430200F240EB1A90
S11326A09D42B6411D008A1A7642911B0B0231D518
S11326B04A02560A002E00D1B4E0300001F0F0FBCB
S11326C00300083B1F2B00DDB5E020222900D21AAD
S11326D0D1409E400A009D4032439C4200DDB1E05F
S11326E01C1B631C1F2B00DDD5E0202114002800D7
S11326F0C91A8C40D8408D400443DA40681E854195
S113270011002543002476E74146314300D134E2E9
S1132710310045466B0700D06FE756464807ED0881
S1132720C9080543864B9C4235D00A036405120B45
S1132730640D7FE76346E31A9B46002B00DC8BE0C5
S11327406746002F3CD07E4FBC4200D153E7802720
S11327503F0438435B46382B00DCF7E00243501E4D
S113276082410020D2B253194218AB4289411D0064
S1132770494289180B02CDD5714B01349C4200D1DA
S11327803DE101206F4A6B080A4028401843D507F1
S1132790054351082FE72B000B4300D1CBE18023E5
S11327A01B030B431A03120B44E7013E002E6DD1A9
S11327B0AE1AB5429B41091A5B42C91A350075E746
S11327C00700174300D116E701235B429C46E3440C
S11327D05B46002B00D0E0E0AA18AA429B410918EE
S11327E05B4259181500C5E7002E75D1661C7605A5
S11327F0760D012E00DCF3E0AE1AB0464545BF412C
S11328000E1A7F42F61B370200D48FE0551BAA42F2
S1132810B641411A76428E1B9A464BE75646002231
S1132820002507E7280001F03BFB20300300083BAC
S11328301F2B00DC49E72A002838824000259C42EF
S113284000DC4DE73F49E41A1140D4E60243501E30
S11328508241D3B2002222E7002B00D0F3E0631CB4
S11328609C465B055B0D012B00DC9FE0344B9C45D3
S113287000D1C3E0AA180918AA4280414042411875
S1132880CD075208154349086446B4E62C4B9C42D4
S113289000D0ECE6AFE611001F3CE1400C00202B19
S11328A000D17FE04021CB1A9A4015436A1E95411E
S11328B00021254300242DE733000700203BDF409F
S11328C03B00202E70D04027BE1BB0400243501E58
S11328D0824113430022E2E6002C4FD0184CA44559
S11328E000D1ABE08024240476422143382E00DD5D
S11328F0DFE01F2E00DD43E12027BC1BA1460C00B6
S11329004F46BC40A0462C004746F4403C434F464B
S1132910BD406F1EBD41F1402C43151BAA4292419C
S1132920411A5242891A64469A46BFE641464546D0
S1132930314300D0BEE6002600240025F2E6C0465E
S1132940FF070000FFFF7FFFFFFF0F801F2B59DCF5
S11329502027FF1ABC46070063469F405B46B946E2
S11329601700DF40B8464F4643461F4363469A402C
S1132970531E9A415B463A43D840F4E60C002C437C
S11329805CD0F643002E55D1551BAA42A441411AEE
S11329906442091B9A46644688E6964FBC4200D0BE
S11329A0D8E628E6002280E700208FE70B002B43BF
S11329B0002C00D0C2E0002B00D101E1030013433E
S11329C000D118E6AB18AB42B6410918764271182B
S11329D00A0200D409E1884A1D00114064460AE64F
S11329E0002C5BD10E002E4300D08AE0010011437D
S11329F000D1C2E0010015009A46FCE564460021BE
S1132A0000258FE620235B429C46DC446346070096
S1132A10DF405B46BC46202B00D1ACE040235F4640
S1132A20DB1B98400243501E8241634613431A0045
S1132A30002098E66F4CA44500D057E7010015002C
S1132A4064469A46D7E5002C39D10C002C436ED04D
S1132A50DB43002B1AD0674CA44568D0382B00DD2B
S1132A60A4E01F2B00DDAEE020240F00E41AA740F1
S1132A70B9462F00DF40B846A3464F464446274395
S1132A805C46A5406C1EA541D9403D43AD18954216
S1132A909B4109185B42591864466BE60C002C43B1
S1132AA015D1010011437BD0010015009A46514C09
S1132AB0A1E50D43691E8D410021ECB22DE74D4C7B
S1132AC0A44534D0802424045B422143C6E7040097
S1132AD014434ED0ED084C072C438025C9082D0320
S1132AE0294208D0C6082E4205D1D2084107114315
S1132AF00C009A463100620FC900E50011433D4CB9
S1132B0079E50600164300D175E5AE1AB046454591
S1132B10BF410E1A7F42F61B370200D4F4E5551B61
S1132B20AA42B641411A7642891B9A4663E50100DE
S1132B30150064465FE5002200257BE5002B3BD0B1
S1132B400300134315D0ED084B072B438025C90818
S1132B502D03294207D0C4082C4204D141070B009D
S1132B602100D2081343C9005A0F1143DD00214C40
S1132B7041E5204C3FE5002054E700260025D1E53F
S1132B8034000F00203CE7403C00202E2BD040278F
S1132B90BE1BB1400D43691E8D4100212C43BCE690
S1132BA0802100260903134C0025BBE50D43691E53
S1132BB08D410021EDB269E7010015000D4C1AE5C5
S1132BC00100150017E51C000F00203CE7403C0005
S1132BD0202B0CD04027FB1A99400D43691E8D41D0
S1132BE00021254352E70021D4E71D0092E500218E
S1132BF0F3E7C046FF070000FFFF7FFFF0B556462E
S1132C004D4644465F46F0B41D000E034C00CB0F06
S1132C1087B0070092468146360B640D98466AD009
S1132C206D4B9C4235D08022430F12041343F600AF
S1132C301E43C3009946694B00279C460023644405
S1132C4002932B0368001B0BED0F51469B46400D6E
S1132C50009500D178E0604B98426CD05B46DA0076
S1132C604B0F802109040B4313439B465346D90061
S1132C705A4B9C46002360444246201A6A409246BE
S1132C8001901F430F2F00D9B0E05548BF00C05931
S1132C908746374300D088E000239946023308274B
S1132CA000260293CDE74346B34649460093029B70
S1132CB0009A9246022B00D0BFE100215346012224
S1132CC0002689461A40444B002136030C0D240586
S1132CD0360B2643434C1B0526401E437600D20781
S1132CE0760816434846310007B03CBC90469946E6
S1132CF0A246AB46F0BD330003434FD0002E00D1B3
S1132D00BCE1300001F0CCF803000B3B1C2B00DDD0
S1132D10ADE11D220100D31A08393A008F408E40DC
S1132D20DA40B9461643304B00279C4600236044E2
S1132D304442029385E753465A4613432CD1002359
S1132D4000219B46023397E70B4320D05B46002BC0
S1132D5000D19EE1584601F0A3F803000B3B1C2B65
S1132D6000DD8FE102005946083A91408B461D214F
S1132D70CB1A5146D9400B0059460B4351469B464A
S1132D809140194B9C4660444042002374E7002361
S1132D9000219B4601336FE703236DE70023994627
S1132DA001330427002602934BE703230C270293E5
S1132DB047E70122D51A382D00DCB0E153461A400A
S1132DC000210023002689467EE7002380269946B9
S1132DD000223603004B77E7FF07000001FCFFFFEA
S1132DE074510000FFFF0F80F30300005E4500D91B
S1132DF072E100D16DE1019B4D46013B019300233B
S1132E00340002935B461E020B0E1E430B02039317
S1132E10330C994633041B0C494620000093FFF7FA
S1132E2009FB009B370043430600494620009846AF
S1132E30FFF786FB2C0C09040C43A04509D9E419BF
S1132E40731EA74200D95CE1A04500D859E1023EB7
S1132E50E4194346E41A49462000FFF7EBFA03005D
S1132E60009A80465343494620009B46FFF768FB7F
S1132E702A040904120C0A4393450DD94346D21976
S1132E80013B974200D93AE1934500D837E1022348
S1132E905B429C46D219E0445B46D21A4346360450
S1132EA033439B460399180C0B0C1D00059309042E
S1132EB05B46090C0C001B041B0C4443049159434E
S1132EC06B4368431B190D0CEB189C4203D98024F7
S1132ED06402A44660441C0C09041B04090C201859
S1132EE05D18824200D2DEE000D1D7E0161A029BC0
S1132EF09C465D1BAC459B415B42F61AB74200D130
S1132F0006E149463000FFF795FA009B040043436D
S1132F10494630009846FFF713FB2E0C09040E4374
S1132F20B04509D9F619631EB74200D9F3E0B0459C
S1132F3000D8F0E0023CF6194346F31A494618005B
S1132F400293FFF777FA009B060043434946029831
S1132F509846FFF7F5FA2D0409042D0C0D43A845F6
S1132F6009D9ED19731EAF4200D9D6E0A84500D89F
S1132F70D3E0023EED192404210043463143049E6C
S1132F80059A3000ED1A0B040C0C1B0C58436643D5
S1132F90534354439A19030C9B189E4203D980222D
S1132FA05202944664441A0C00041B04000C1419C5
S1132FB01B18A54250D34DD001231943964A019BB7
S1132FC094466344002B00DCF3E64A0709D00F2241
S1132FD00A40042A05D00A1D8A42894149428B4489
S1132FE011005A46D20108D55A468C4B1A409346D2
S1132FF08022D2009446019B6344894A934200DDB7
S11330005BE65A46C9085007084356025146012256
S11330105B058146360B5B0D0A4055E680231B0396
S11330201E4211D05A461A420ED15E461E43360342
S1133030360B2A0089467B4B46E6032B00D1E1E0A0
S1133040012BBBD11A40BBE61E433603360B424666
S1133050744B39E6002BB1D07D194A1EAF4252D9C8
S11330601100A542A8D1039A9A42A5D1A6E703006C
S11330703E00283B9E400023994654E600F010FF92
S1133080203041E603005246283B9A4000219346F3
S113309077E6504600F004FF20305EE6029B0026EF
S11330A0AB4200D323E7039E0299B44661448846A9
S11330B0B045B6415B467642F619B218013B02911F
S11330C0974213D290424FD800D18EE0161A9B46F5
S11330D00DE7894500D28EE674084B46F6073500A5
S11330E05B081D434B46DB0702938BE69742EDD109
S11330F00399029CA142E5D93E1A9B46F7E69846FD
S1133100CAE61E00A5E6AC423ED874D0110053E7CF
S11331100121494252E71C000EE71E002BE71F2D38
S11331203CDC20230A0058465B1B9840EA40994047
S11331300243481E81415E461143EE404B0709D0CD
S11331400F230B40042B05D00B00191D99429B4102
S11331505B42F61833023CD55346012200211A4043
S1133160002601238946AFE502235B429C46039C6B
S1133170E344A446029B63449846A045B641764284
S1133180F6190293B218B1E603988A1E41008142EF
S1133190B6417642F619AD19039161E71F225242F6
S11331A0D31A5A46DA401300202D29D0402258461B
S11331B0551BA8400143481E814107200B4318407A
S11331C00026002809D00F2200261A401900042ADC
S11331D0BBD10B0070077602360BDB08034399461C
S11331E0012253461A4000236EE502998D42BBD852
S11331F09B4600267BE603989842C5D3110032E72C
S11332000020D7E780265B4636031E433603360B81
S1133210009A8946034B57E5FF030000FFFFFFFEBA
S1133220FE070000FF070000F0B55F4656464D4616
S11332304446F0B40D0399464E002B0B87B00700AB
S1133240924680469B46760DCC0F002E69D06D4B7E
S11332509E4235D05B468022DD001204430F1343A7
S11332602B439B46C3009846674B00279C4600238C
S1133270664401934A4615035000D20F53462D0B62
S1133280400D914600D176E05E4A90426CD0802297
S11332905B0F120413435C4AED0094461D435346EE
S11332A00022DB00604449463618701C61400290DD
S11332B017430F2F00D9AFE05448BF00C759BF468A
S11332C05B461F4300D088E000239B4698460233A8
S11332D008270193CEE74946022A6AD0032A00D17F
S11332E009E2012A00D0BBE111400022002300259D
S11332F09046CCB200212D030A0D12052D0B154367
S1133300434A1B0515401D436D00E4076D08254322
S11333104046290007B03CBC90469946A246AB46BD
S1133320F0BD034352D05B46002B00D18AE15846DE
S113333000F0B6FD03000B3B1C2B00DD7BE11D22DE
S1133340D31A3A0001005D46DA4008398D40130073
S11333508F402B439B46B8462E4B00279C460023A8
S113336060444642019385E752462A432CD1002506
S11333700023022297E752462A4321D0002D00D190
S113338054E1280000F08CFD03000B3B1C2B00DDF6
S113339046E11D21CB1A51460200D9405346083A52
S11333A0954093400D431B4A94466044404200229A
S11333B079E7012400220C40124B0025904699E73E
S11333C00025002301226EE703226CE700239B46BD
S11333D098460133042701934CE703230C270193F8
S11333E048E700238025984600242D03054B81E7F8
S11333F05D464346019A6FE75D4643462100019AC4
S11334006AE7C046FF07000001FCFFFFB45100005B
S1133410FFFF0F80F30300004246120C91461A0C82
S11334209446424617044A461B041B0C5A43604602
S113343090464A4642431000039262461C003F0CE9
S11334407A437C4342440192220C9246019A5244AC
S1133450904506D98246802040028046C2445046A8
S11334600390100C049048462404240C12041219EE
S113347005922A0C2D042D0C68432C0082464846E4
S11334807C4350438146200C80465743574447446D
S1133490BA4503D9802040028046C144380C3F0419
S11334A0B84648442404240C01900498A0444044A1
S11334B004905846000C814658460404200C824669
S11334C0070048465F434C464343604660436446B6
S11334D0834650464443380C8446E4186444A3426B
S11334E003D980235B029C46E34448463F04230CF3
S11334F03F0C2404E419574668436F4384464D4601
S1133500504655434243380C814662444A445B4426
S1133510944503D9802040028446654403983F04BF
S1133520834604983F0C8446E344C34580414042AB
S11335308246100484460198674484466744A34441
S1133540BC46A345A4419946D44464428742BF4142
S1133550D4458041E144A04699459B417F42404285
S1133560C8440743120CBA18A045A4415F423B006B
S113357064422343D71843467D19DB0D6D021D4376
S11335805B465A02059B1A43531E9A415B46DB0D68
S11335901A4343465B021343EA0107D501225C0840
S11335A013402343EA07029E13436D08574AB21897
S11335B0002A4BDD580709D00F201840042805D0F5
S11335C0181D98429B415B42ED180300E80104D5A5
S11335D04F4A15408022D200B2184E48824200DD84
S11335E0E7E60124DB08680718436D0253058046AB
S11335F02D0B5B0D0C407DE68022594612031142CF
S113360008D0154206D115432D0398462D0B4C4680
S1133610414B6FE65D4615432D032D0B3E4B69E68A
S113362003005546283B9D400023BCE6504600F06D
S113363037FC2030A8E60300283B9F400023BB460C
S1133640984689E600F02CFC203073E60124A61A83
S1133650382E07DD00220C4000230025904649E661
S1133660029EA3E71F2E20DC20222C001800921BB0
S1133670F040944093400443581E83411C43F5405A
S1133680630709D00F232340042B05D023001C1DFE
S11336909C4292415242AD182B021FD501240022B4
S11336A00C4001230025904624E61F202C004042B4
S11336B0821AD440202E1CD04022961BB5402B43A6
S11336C0581E83410720234318400025002809D0B1
S11336D00F2200251A401C00042AD8D123006807B1
S11336E06D022D0B0124DB08034398460C40002394
S11336F000E60025E3E780220124120315432D038D
S113370098462D0B0C40044BF4E5C046FF03000023
S1133710FFFFFFFEFE070000FF070000F0B557465D
S11337204E464546E0B40E001100F20F9246C50025
S1133730420F180337037400400A4E0F7F0A3043C8
S1133740CF4E17435A00640D520DDB0FC900B2422D
S113375000D1E5E001267340A61AB446534500D1D2
S1133760AFE0002E00DC0DE1002A3AD103000B4348
S113377000D0E4E06B0709D00F232B40042B05D0C5
S11337802B1DAB42AD416D427F191D003B0200D49D
S113379088E0BB4B01349C4200D110E13A00B94BA4
S11337A051461A4001235007ED08520264050543AF
S11337B0120B640D0B400021280012030D0D120B97
S11337C064052D0515436208AF4CDB072C401443F8
S11337D0640064081C4321001CBC90469946A24620
S11337E0F0BDA74B9C42C5D080231B0418436346FD
S11337F0382B00DDFDE01F2B00DD30E16246202385
S11338009B1A02009A40664690460A009940F2408C
S113381046464B1E99413243114363460200DA4047
S1133820691A8D429B410D00BA1A5B42D71A3B02BA
S113383035D57A02530A98464346002B00D1C4E09A
S1133840404600F02DFB0300083B1F2B00DDC5E0C4
S113385020222900D21A4746D1409F400A009D40A9
S11338603A439C4200DDC0E01C1B631C1F2B00DD9F
S1133870E4E0202114002800C91AD8408C408D406F
S11338800443DA40681E854117002543002471E78C
S1133890424663461A4300D14CE2674645466B07ED
S11338A000D069E7012351467807ED08FA080B4078
S11338B0054373498C4238D012036405120B640D1E
S11338C079E7002E00DC9AE0002A47D06C4A944243
S11338D000D14FE78022120410436246382A00DCEC
S11338E008E10143481E81410022C9B24919D21995
S11338F0A942BF410D007F42BF183A0200D442E101
S11339005F4A0134944200D14EE101205D4A6908C6
S11339103A4028400843D507054357089A4629E703
S113392006000E4300D017E714E72900114300D125
S1133930F9E1802109030A431203120B3BE7012337
S11339405B429846C4446346002B72D1691A8D4287
S11339509B413F1A5B42FF1A0D0068E702000A43CD
S113396000D107E7012252429046C4446246002A2D
S113397000D0E6E06918A942B6413F187642F7192B
S11339800D00BAE7002E00D080E0621C5205520DF3
S1133990012A00DCF9E06A1A91464D45B6413A1A0B
S11339A07642921B9046120200D499E04D1BA94224
S11339B08941C71B49427A1A90469A463CE75246C7
S11339C00123002513400022F5E6280000F068FAE0
S11339D020300300083B1F2B00DC39E72A0028387D
S11339E0824000259C4200DC3EE7264FE41A174043
S11339F0C0E60143481E81410022C9B210E7002EEF
S1133A0000D0F1E0621C94465205520D012A00DCFC
S1133A10A0E01B4A944500D1C5E06918A94292412F
S1133A203F185242D2194908D5070D435708644636
S1133A30A0E6134B9C4200D0D9E69BE611001F3C44
S1133A40E1400C00202B00D180E04021CB1A9A40A9
S1133A5015436A1E95410027254300241FE763464A
S1133A600200203BDA406346202B71D04023664697
S1133A709B1B98400143481E814111430022CFE61D
S1133A80FF070000FFFF7FFFFFFF0F80002C48D0DF
S1133A90CA4CA24200D1A2E07442A146802424046C
S1133AA027434C46382C00DDDBE01F2C00DD44E1CD
S1133AB04E462024A41B3E00A640A246B0464C46D7
S1133AC02E00E640B4464646644626435446A54086
S1133AD06C1EA54134002C434D46EF400D1B28E0DD
S1133AE04A4643464D461A4300D0A5E60023002427
S1133AF00025DEE61F2A5ADC66462022921B0600B9
S1133B0096409146B04662460E00D6404246164361
S1133B104A4691404A1E9141020060463143C240E8
S1133B20E4E63C002C435AD0F443A146002C52D185
S1133B304D1BA9428941C71B49427F1A14009A466A
S1133B4075E69E4A944200D0C7E613E600227FE75A
S1133B5000208FE7002C00D0C8E03B002B4300D1AD
S1133B600FE103000B4300D104E66918A9429B410D
S1133B703F185B42DF193B0200D41AE1904B0D0061
S1133B801F406446F6E59A4689E63A002A43002C2B
S1133B905CD1002A75D102000A4300D1CAE00700B3
S1133BA00D009A46E6E564460022002581E6624659
S1133BB00600203AD6406246B046202A00D1B7E03B
S1133BC040226646921B904001434246481E814172
S1133BD0114300228AE6794CA24200D061E7070033
S1133BE00D0014009A46C5E5002C41D13C002C433D
S1133BF078D0F443A146002C20D0704CA24271D05E
S1133C004C46382C00DDB2E01F2C00DDBCE0202641
S1133C10341BA2463C005646B4404E46A0462C00F7
S1133C20F440A446444666463443A4465446A5405C
S1133C3064466E1EB54125434C46E7406D188D42DF
S1133C4089413F184942CF19140056E6002A2FD162
S1133C5002000A4300D184E007000D009A46574C45
S1133C6088E53D436F1EBD41ECB200270D1B60E7A4
S1133C70524CA24236D0744280263604A1463743C1
S1133C80BEE702000A4300D174E56A1A904645452E
S1133C90B6413A1A7642921B9446120200D4F7E5D2
S1133CA04D1BA9428941C71B49427F1A9A4661E5C7
S1133CB002000A433AD0ED087C072C438025FA0819
S1133CC02D032A4208D0C7082F4205D145072C00EE
S1133CD03A009A46C9080C43670FD200E50017431F
S1133CE0364C47E507000D00140043E53A002A432B
S1133CF043D002000A4319D0ED087C072C438025E9
S1133D00FA082D032A4207D0C6082E4204D14707D9
S1133D103C003200C9080C43D700620FE50017438A
S1133D209A46264C26E50022002544E5234C21E54D
S1133D30002049E700230025BBE54C463E00203C1B
S1133D40E6404C46B446202C31D040244E46A61BB7
S1133D50B7403D436C1EA54164462C4300270D1B10
S1133D60E7E6802200231203144C0025A1E53D431D
S1133D706F1EBD410027EDB260E707000D000F4C38
S1133D80F8E407000D00F5E44E463C00203EF44004
S1133D90A0464C46202C0ED040244E46A41BA740DF
S1133DA03D436F1EBD4144460027254346E7002797
S1133DB0CFE70D0073E50027F2E7C046FF070000D8
S1133DC0FFFF7FFF0B0330B5134D1A0B4B005B0D48
S1133DD0C90F0024AB4211DD104CA34210DC802437
S1133DE0640322430E4CE41A1F2C0CDD0D48C31A45
S1133DF0DA4013005C42002900D11C00200030BDD1
S1133E00094BCC18FAE7E040084CA44663449A40B6
S1133E1013000343EEE7C046FE0300001D04000048
S1133E203304000013040000FFFFFF7FEDFBFFFFDE
S1133E3070B5051E28D000F033F8154B154A1B1A2F
S1133E40D21A1F2A16DD2C00134A0025D21A9440D8
S1133E505A052403240B520D002124030B0D240BBB
S1133E601B0523430D4C1205234013435B0028001C
S1133E70590870BD0B212C00081AC4409540240336
S1133E805A05240B520DE7E700220024E4E7C0465C
S1133E901E0400003304000013040000FFFF0F8021
S1133EA01C2101231B04984201D3000C10391B0A66
S1133EB0984201D3000A08391B09984201D300092A
S1133EC0043902A2105C40187047C0460403020281
S1133ED00101010100000000000000000E4B70B55C
S1133EE000251E000D4CE41AA410A54204D0AB001A
S1133EF0F35898470135F8E701F0CAF9084B002553
S1133F001E00084CE41AA410A54204D0AB00F358D8
S1133F1098470135F8E770BD9C5200009C520000A0
S1133F209C520000A0520000002310B59A4203D016
S1133F30CC5CC4540133F9E710BD030082189342EA
S1133F4002D019700133FAE7704700000FB40B4B2D
S1133F5013B51C68002C05D0A369002B02D12000E6
S1133F6000F00AFB05AB049AA1682000019300F05D
S1133F70C9FC16BC08BC04B01847C0468000002029
S1133F80084B70B51C680500002C05D0A369002BF4
S1133F9002D1200000F0F0FA2900A268200000F00D
S1133FA05DFF70BD8000002070B505000E00002884
S1133FB004D08369002B01D100F0DEFAAB69AC6850
S1133FC0002B02D1280000F0D7FA254B9C4201D1E6
S1133FD06C6808E0234B9C4201D1AC6803E0224B9F
S1133FE09C4200D1EC68A3891B0702D52369002BEE
S1133FF011D12100280000F055F900280BD0012030
S113400040422BE0013B0136A360002B08DB236810
S11340105A1C226019703178A3680029F2D10BE090
S1134020A269934201DB0A29F1D12200280000F0A1
S1134030E1F8431CEFD1E2E7013BA360002B08DA6F
S113404022000A31280000F0D5F8431CD7D00A20FA
S113405004E00A2023685A1C2260187070BDC04610
S1134060FC5100001C5200003C52000010B5034BF0
S113407001001868FFF798FF10BDC04680000020BB
S11340804A424A41802310B55200DB0000F002F896
S113409010BD0000F0B51D00514B85B01E68040032
S11340A00F000092002E05D0B369002B02D130001E
S11340B000F062FA4B4B9C4201D1746808E04A4B11
S11340C09C4201D1B46803E0484B9C4200D1F4689F
S11340D0009B022B05D0012B00D97CE0002D00DAD7
S11340E079E02100300000F0D9F9616B002908D093
S11340F023004433994202D0300000F03FFB0023F8
S113410063630023A3616360A3891B0603D521694C
S1134110300000F033FBA289354B1340A381009B90
S1134120022B21D003AB02AA2100300000F0B8FA20
S1134130A3891843A081002D01D1029D01E0002F25
S113414025D1280000F010FB0195071E1AD1029B0F
S11341500193AB4202D10120404206E0019800F0F5
S113416003FB071E0ED1F6E700200222A3891343A6
S1134170A3810023A3602300473323602361012329
S113418063612AE08022A389019D1343A381B3695B
S1134190002B02D1300000F0EFF9009B012B03D17A
S11341A0A389009A1A43A2810823A2892760134095
S11341B027616561181E0CD001231A400023101ECC
S11341C0984204D06D42A360A561180005E0A56083
S11341D003E0A36001E00120404205B0F0BDC04609
S11341E080000020FC5100001C5200003C520000E2
S11341F05CF3FFFFF8B505000F001400002804D09D
S11342008369002B01D100F0B7F9234B9C4201D103
S11342106C6808E0214B9C4201D1AC6803E0204B60
S11342209C4200D1EC68A369A360A3891B070AD54B
S11342302369002B07D023682269FEB2981A6369A8
S113424098420FDB08E02100280000F02BF800283A
S1134250F1D0012040421DE02100280000F01EF9A9
S11342600028F6D1A3680130013BA36023685A1CDF
S113427022601F706369984205D0A3893000DB0770
S113428008D50A2E06D12100280000F007F90028DD
S1134290DFD13000F8BDC046FC5100001C520000C4
S11342A03C520000364B70B51D6806000C00002D12
S11342B005D0AB69002B02D1280000F05DF9314B29
S11342C09C4201D16C6808E02F4B9C4201D1AC6840
S11342D003E02E4B9C4200D1EC680C22A35E9AB200
S11342E0110723D4D10607D40922012032603732C2
S11342F01343A381404242E0530713D5616B002965
S113430008D023004433994202D0300000F036FA3A
S1134310002363632422A3899343A381002363605E
S1134320236923600822A3891343A3812369002BF3
S11343300BD1A023A2899B001340802292009342B8
S113434003D02100300000F0D1F90123A2891340E9
S113435005D00023A36063695B42A36103E0920775
S113436000D46369A36000202369834207D10C222F
S1134370A35E1A0603D540221343A381013870BDFE
S113438080000020FC5100001C5200003C52000040
S1134390F7B58A8905000C0013075AD44B68002B23
S11343A002DC0B6C002B19DDE76A002F16D000230A
S11343B02E682B6080235B011A4001D0606D14E0ED
S11343C00123216A2800B847431C0ED12B68002B17
S11343D00BD01D2B01D0162B02D12E6000205AE0E9
S11343E04022A3891343A38155E0A3895B0706D523
S11343F06368C01A636B002B01D0236CC01A0023BE
S11344000200216A2800E76AB847A389421C06D142
S113441029681D293AD8204ACA40D20736D5002235
S1134420626022692260DB0405D5431C02D12B683B
S1134430002B00D16065616B2E600029CED0230073
S11344404433994202D0280000F098F900206063B8
S113445021E00F69002FC1D00B680F60DB1B0193B3
S11344600023920700D14B69A36003E0019B3F182E
S11344701B1A0193019B002BB0DD019B3A00216ABA
S11344802800A66AB0470028F0DCA3894022012056
S11344901343A3814042FEBD010040200B6970B567
S11344A005000C00002B01D100201CE0002804D0E2
S11344B08369002B01D100F05FF80B4B9C4201D1C2
S11344C06C6808E0094B9C4201D1AC6803E0084BDE
S11344D09C4200D1EC680C22A35E002BE4D02100A6
S11344E02800FFF755FF70BDFC5100001C5200006E
S11344F03C52000010B5024900F0B0F810BDC046AF
S11345009D440000002310B50400036043608360F1
S113451081814366C281036143618361190008227A
S11345205C30FFF70AFD054B24626362044BA3620F
S1134530044BE362044B236310BDC046ED4E000000
S1134540154F00004D4F0000794F000070B56825ED
S11345504B1E5D430E002900743100F055F9041E12
S113456008D000212A00016046600C30A060683247
S1134570FFF7E3FC200070BD836913B50400002B32
S113458028D18364C3640365134B144A1B68826295
S11345900193984201D101238361200000F020F8A7
S11345A06060200000F01CF8A060200000F018F803
S11345B00022E06004216068FFF7A4FF01220921C2
S11345C0A068FFF79FFF02221221E068FFF79AFF1D
S11345D00123A36113BDC046F8510000F544000057
S11345E0F8B51D4B06001D68AB69002B02D12800ED
S11345F0FFF7C2FF4835AC686B68013B05D40C2259
S1134600A75E002F10D06834F7E72B68002B01D089
S11346102D68F0E704213000FFF798FF2860002898
S1134620F6D10C23336016E0012320005B42E381C2
S11346300233A38167662760A760676027616761AB
S1134640A7615C3008223900FFF777FC200067631C
S1134650A763A764E764F8BDF8510000F7B5040048
S11346600700002601914834002C16D06368A56821
S11346700093009B013B00930DD4AB89012B08D917
S11346800E22AB5E013304D029003800019B984709
S113469006436835EDE72468E6E73000FEBD000018
S11346A070B50E001D000E23C95E90B014000029E1
S11346B006DA00232B60B3891B060FD540230FE0D5
S11346C001AA00F085FC0028F3DBF023029A1B0208
S11346D01340054A9B185A4253412B608023DB0048
S11346E00020236010B070BD00E0FFFFF7B5022684
S11346F08B8905000C00334210D101AB6A46FFF7E9
S1134700CFFF00990700280000F07EF800280CD1A4
S11347100C22A35E9A0523D43343A3812300473399
S113472023602361012363611AE080220D4BAB6295
S1134730A38920601343A381009B20616361019BD3
S1134740002B0AD00E23E15E280000F053FC002861
S113475003D00122A3891343A381A3891F43A78103
S1134760F7BDC046F544000010B5034B01001868BE
S113477000F04AF810BDC0468000002030B5002982
S11347803ED004390B68002B00DAC9181D4A13689F
S11347901400002B02D14B60116031E08B420DD923
S11347A00A688818834203D118685B6882180A6013
S11347B04B60216024E08A4203D813005A68002A1F
S11347C0F9D11D685C198C420BD109686918581815
S11347D01960824214D110685268411819605A60F5
S11347E00EE08C4202D90C23036009E008680C181F
S11347F0A24203D114685268201808604A605960C4
S113480030BDC046E8000020032370B5CD1C9D4395
S1134810083506000C2D01D20C2505E0002D03DA25
S11348200C230020336040E0A942F9D81F4B1C68D8
S11348301A002100002913D00B685B1B0DD40B2B2D
S113484002D90B60CC181EE08C4202D1636813605D
S11348501AE04B6863600C0016E00C004968E9E755
S1134860134C2368002B03D1300000F02DFB206093
S11348702900300000F028FB431CD1D00323C41CC2
S11348809C43A0420AD12560200007220B30231D3F
S11348909043C31A09D05A42E25006E0211A30006C
S11348A000F012FB431CEED1BAE770BDE800002013
S11348B0E4000020936810B5013B9360002B05DAF7
S11348C09469A34208DBCBB20A2B05D01368581CA9
S11348D010601970C8B201E0FFF78CFC10BDF8B588
S11348E006000F001400D518AC4208D021783A0015
S11348F03000FFF7DFFF0134431CF5D100E0002056
S1134900F8BD0000F0B59FB006000F0002920593B9
S1134910002804D08369002B01D1FFF72DFE7F4BC3
S11349209F4201D1776808E07D4B9F4201D1B7686F
S113493003E07C4B9F4200D1F768BB891B070AD573
S11349403B69002B07D0002306AD6B6120336B76E7
S11349501033AB763DE039003000FFF7A3FC0028AC
S1134960F1D001204042D6E0059A111D126805914C
S1134970002A00DA7FE00992013423782E2B00D13B
S11349808DE021780322684800F05AFB002807D004
S1134990654B2A68C01A4023834013432B600134BB
S11349A02178631C062261480293297600F048FBB3
S11349B0002800D19DE05E4B002B00D090E0072240
S11349C0059B07339343083305936B69039A9B183C
S11349D06B61029C2378002B04D1029BE31A04939D
S11349E012D003E0252BF8D00134F3E7049B029A9C
S11349F039003000FFF773FF431C00D186E06A6979
S1134A00049B944663446B612378002B7ED001227F
S1134A10002352426A6002A95432521801342B60B6
S1134A20EB60AB601370AB6521780522414800F060
S1134A3007FB002808D03F4B2A68C01A0123834093
S1134A4013432B600134EFE72B68DA0604D55322B5
S1134A50202102A8121811701A0704D553222B2101
S1134A6002A81218117022782A2A00D17CE7099B27
S1134A7000200A2105E05242EA60022213432B601F
S1134A807AE72278303A092A04D84B4301349B1838
S1134A900120F6E7002800D16FE709936DE76378FA
S1134AA02A2B0AD1059B02341A1D1B680592002B80
S1134AB001DA01235B42079363E700230A201A000B
S1134AC001346B6021783039092904D84243013418
S1134AD052180123F6E7002B00D152E7079250E762
S1134AE005AB00933A00144B2900300000E000BFEE
S1134AF007E005AB00933A000F4B2900300000F0AB
S1134B008BF80390039B013300D05EE7BB895B06FF
S1134B1000D526E70B981FB0F0BDC046FC5100003D
S1134B201C5200003C520000625200006652000019
S1134B30000000005C520000DF480000F7B51700D9
S1134B4001938A680B6900900C00934200DA130009
S1134B5022003B6043321278002A01D001333B60CB
S1134B6023689B0602D53B6802333B600625236815
S1134B701D401ED0230043331B785A1E93412268E4
S1134B8092061CD53020E1184331087021005A1CCC
S1134B9045310978A2184332023311700FE0220024
S1134BA00123193201990098089EB047431C0ED086
S1134BB00135E3683A689B1A9D42F0DBDAE722008C
S1134BC0019943320098089DA847431C02D1012053
S1134BD0404220E006232068E1683A68034000254B
S1134BE0042B03D18D1AEB43DB171D40A368226904
S1134BF0934201DD9B1AED180027BD420AD0220022
S1134C0001231A3201990098089EB047431CDED054
S1134C100137F2E70020FEBDF0B58BB006920A0022
S1134C2043320793059004920A7E0C00109B6E2A6F
S1134C3000D1ABE011D8632A22D009D8002A00D1D0
S1134C40B5E0582A00D0C5E045310A70814A4FE0EA
S1134C50642A1DD0692A1BD0BCE0732A00D1AAE0C3
S1134C6009D86F2A29D0702A00D0B3E0202209681D
S1134C700A43226037E0752A1FD0782A33D0A9E08E
S1134C800E001A684236111D196013683370A4E0CF
S1134C9021681A68080606D4490604D5111D19604E
S1134CA00023D55E02E0111D19601568002D3BDA62
S1134CB02D23049A6D42137036E021681A680806A1
S1134CC006D4490604D51568111D1960ADB202E079
S1134CD0111D196015685F4B227E039308276F2A04
S1134CE01DD00A271BE022007821453211705A4A50
S1134CF019680392081D226818600D68100602D412
S1134D00500600D5ADB2D30702D520231A43226042
S1134D101027002D03D1202322689A432260230008
S1134D20002243331A7002E00A274A4B0393636854
S1134D30A360002B09DB0422216891432160002D2C
S1134D4005D1049E002B11D07BE0002D79D0049E68
S1134D5028003900FDF7F4FB039B013E5B5C28004F
S1134D6033703900FDF766FB051EF1D1082F09D118
S1134D702368DB0706D563682269934202DC30238B
S1134D80013E3370049B9B1B23612BE009681A6866
S1134D90080607D4490605D5111D19601368A28AAF
S1134DA01A8004E0111D1960136862691A600023F7
S1134DB0049E236116E01A68111D1960166800210B
S1134DC06268300000F03CF9002801D0801B60606C
S1134DD0636803E026004236327001232361002316
S1134DE0049A1370079B09AA00932100069B059857
S1134DF0FFF7A4FE431C02D10120404227E02369AF
S1134E00320006990598079DA847431CF4D02368EF
S1134E1000259B070FD4099BE068984217DA180015
S1134E2015E022000123193206990598079EB04720
S1134E30431CE1D00135E368099A9B1A9D42F0DBDB
S1134E40E9E72600039B42361B7833708EE70BB0EC
S1134E50F0BDC0466D5200007E52000070B50600E1
S1134E600D001400002804D08369002B01D1FFF742
S1134E7083FB124B9C4201D1746808E0104B9C42A6
S1134E8001D1B46803E00F4B9C4200D1F468A368DD
S1134E90013BA360002B05DAA269934208DBEBB265
S1134EA00A2B05D02368E8B25A1C22601D7004E066
S1134EB0220029003000FFF79DF970BDFC5100006D
S1134EC01C5200003C520000002370B5064C050043
S1134ED008002360FDF750F9431C03D12368002B1D
S1134EE000D02B6070BDC0461802002070B50C00C5
S1134EF00E25495F00F0B0F8002803DB636D1B1832
S1134F00636503E0A289024B1340A38170BDC046D0
S1134F10FFEFFFFFF8B51F008B8905000C0016009A
S1134F20DB0505D50E23C95E0022022300F074F8C8
S1134F30A289054B28001340A38132000E23E15EB1
S1134F403B0000F01FF8F8BDFFEFFFFF70B50C0049
S1134F500E25495F00F060F8A389421C03D1054A7D
S1134F601340A38104E0802252011343A3816065AE
S1134F7070BDC046FFEFFFFF10B50E23C95E00F001
S1134F8015F810BD70B50500080011000022064C8C
S1134F9022601A00FBF73EFF431C03D12368002B59
S1134FA000D02B6070BDC04618020020002370B5ED
S1134FB0064C050008002360FDF7F0F8431C03D1FC
S1134FC02368002B00D02B6070BDC046180200205F
S1134FD0002370B5064C0500080011002360FDF79E
S1134FE0E1F8431C03D12368002B00D02B6070BD73
S1134FF018020020002370B5064C05000800236049
S1135000FDF7D6F8431C03D12368002B00D02B6096
S113501070BDC0461802002070B5050008001100DC
S11350200022064C22601A00FDF7C4F8431C03D189
S11350302368002B00D02B6070BDC04618020020EE
S1135040C9B28218904204D003788B4202D0013056
S1135050F8E700207047000070B505000800110053
S11350600022064C22601A00FBF7B4FE431C03D155
S11350702368002B00D02B6070BDC04618020020AE
S1135080010000000200000004000000080000000D
S1135090001000000020000000400000008000001C
S11350A000000100000002000000040000000800ED
S11350B0002C004200300042003400421B1C1C0043
S11350C0000800100020000000080042000C00420C
S11350D0001000420014004200180042001C00426C
S11350E0090A0B0C0D0E0000CE1A0000CA1A0000AB
S11350F0CA1A0000281B0000281B0000E21A000046
S1135100D41A0000E81A0000161B0000B41B0000AB
S1135110941B0000941B0000201C0000A61B000030
S1135120C21B0000981B0000D01B0000101C0000D4
S113513012000300E0000020000000004869207411
S1135140686973206973204D41535445520000002F
S11351504265666F726520777269746500000000AD
S1135160256420006265666F726520636F6C6F72E0
S113517000000000EC2D0000BA2C0000C02D00003F
S1135180B02C0000C02D0000CA2D0000C02D00006E
S1135190B02C0000BA2C0000BA2C0000CA2D00006C
S11351A0B02C0000A62C0000A62C0000A62C0000A9
S11351B01C30000018340000D8320000D83200003F
S11351C0D6320000F0330000F0330000E233000078
S11351D0D6320000F0330000E2330000F033000068
S11351E0D6320000F8330000F8330000F833000032
S11351F0F8350000430000002000002000000000FB
S1135200000000000000000000000000000000009A
S1135210000000000000000000000000000000008A
S1135220000000000000000000000000000000007A
S1135230000000000000000000000000000000006A
S1135240000000000000000000000000000000005A
S1135250000000000000000000000000232D302B9F
S11352602000686C4C006566674546470030313263
S113527033343536373839414243444546003031BA
S11352803233343536373839616263646566000019
S1135290F8B5C046F8BC08BC9E467047DD00000067
S11352A0F8B5C046F8BC08BC9E467047B50000007F
S11352B0000000000C0000000000000000000000DE
S11352C00000000008000000401F00000100000072
S11352D000000000FC5100001C5200003C52000081
S11352E000000000000000000000000000000000BA
S11352F0F451000000000000000000000000000065
S11353000000000000000000000000000000000099
S11353100000000000000000000000000000000089
S11353200000000000000000000000000000000079
S10753302000002035
S90320815B
