:1000000090290020F5260000F1260000F1260000CE
:1000100000000000000000000000000000000000E0
:10002000000000000000000000000000F1260000B9
:100030000000000000000000F1260000F126000092
:10004000F1260000F1260000F1260000F126000054
:100050002D030000F1260000F1260000F12600002B
:10006000F12600004D1000005D1000006D10000032
:100070007D1000008D1000009D100000F126000092
:10008000F1260000F12600008923000099230000DA
:10009000A92300000000000000000000F12600007D
:1000A000F126000000000000F12600000000000022
:1000B0000000000010B5064C2378002B07D1054B3B
:1000C000002B02D0044800E000BF0123237010BDC4
:1000D000700000200000000000800000084B10B5F8
:1000E000002B03D00749084800E000BF0748036819
:1000F000002B00D110BD064B002BFBD09847F9E731
:10010000000000007400002000800000008000005B
:100110000000000070B50020084B98470500084C0F
:10012000FA218900A047074B186007492800A0471B
:10013000064B18600522064B1A6070BD8D2000002A
:10014000995100000400002040420F0000000020F0
:1001500010E000E030B5084B1C68084A00258021FB
:10016000490206E0002C04D05460956013680B42ED
:10017000FCD00138F6D230BD0000002010E000E0D5
:100180000C4B1B68002B10D1EFF31083002B09D10F
:1001900072B6BFF35F8F0022074B1A700132074B14
:1001A0001A7002E00022054B1A70024A13680133EC
:1001B000136070478C000020080000209000002091
:1001C000084B1A68013A1A601B68002B09D1064BCC
:1001D0001B78002B05D00122044B1A70BFF35F8FF0
:1001E00062B670478C0000209000002008000020BC
:1001F000F0B5474680B482B001AC01266670002796
:10020000A770267021001320274DA847274B98463A
:1002100080231B03424693612770667021001C20D7
:10022000A8476670A770267021005220A8472100B9
:100230003E20A84721003F20A84721002F20A847A3
:1002400021001420A8478022D202194B9A61803BDA
:100250008022D2059A61802212069A6180221202BF
:100260009A6180235B0342469361277021005320EB
:10027000A847104A136A802189030B4313620422A2
:100280000D4B1A806B469E70DF7005236A46137013
:10029000567069460920094CA04769460C20A047C2
:1002A00002B004BC9046F0BDA1040000004400412F
:1002B0000045004100040040005400429D2200001F
:1002C0001723002A0DD18B00074A9B58002B03D11E
:1002D00089008850002304E0834201D01D2300E000
:1002E000002318007047C046EC07002017230029A0
:1002F00007D100221F2800D8034A01238340D3607E
:10030000002318007047C04600180040172300293A
:1003100007D100221F2800D8034A0123834093609D
:10032000002318007047C0460018004070B5002236
:10033000154B1A7000231F25144E134C1F2B19D96F
:100340000FE0002100E012490A619B009B59002B3D
:1003500000D0984723780133DBB223700F2BEDD9FF
:1003600011E02900194001228A4000210969114247
:10037000E7D1EFE72900194001228A4004490969C1
:100380001142E0D1E6E770BDE8070020EC0700204D
:1003900000180040044A117802230B43137053786D
:1003A0005BB2002BFBDB70470018004000B583B048
:1003B000124A916940230B43936101A900230B70FA
:1003C00005200F4B984705200E4B98470E4A117891
:1003D00001230B43137053785BB2002BFBDB0B4BF9
:1003E00019004031002204C39942FCD11022084B6D
:1003F0001A60084B984703B000BDC0460004004097
:10040000A52100001921000000180040EC07002081
:1004100000E100E095030000002303604360012237
:100420000272427283720233C3727047F0B583B0B6
:1004300005000C0001A900234B70CB7023790B70D1
:10044000237A8B702078144B984700201F2D00D8FA
:100450001248072129408900E27AA37A002B01D0B3
:1004600008231A43EB089B00C3189E690F278F408F
:10047000BE438A4032439A61637A002B05D04269B9
:100480000123AB401343436104E043690122AA40C6
:100490009343436103B0F0BD9D220000001800406B
:1004A00000B583B001AB80221A700A785A704A787E
:1004B0009A708A78DA701900014B984703B000BD32
:1004C0009D22000001680722CB691A42FCD17047C7
:1004D000F0B55F4656464D464446F0B48BB0070033
:1004E0000D00160039600800994B984799490A6A2F
:1004F000841C0123A34013430B6209A9337B0B70B7
:100500001430C4B22000944B98472000934B984776
:10051000307B0021924B98472B681C209B0700D50D
:100520000FE12B681738DB0700D50AE13868884BE4
:100530009946984704008B498B4B9847A4008B4BF6
:10054000E75000233B767B7600247B83BB83252208
:10055000BC543B6214332B603B6898461800C84774
:100560008146802308AA1370547001239370D470BD
:10057000F069356A002803D1002140467C4B98473A
:1005800008AB1870022308AA5370000CC0B2110007
:10059000784B9847002D04D101214046744B984771
:1005A000050008AB1D70022308AA5370280CC0B2C6
:1005B0001100704B9847B38AFB80F38A3B81327EEF
:1005C0008023002A04D16C4B9B789B07DB0FDB0157
:1005D000B16832690A4313432422B25C002A02D074
:1005E0008022D2051343B26A13432C22B25C002A44
:1005F00003D180229204914202D18022120513433A
:100600002D22B25C002A02D08022120413432E2233
:10061000B25C002A02D08022D20313434246126801
:1006200013434246136080235B00536048461430F6
:10063000C0B2524B984705000790FA27BF003368B5
:100640005F4373689A464E4CA0470290039178002E
:10065000A04700900191308E6843A047494B9B46CC
:10066000494A4A4BD8474A4D00224A4BA847049072
:1006700005913800A04702000B0004980599D8475F
:1006800002000B00444C02980399A047009A019B7A
:10069000A8470022414BA047009A019B404CA0472D
:1006A000404B98470400B26880239B049A4242D191
:1006B000FA21890057464F430298039902000B0024
:1006C000A8470090019138002D4B98470022364BE7
:1006D000D84702000B0000980199314EB047002224
:1006E0002E4B2D4EB0472F4B9847061E06D0390093
:1006F00007982E4B98470238831B07E07900481E65
:10070000079B9C466044294B9847431EFF2C03D807
:10071000FF2B03D9402014E0402012E0FF221440B8
:10072000360634431B04FF22120413401C43434685
:10073000DC60002005E04020FF2C02D800260023CA
:10074000ECE70BB03CBC90469946A246AB46F0BDE8
:10075000A50F000000040040A521000019210000A1
:10076000D10D00000D0A0000E50F00002C0800204C
:100770001D0E00009D22000000200041C12100004C
:10078000956B00008D5F000095D626E80B2E113E7C
:100790000953000000002440816400000000F03F85
:1007A00061590000296B00000000084099510000C9
:1007B00003681A7E920707D502221A765B8B9B0785
:1007C0004120DB1718400AE05A8B520706D55A68B9
:1007D000C02189020A435A60182000E000207047B7
:1007E00030B5026800230124022504E001339BB2E6
:1007F0000189994207D9117E214206D1117E2942F1
:10080000F4D0002002E0122000E0002030BDC046FD
:1008100010B5046863688022D2021343636061628A
:10082000024B98470123237610BDC046E107000024
:10083000F0B55F4656464D464446F0B483B00600D8
:100840000F0005684C88314B98477B7A002B03D00A
:10085000B97A30002E4B98476A682E4B13406B6074
:100860003B7A002B09D03B885A007B7A9B031343C9
:100870008022120213436B6205E03B885A007B7AA8
:100880009B0313436B623000234B9847002836D1FB
:100890003000224B9847031E019030D1A04600241F
:1008A00020339946194B9B461B4B9A4611E06B8BA4
:1008B0004A46134222D03000D8477B681A5D28236D
:1008C000EA543000D047002806D16B8B01345B0717
:1008D00004D4A045EBD103E0019001E01E23019375
:1008E000B37A0198002B0AD03000084B98476B6808
:1008F000C022920213436B60019800E0412003B0D4
:100900003CBC90469946A246AB46F0BDC5040000EB
:1009100011080000FFFFFBFFE1070000B107000026
:1009200010B5838B9BB20522002B05D10133837256
:10093000C372024B98470200100010BD310800003E
:1009400001680722CB691A42FCD1704770B50400D8
:1009500006683268438B858B5D1BADB2838B013B90
:100960009BB2838313010CD5C37A002B15D0838BE4
:100970009BB2012B11D173688022D20213437360A2
:100980000BE0C37A002B08D0838B9BB2002B04D1E1
:1009900073688022D20213437360A38B9BB2002B37
:1009A0000AD1A37A002B07D02000084B9847736820
:1009B000C0229202134373602000044B9847236ABD
:1009C0005D192823F35CDBB22B7070BD4109000078
:1009D00070B504000668738B5B0703D51E222523C0
:1009E000C2540FE0438B858B5D1BADB2838B013B03
:1009F0009BB28383044B9847236A5D192B78DBB243
:100A00002822B35470BDC0464109000070B5800073
:100A10006F4BC45825682B681B01DA0F637E267E56
:100A20001E40638B9BB2002B35D1A38B9BB2002B56
:100A300031D02B7EDB071BD501232B766B8B9B07DD
:100A400003D541222523E25412E06B8B5B070FD5BF
:100A500018222523E2540023A383A37A002B07D076
:100A600020005C4B98476B68C022920213436B6076
:100A7000A38B9BB263832523E35C052B56D11F33E5
:100A8000E35C002B03D12000534B98474EE020003D
:100A9000524B98474AE0638B9BB2002B26D0A38B26
:100AA0009BB2002B22D12533E35C052B1ED11F33D3
:100AB000E35C002B1AD103332B75002363832533AA
:100AC0000022E254A37A002B08D02000414B984723
:100AD0006B68C022920213436B6001E001232B7606
:100AE000F30723D5E368200098471FE0638B9BB290
:100AF000002B1BD0A38B9BB2002B17D06B8B9B06BC
:100B000009D4002A03D0A38B9BB2012B03D041222E
:100B10002523E2540AE02423E35C002B03D12000C8
:100B20002D4B984702E020002C4B9847638B9BB2DB
:100B3000002B2AD0A38B9BB2002B26D12533E35C5C
:100B4000052B22D11F33E35C012B1ED12B7E9B078B
:100B500001D502232B7603232B75002363832533D2
:100B60000022E254B30707D52423E35C012B03D111
:100B700023692000984708E0F30706D52423E35CA7
:100B8000002B02D1E368200098472523E35C052B66
:100B90001CD02523E35C002B18D003232B750023E6
:100BA0006383A3832533E35C412B0AD0A37A002B14
:100BB00007D02000074B98476B68E022D20213430E
:100BC0006B60730702D563692000984770BDC0460B
:100BD0002C08002041090000D10900004D09000047
:100BE00010B5490840230024814201D20AE01C00CC
:100BF000091A631C9BB28842F9D94023FF2C01D803
:100C000014800023180010BDF0B55F4656464D46CF
:100C10004446F0B489B00C00059212AA1178020083
:100C20004A434025A24200D9C6E0002B51D1020020
:100C300008000021644DA8478346260000270023B2
:100C4000002400930194002200233F2020218C46A1
:100C50001F390296039720246442041903D40D001F
:100C6000A540A84604E06446241A0D00E540A846C5
:100C70000C008440A14614001D00A4185D41220010
:100C80002B0046465F463E4203D00E00264332000C
:100C90002B00029C039D9D420FD801D194420CD899
:100CA000029C039D121BAB414D46009E019F3543A4
:100CB0003C0046463443009501940138CBD20022D3
:100CC000012300980199121A8B41120C1B041A433C
:100CD0006FE00022012B6CD1630F0493E300984670
:100CE0000A0000230021384CA04704000D00002317
:100CF0009C46069320339B460126634607930023B8
:100D00000293002200233F21009401950F0020212F
:100D10004942791803D430008840844604E059469B
:100D2000C91B3000C84084463100B94089461000D4
:100D300019008018594102000B0044464D462C40D2
:100D4000A2466446049D2C40A446544665462C4366
:100D500003D03400044322000B000098019999420B
:100D60000AD801D1904207D800980199121A8B41F4
:100D70000299484601430291013FC8D2009C019D5F
:100D80000299079A8B1ADB0810498B420BD9069BF4
:100D90000133DBB2190006931300013307930829CE
:100DA000ADD1402508E04025069A082A04D0520318
:100DB0001A43059B1A800025280009B03CBC9046C8
:100DC0009946A246AB46F0BDB1520000FF1F00009D
:100DD00010B582B004000E4B1B78002B01D0002907
:100DE0000DD001A90C7013200A4B984713200A4B11
:100DF0009847074B5C7001221A70002006E0044BF4
:100E00005B78834201D01D2000E0002002B010BDBD
:100E100094000020A521000019210000444B9842B5
:100E200033D006D8434B98420DD0434B98421BD049
:100E30006FE0424B98424AD0414B984258D0414BC8
:100E4000984266D132E0012906D0002963D00229F8
:100E500006D0032906D001E03B4867E0002065E0AA
:100E60003A4863E03A4861E0012906D0002954D0AD
:100E7000022906D0032906D001E0364856E00020BA
:100E800054E0354852E0354850E0012906D00029A9
:100E900045D0022906D0032906D001E0304845E0BC
:100EA000002043E02F4841E02F483FE0012906D0D1
:100EB000002936D0022906D0032906D001E02B48AC
:100EC00034E0002032E02A4830E02A482EE00129B0
:100ED00006D0002927D0022906D0032906D001E038
:100EE000254823E0002021E024481FE024481DE09D
:100EF000012906D0002918D0022906D0032906D0DE
:100F000001E0204812E0002010E01F480EE01F48DA
:100F10000CE000200AE01E4808E0032006E01D481F
:100F200004E01D4802E01D4800E01D487047C0462F
:100F30000010004200080042000C0042001800426D
:100F4000001C0042001400420300050003000600DC
:100F5000030007000300010003001E0003001F0040
:100F600002000D0002000E0002000F00030011003D
:100F7000030012000300130005003F0005003E00BF
:100F800005005200030017000300180003001900B9
:100F90000300040002000C000300100005005300D1
:100FA0000300160030B587B00C4B6A4632CB32C214
:100FB00032CB32C2009B834206D001239A0069469D
:100FC0005258824203D100E00023D8B203E001333B
:100FD000062BF3D1002007B030BDC046C87D00000D
:100FE0007047C046F0B50A4B1B78002B0CD1094F57
:100FF000094E0A4D0024DE515A1914600433182B8F
:10100000F9D10122024B1A708000024BC150F0BD91
:101010009600002098000020E10F00002C0800201E
:1010200010B582B00400062205496846054B984772
:101030002000054B98476B46185602B010BDC046BD
:10104000E07D00008D6C0000A50F000010B5024B84
:101050001B680020984710BD9800002010B5024B77
:101060005B680120984710BD9800002010B5024B26
:101070009B680220984710BD9800002010B5024BD5
:10108000DB680320984710BD9800002010B5024B84
:101090001B690420984710BD9800002010B5024B32
:1010A0005B690520984710BD98000020F0B55746B1
:1010B0004E464546E0B48AB005000E001400296093
:1010C0000B689B0700D48CE0936A0593D36A069360
:1010D000136B0793536B089300271F239946F9B2AC
:1010E000BB0005AA9858002802D130008F4B9847C2
:1010F000431C29D00204130C9846000CC1B20023F3
:101100009C46030604D44B09DB01894A94469C445F
:101110004B460B406046C018403000788246802025
:101120005246D2070AD55B08634430331878C0B200
:10113000CB0701D5000901E00F231840804503D0FB
:1011400000232B601C20EAE00137042FC7D11320B5
:10115000784B984722780021012A12D104AA010075
:10116000A069754B984703001720002B00D0D6E0EC
:10117000337BDBB204AA127805309A4200D0CEE06D
:101180000C216368A2681343E26813430B43217C7C
:10119000627C002A01D080221343A27C002A02D064
:1011A000802292021143E27C002A02D08022920027
:1011B0001143227D002A02D080229201114330681F
:1011C00002221343834208D173688B4205D12378EE
:1011D0006B71237CAB710020A1E000232B601C20ED
:1011E0009DE00B680520DB0700D598E00800534B15
:1011F000984753490A6A871C0123BB4013430B627B
:1012000009A92427E35D0B701430C3B201931800C1
:101210004C4B984701984C4B9847E05D00214B4B55
:1012200098472378012B03D132680B331343336083
:101230002E6804AB80221A7000225A700121997026
:10124000DA702378002B01D104AB9A70A36A05935E
:10125000E36A0693236B0793636B08930027F9B245
:10126000BB0005AA9858002802D130002F4B9847A0
:10127000431C06D002AB1872000CC0B204A9344B58
:1012800098470137042FEAD123786B71237CAB7127
:10129000A37CEB71237D2B72002202ABDA802378D2
:1012A000012B14D12868254B98471430C0B2214B2C
:1012B0009847010002AB9A1DA0691F4B9847030095
:1012C0001720002B2BD102AB06331B7833736368D6
:1012D000A2681343E2681343227C617C002903D196
:1012E0001C498978890701D580210B43A17C0029FD
:1012F00002D0802189020A43E17C002902D08021AA
:1013000089000A43217D002902D0802189010A43F6
:1013100031680B43336073681343736000200AB075
:101320001CBC90469946A246F0BDC0461D0E00006A
:1013300000440041C1210000E10B0000A50F0000A6
:1013400000040040A521000019210000D10D00007B
:101350009D2200000020004110B544791523012C86
:101360006ED1047A0023002C6AD1002A58D04B7821
:10137000002B44D003681B7EDB0710D40B78D909FF
:101380000022002904D15A09D2012E498C46624418
:101390001F210B401E3999409161052350E00B78C5
:1013A000DC090022002C04D15A09D201254CA446A4
:1013B00062441F2423401E3C9C40546103681A7EF3
:1013C000D20701D58A789A62C2790023002A37D1E0
:1013D00002680421137E0B42FCD0117E00234907D2
:1013E0002ED5538B5B0701D5042353838379012BBF
:1013F00002D1936A002323E0936A002320E00B7854
:10140000D9090022002904D15A09D2010D498C467C
:1014100062441F210B401E399940516100230FE0A7
:101420000B78D9090022002904D15A09D2010549B3
:101430008C4662441F210B401E3999409161002364
:10144000180010BD00440041F0B55F4656464D46B9
:101450004446F0B491B005000C0016002960080065
:10146000B94B984722680523D20700D564E122686A
:101470001733920700D55FE1B4490A6A871C1B3B0A
:10148000BB4013430B620FA92D27F35D0B70143083
:10149000C3B202931800AE4B98470298AD4B9847E1
:1014A000F05D0021AC4B9847F37A6B712423F35C19
:1014B000AB712523F35CEB71F37E2B72337F6B7280
:1014C0002B6899461800A04B9847143000220E2331
:1014D00006A98C4663441A80328A02928023DB017B
:1014E0009A421AD004D880239B019A420BD004E17F
:1014F000C023DB01029A9A420AD080231B029A423F
:1015000000D1FFE0F9E0102306930F3B0793FDE0C5
:1015100008230693073B0793F8E033680493F368C6
:101520009B4673690393337E98462623F35C0593A9
:1015300073689A46002B15D080235B059A4536D1F7
:101540002723F35C002B36D1336A1F00C0B2834BD4
:10155000984701000E2206AB9C4662443800804B3F
:10156000984725E008230693002307932723F35C7D
:10157000002B0BD0069B0093079B0E2206A98C46DE
:101580006244B16A306A774FB84711E0336A1F008E
:10159000C0B2724B98470100069B0093079B0E2236
:1015A00006A88446624438006E4FB84700E0002029
:1015B000031E00D0C0E0737E002B02D0B37E4A46EB
:1015C00093732A68029FD369002BFCD10E3306AABD
:1015D000944663441B884A469381049B5A461343AE
:1015E000039A1343524613433B43424612021343AA
:1015F000059A57071F432723F35C002B01D10433BF
:101600001F43717E8902337F5B021943737F1B0284
:1016100019432423F35C5B0419432523F25C120471
:101620001143F37A19433389FF2B04D080225204EB
:101630001743194305E0F37E002B02D08023DB041F
:101640001F432C23F35C002B03D1474B9B789B0754
:1016500001D580231F432A68D369002BFCD14B4658
:1016600059602A68D369002BFCD14B461F600EAB32
:1016700080221A7000225A70DA709A70336B0A93C3
:10168000736B0B93B36B0C93F36B02930D93002767
:101690000EAEF9B2BB000AAA9858002802D1200069
:1016A000324B9847431C05D03070000CC0B231005B
:1016B0002F4B98470137042FEBD10023EB602B61B0
:1016C0006B61AB61EB612B62AB626B620022EB85FD
:1016D000AB853033EA540133EA540133EA54013321
:1016E000EA542868184B984704002249224B98472F
:1016F000A400224BE55000231EE010230693002394
:10170000079303E0032306930023079333680493AE
:10171000F3689B4673690393337E98462623F35CF4
:10172000059373689A46002B00D11FE780235B0561
:101730009A4500D104E73EE7180011B03CBC904642
:101740009946A246AB46F0BDA50F0000000400403C
:10175000A521000019210000D10D0000C1210000C9
:10176000E10B0000090C0000002000411D0E0000EC
:101770009D220000B1180000E50F00002C08002099
:10178000C2791C23002A0ED0C28D92B2173B002AC8
:1017900009D10368DA69002AFCD1198502211A7E71
:1017A0000A42FCD0002318007047C04682791C23EF
:1017B000002A30D0828D92B2173B002A2BD10268CA
:1017C000107E400727D5D369002BFCD1538BDBB2A9
:1017D00098061DD0980703D50223538318331AE0C7
:1017E000580703D5042353831A3314E0D80703D5CD
:1017F0000123538312330EE0D80603D510235383FD
:10180000323308E09B0603D520235383213302E0C3
:10181000138D0B80002318007047C046F0B5574663
:1018200080B484B0040001911720002A38D0A37935
:101830000530002B34D026689246002504272AE084
:10184000327E3A4204D1012B23D0013B002BF7D149
:10185000002302AAD380911D2000134B9847002833
:101860001ED16B1C9BB202AAD28801994A5561799C
:10187000012905D1A91C8DB2120A0199CA5400E0B0
:101880001D005246013A93B29A46002B03D1002024
:1018900006E0122004E0337E3B42D9D1034BCFE770
:1018A00004B004BC9246F0BDAD170000FFFF00007D
:1018B000F8B58000604BC5582C68E369002BFCD15B
:1018C000237EA67D1E403023EB5C3122AF5C1F409F
:1018D000F30722D5EB8D9BB2002B1CD0AA6A13789C
:1018E000DBB2511CA9626979012901D09BB204E0E5
:1018F000517809020B430232AA62DB05DB0D238516
:10190000EB8D013B9BB2EB85002B06D10133237598
:101910000133A37501E001232375B30709D5022321
:10192000237500223133EA54FB0702D52800EB6807
:101930009847730760D5AB8D9BB2002B5AD0638B51
:10194000DBB21A0702D43F22134001E037221340D2
:10195000002B2DD09A0705D51A223223EA54303BAA
:1019600063831FE05A0705D51E223223EA542E3B1B
:10197000638317E0DA0705D513223223EA54313B9B
:1019800063830FE0DA0605D542223223EA54223B74
:10199000638307E020221A4204D021323223EA5422
:1019A000123B63837B0727D528006B69984723E0A8
:1019B000238DDB05DB0DDAB2696A0A706A6A511C95
:1019C00069626979012904D11B0A53706B6A01337A
:1019D0006B62AB8D013B9BB2AB85002B0CD104330A
:1019E000237500222E33EA54BB0705D528002B6946
:1019F000984701E004232375F30607D510232375C8
:101A00002376FB0602D52800EB699847B30607D575
:101A10002023237523763B0702D52800AB6998471E
:101A2000330707D5082323752376BB0602D52B6A17
:101A300028009847F8BDC0462C08002010B508289B
:101A400003D880001B4B1B589F46002030E01A4BE8
:101A500018692DE0194B1B6A9B059B0F1848D8404D
:101A600026E0154B586923E0134B1B6802201840F1
:101A70001ED012491022CB681A42FCD00E4B1B68B4
:101A80005B0714D500200F4B98470B4B9B681B043A
:101A90001B0C58430CE05023084AD35C00205B0722
:101AA00006D5054BD86803E08020000200E0064818
:101AB00010BDC046E87D0000B000002000080040D6
:101AC00000127A00C1210000006CDC0270B50C4CE1
:101AD000236A0178857842780120024092014026ED
:101AE000B343134302002A40D2017F3083431343A0
:101AF00003220A40120203490B401343236270BDC4
:101B000000080040FFFCFFFFF0B557464E46454633
:101B1000E0B41C4EB3699C46417805780779C378D8
:101B2000994644798378012003409B009A46042219
:101B30009046624643469A43130052461A431300A6
:101B40000140C900082293430B434A4602409201D8
:101B500040218B4313430740FF01802293433B43C3
:101B6000793A15402D02084F3B402B430440200397
:101B7000064C1C400443B4611CBC90469946A246E6
:101B8000F0BDC04600080040FFF8FFFFFFEFFFFF79
:101B9000F0B55F4656464D464446F0B483B02E4EEF
:101BA000B38A9C46457803785A425A4191468378D5
:101BB0009B46C37802799046477B027B0192847BE7
:101BC00082682648426101204A46920091460422DA
:101BD0009246624651468A4394464A4661460A43C3
:101BE000944642460240D200904608229146624600
:101BF00049468A439446424661460A439446034016
:101C00001B0110229046624641468A4313435946BF
:101C100001404901202293430B43019A0240920163
:101C200040218B4313430740FF01802293433B43F2
:101C3000793A15402D020A4F3B402B4304402003C4
:101C4000084C1C400443B48203B03CBC9046994607
:101C5000A246AB46F0BDC04600080040B0000020E0
:101C6000FFF8FFFFFFEFFFFF10B5037A9B061A0C8A
:101C700043899B059B0D1343194C63608179C3799C
:101C800019434388828813430B434278D20113439C
:101C900023600378042B0FD1037B9B06028A134336
:101CA0001900C3891B040F4A13400B43A36021682A
:101CB00004230B43236011E0202B0FD1037B9B06F1
:101CC000028A13431900C3891B04064A13400B43BD
:101CD000034A9360136804490B43136010BDC04668
:101CE000B00000200000FF0324040000082803D8EF
:101CF0008000254B1B589F46172044E0234A116A59
:101D000002230B43136200203DE0204A9169022325
:101D10000B439361002036E01C4A118A02230B43D7
:101D2000138200202FE0194A918A02230B439382E9
:101D3000002028E016490B68022213430B60134B66
:101D40009A8419000E32CB681A42FCD0104A91686E
:101D50000E4BD96252689A6200229A84190010329E
:101D6000CB681A42FCD00A4B1B689BB2074A93848B
:101D7000002008E005494422885C022303438B5479
:101D8000002000E0002070470C7E000000080040AA
:101D9000B0000020F0B557464E464546E0B490B03E
:101DA000C222D200624B9A6062494B681E22934362
:101DB0001A3A13434B60013A01AB1A7000245E4D8E
:101DC000E0B201A9A8470134252CF9D10CA80023C1
:101DD0000370802212028260C370012202710373B9
:101DE00083730621417082704373544B98470520DA
:101DF000534B98474E490222CB681A42FCD04C49BB
:101E00008A8A802313438B824E4C2368DA048869C4
:101E1000520E12044C4B034013438B610AA801235A
:101E20004370837003710722027000254571C370EF
:101E3000464B98470420424B984705AB00225D80F3
:101E40009D809A71DA713F2159813B3919705A701E
:101E500023689B0E3F2B00D1203B05A80372B723BC
:101E6000DB000382072303733833C381384B984761
:101E700004A80025457005708570364B98470620EC
:101E80002F4B99469847344B984701AC0126666022
:101E900065702572657205232370210001202F4B88
:101EA0009846984701202E4FB84765706572042305
:101EB00023701C339A466360267221000220C047BB
:101EC0000220B8476570257265720323237053465C
:101ED000636021000420C0470420B8472670210019
:101EE0000020154B984700201E4B98470720C847F5
:101EF0000F49D022CB681340D02BFBD11A4A0023C4
:101F0000137253729372D37201A901224A604B700B
:101F10000B724B7207330B700020104B9847002058
:101F20000F4B984710B01CBC90469946A246F0BD96
:101F30000008004000400041A5210000911B000066
:101F4000ED1C000024608000FFFF80FF091B0000E3
:101F5000691C0000CD1A00006D1F0000911F0000D9
:101F6000492000001921000000040040064A916940
:101F700008230B4393610122044B1A7019000B785C
:101F80001342FCD17047C04600040040000C0040E2
:101F900070B5060005000C78240204434B78002B32
:101FA00002D08023DB021C434B7A002B02D080231B
:101FB0001B031C434868012818D9431E184210D13E
:101FC000022806D90223002201325B009842FBD886
:101FD00000E0002212023243150080235B031C4301
:101FE00004E00502354380239B021C430B7A002B3F
:101FF00002D080239B031C430F4A53785BB2002B13
:10200000FBDB0E4B98470E4B1E700B4A53785BB2AE
:10201000002BFBDB084B9D601A0053785BB2002B52
:10202000FBDB054A516880235B020B401C43546074
:10203000044B984770BDC046000C00408101000071
:10204000080C0040C101000010B504000B4A537891
:102050005BB2002BFBDB0A4B98470A4B1C70074A0C
:1020600053785BB2002BFBDB044A536880214902A2
:102070000B435360044B984710BDC046000C004012
:1020800081010000040C0040C101000070B5040093
:102090001A4A53785BB2002BFBDB194B9847194B5C
:1020A0001C70164A53785BB2002BFBDB134E706832
:1020B000C004C00E144B98470500124B1C70766884
:1020C000F602F60F114B1C700C4A53785BB2002BD2
:1020D000FBDB0A4B9C682402240C0D4B9847002E16
:1020E00007D1012C07D9210028000A4B9847050089
:1020F00001E00134E540280070BDC046000C0040FE
:1021000081010000040C00403D1A0000080C004052
:10211000C10100009951000010B50400064B98471A
:10212000064B1C70064A51888023DB010B43538009
:10213000044B984710BDC04681010000020C0040CE
:10214000000C0040C101000010B504000F4B98477F
:102150000F4B1C700F4B5A881205100F59880E4AEE
:102160000A405A8059880D4A0A405A801900802234
:10217000D2014B881342FCD106494C880202064B1F
:10218000234013434B80064B984710BD810100004C
:10219000020C0040000C0040FFF0FFFFFFBFFFFFFC
:1021A000C101000010B50C7824020443024B98478B
:1021B000A4B2024B5C8010BD49210000000C00401D
:1021C00010B50400064B9847064B1C70064B5C8804
:1021D0002405240F054B98472000054B984710BD58
:1021E00081010000020C0040000C0040C101000011
:1021F0008D20000030B5D378002B1ED11378802BB2
:1022000004D01B0680246402234300E0002354789A
:102210000225AC430AD19478002C03D18024A40277
:10222000234302E0C024E402234341605478013C8C
:10223000012C12D8184C23400FE041600B041B0CFA
:10224000A024E405234383620B0CD02424062343FB
:102250008362D378002B18D01CE00C04240CA0253A
:10226000ED052C431C4384620C0CD0252D062C4319
:102270001C438462D478002C0CD15B0305D5937881
:10228000012B01D1816100E041615378013B012BB9
:1022900000D8816030BDC046FFFFFBFF10B50300D2
:1022A0000A00C1090020002904D15809C0010549CC
:1022B0008C4660441F210B401E399940024B9847C1
:1022C00010BDC04600440041F52100007047C046E3
:1022D00010B5054B9847054B9847054B9847054B5C
:1022E0009847054B984710BD951D0000F10100006F
:1022F000CD220000AD030000CD220000931C9B0006
:102300001950022A04D1027E1023134303760BE0F6
:10231000032A04D1027E20231343037604E0012321
:102320009340027E134303760020704770B580000F
:10233000144BC5582B689C7B2B7E1C406B7E1C402D
:10234000E30705D52800AB68984701232A689373F3
:10235000A30705D52800EB68984702232A689373E2
:10236000E30605D528002B69984710232A68937344
:10237000A30605D528006B6998472B6820229A731D
:1023800070BDC0464408002010B50020014B98479E
:1023900010BDC0462D23000010B50120014B984709
:1023A00010BDC0462D23000010B50220014B9847F8
:1023B00010BDC0462D23000030B585B001AA0B4BDF
:1023C00032CB32C2019B98420AD0029B984205D080
:1023D0000023039A824205D1023302E0012300E088
:1023E0000023DBB2180005B030BDC046307E0000CF
:1023F000F0B54F464646C0B487B004000E00904684
:102400000800924B98478146914D29000C310322D8
:1024100005A8904FB84729001031062203A8B847F5
:102420000023A360E36023616361237663764B46F8
:102430009A00894BD450266043469B78082B04D1E0
:1024400017204A46D20700D4FBE0237133880520C9
:10245000DB0700D5F5E0F37B1730DB0600D5F0E0B5
:1024600033889B0700D5ECE043461B7C002B0CD047
:1024700002A901238B700022CA704246127E0A70A4
:102480004B704346187D754B984743461B7F002B86
:102490000DD002A901238B700022CA704246526AF5
:1024A0000A704B7043461B6AD8B26C4B98476C4914
:1024B0000B6A4A46520003A8125A13430B62434662
:1024C0009B78082B06D10B6A4A4601325200125AF9
:1024D00013430B6201A943461B780B7005AB4A46B8
:1024E0009D5C28005F4B984728005F4B9847434608
:1024F00098789B7902001A43434618899B880343C6
:102500001A43100043465B78002B02D080231B0146
:10251000184321687F22CB7B9343FCD13080434614
:10252000587B431E9841800043469B7B002B01D083
:102530000123184321687F22CB7B9343FCD1FF33D7
:102540003371002805D021687F22CB7B9343FCD1D7
:1025500070714346987ADB7A002B01D01023184320
:1025600043461B7B002B01D02023184321687F2288
:10257000CB7B9343FCD1B07122687F21D37B8B430B
:10258000FCD12379042B05D0082B41D01720002B38
:1025900057D124E07F21D37B8B43FCD128334246A3
:1025A000D35C337421687F22CB7B9343FCD12933E6
:1025B0004246D35C337521687F22CB7B9343FCD1A9
:1025C0002A334246D35C337621687F22CB7B934308
:1025D000FCD12B334246D35C7376002031E07F215F
:1025E000D37B8B43FCD143461B8D338221687F22F2
:1025F000CB7B9343FCD143465B8D338321687F22A1
:10260000CB7B9343FCD143469B8D7383002018E022
:102610007F21D37B8B43FCD143469B6A3361216886
:102620007F22CB7B9343FCD14346DB6AB3612168B5
:102630007F22CB7B9343FCD143461B6BF36100208D
:10264000FFE707B00CBC90469946F0BDB9230000E7
:10265000307E00008D6C0000440800209D220000A8
:1026600000040040A52100001921000002687F211C
:10267000D37B8B43FCD10379042B05D0082B09D0E5
:102680000020002B08D102E0107CC0B204E0108AC8
:1026900080B201E01069FFE77047C04630B50468BA
:1026A0007F25E37BAB43FCD10379042B05D0082BBA
:1026B00014D01720002B19D107E01720012915D8B5
:1026C000D2B261180A76002010E0172001290DD837
:1026D00092B20C3149000A53002007E0172001296B
:1026E00004D8063189000A510020FFE730BDC046FA
:1026F000FEE7C04670B52E4B2E4A9A4203D02E4BB1
:102700002B4A9A4204D32D4B2D4A9A4210D31EE0F5
:102710002C4A294B03339B1A9B0801339B00002250
:10272000234824498C58845004329A42FAD1EAE76B
:10273000254A224B03339B1A9B0801339B0000223E
:102740001F4800211418216004329A42FAD11F4A0E
:10275000FF211F4B8B439360FD3990235B001D4A83
:10276000D1501D48C3780324A34302221343C370EE
:10277000C3780C26B34308210B43C370174B987BD7
:102780003025A8430500202028439873987BB04348
:1027900001439973997BA1430A439A73104A516884
:1027A00080230B4353600F4B98470F4B9847FEE72E
:1027B0000000002000800000700000208C09002034
:1027C00070000020040000207400002000ED00E0F4
:1027D000000000000070004100500041004800412E
:1027E00000400041416C00000D500000F0B547462C
:1027F00080B40C00904600280DD1002A0EDD8F1801
:10280000084E094D306821002B6898470134A742D3
:10281000F8D1404603E00120404200E0002004BC23
:102820009046F0BD5808002050080020F0B54746FB
:1028300080B40E0015000138022811D8002A12D0E9
:1028400000240C4B98460C4F43461868315D3B689A
:102850009847002809DB0134A542F5D1200006E0A5
:102860000120404203E0002001E00120404204BC7E
:102870009046F0BD58080020540800200300064A86
:102880001268002A02D10549034A1160024A106801
:10289000C31813607047C046C8000020902900206C
:1028A000012040427047C04680239B014B600020BE
:1028B0007047C046012070470020704770B582B055
:1028C00005000E0000226B46DA80064C6B46991D0F
:1028D0002800A0470028F9D16B4606331B883370C7
:1028E00002B070BDAD17000070B505008CB2034E8C
:1028F00021002800B0470028FAD170BD81170000E0
:1029000010B582B06B46DC1D012221000F48104B30
:10291000984772B6BFF35F8F00220E4B1A700E4BB2
:102920001B7821780D4AD1549B2B03D100220A4BEE
:102930001A7002E00133084A13700122054B1A7025
:10294000BFF35F8F62B602B010BDC04668010020C1
:102950001D180000080000209C010020CC00002071
:10296000F0B591B08023DB05009300230193FF2293
:1029700069460A8100228B72CB72962189010891E7
:102980000124242168464454013144540131435404
:10299000013143540A9305314354013143540593A3
:1029A0000382C376027602774276132383764277D8
:1029B00080235B0303932E4B0C932E4B0D9301232B
:1029C0005B420E930F932C4D2C4B1D602C4A2D4BCC
:1029D0001A602D4A2D4B1A606A462D4928002D4B4E
:1029E00098472D4F3B68986800212C4EB0473B68B4
:1029F00058680021B0472E683000294B98471F23A4
:102A000018408440274B1C602A68D369002BFCD1F6
:102A10003268023313433360174B1B68DA69002AAC
:102A2000FCD15A68802149020A435A600121124AA6
:102A3000D171DA69002AFCD1DA69002AFCD15A681E
:102A4000802189020A435A6001210B4A9171DA6997
:102A5000002AFCD114490020144B984704220C4B47
:102A60009A75FD32FF320F4B1A6011B0F0BDC046AF
:102A7000030004000300050068010020580800203E
:102A8000E928000054080020BD280000500800205C
:102A900000080042491400006C000020356E000060
:102AA0002110000000E100E001290000E50F000016
:102AB00010B50D4A002313715371138058215352DE
:102AC000130040320021996004339342FBD1074B3D
:102AD0009847074B9847074B9847074B9847074B32
:102AE0009847074B984710BD5C08002085390000C7
:102AF000CD310000F12C0000A12B0000E52D0000DD
:102B00006136000010B5024B1880024B984710BD8B
:102B10005C080020B13D000010B5024B5880024B0C
:102B2000984710BD5C080020913D000002308000F5
:102B3000014BC1507047C0465C08002010B5044BE3
:102B40009847044B9847044B9847044B984710BD4F
:102B50006D320000853B0000AD2B000041370000C6
:102B600010B50D4B1B68002B12D05A6890420CD147
:102B700002E05A68824208D18522825C1A77882254
:102B8000825C5A7702221A7202E01B68002BF0D195
:102B9000024B984710BDC046A0010020752D0000D3
:102BA0000022014B1A607047A001002070B54A4B0B
:102BB0001A68002A00D18EE01400237A002B02D07C
:102BC000022B6FD083E0454B9847051E03D10223AB
:102BD000237223777FE0606001262672404B8922B2
:102BE0008354190A020089325170190C91701B0E1E
:102BF000D370A37B9B080122134088214354A17BFF
:102C000011400800E97AB1430143E972A17BC90888
:102C100011408800E97A042399430143E972A37BB8
:102C20005B0813405A00CBB202218B431343EB7273
:102C30002C4A13790133DBB213712B7313786B7346
:102C40005378AB736389A27AEA731B0A2B74627B95
:102C50000F20024011006A7C0F239A430A436A74D2
:102C6000227B12016B7C034013436B748123E95C6C
:102C70000133EB5C1B020B431A008323E85C000466
:102C8000030013438422A85C00061843227D2169B7
:102C9000154B98476A78237DD3186B702800134B27
:102CA000984718E0A24204D112680B4B1A6005E065
:102CB0001A001368A342FBD1236813600949582204
:102CC0008B5A013B8B52A3692000984703E024688C
:102CD000002C00D071E770BDA0010020052D000080
:102CE000612B00005C0800208D6C0000B9390000E9
:102CF000034B00221A708D215A548D315A5470475B
:102D0000A401002010B5184B1B78002B0ED08D238A
:102D1000154AD35C002B07D08D235B00D35C0024C5
:102D2000002B1FD1023402E0012400E000248D2397
:102D30005C430D4B1C198D22002120000B4B984742
:102D40001023637023001233220081321370190A9A
:102D50005170190C91701B0ED370054958228B5A73
:102D600001338B52200010BDA40100209F6C000095
:102D70005C08002000230370024958228B5A013B53
:102D80008B5270475C080020002806D08D300C4B19
:102D9000A833FF33984201D30FE009480378002B92
:102DA0000CD1074AA832FF3202E00378002B05D18C
:102DB0008D309042F9D3002000E000207047C046DB
:102DC000A401002000228523C254054A137901334F
:102DD000DBB21371037313784373537883737047B3
:102DE0005C080020F0B5094B0233002201277F4226
:102DF000064C012600251F80D000015DB14301551E
:102E00001D7101320833642AF5D1F0BD4C03002056
:102E100070B50B4A02320023094E1488844209D14E
:102E2000DC00A45DA407E40F8C4203D1DD0004485C
:102E3000401904E001330832642BEED1002070BD4C
:102E40004C03002030B50022124801240300C8259D
:102E5000AD00AC466344190003781C420AD1837963
:102E6000002B0BD0002A04D095799D4202D9020094
:102E700000E0020008308842EED110000378022200
:102E800093430D3213403022134303708023837128
:102E900030BDC0464C0300200378DB0704D4012377
:102EA0005B424380002383717047C04610B5044BDA
:102EB0009847002801D0808800E0024810BDC04635
:102EC000112E0000FFFF000010B5034B98470028AB
:102ED00001D0024B984710BD112E0000992E000022
:102EE00070B50400427A857A2D0215432BB2002B6F
:102EF00005DA427B837B1B0213439D423FD16279FB
:102F0000A3791B0213431E4A934238D0637BA07BF4
:102F10000002184300211B4B9847002816D0E27985
:102F2000237A1B021343164A93421FD1E27B237C70
:102F30001B02154909881343994217D185800378EC
:102F40000F2213403022134303700BE00F4B9847BE
:102F5000617BA27B12020A434280627AA37A1B023F
:102F6000134383808523E35CC37108E08388AB420D
:102F7000F8D0C2798523E35C9A42DFD3F2E770BDD3
:102F8000FFFF0000112E00005C080020452E00000D
:102F900010B50400C37B007C000218431B4B984211
:102FA00033D0E17A0907C90F194B984700282CD074
:102FB0000378DB0729D48523E35C002B18D1037841
:102FC0000F22134030221343037083790133DBB2A5
:102FD0008371FF2B19D10F498A1D0F4B9C46614409
:102FE00013785B080133137008328A42F8D10CE081
:102FF000027813090F330F242340190122400A439A
:103000000270002B01D1054B984710BDFFFF000057
:10301000112E00004C03002026030000992E000012
:1030200010B50400C37B007C000218430B4B984290
:1030300004D101235B42E37123720EE0E37A5B0764
:1030400003D5E071000A207207E0E17A0907C90F91
:10305000034B9847E071000A207210BDFFFF00008B
:10306000AD2E0000F0B5474680B40600C27B077C59
:103070003F021743C47A2407E40FE1B238002A4B19
:1030800098472A4B98420ED000228923F2543300ED
:1030900089335A709A70DA7002328823F254300001
:1030A000234B98473DE0727BB37B1B02134398464A
:1030B000204B9847051E31D01F4B98476B7806333D
:1030C0006B7000228923EA542B0089335A709A705E
:1030D000DA70FF2342461A409446EA7343461B0ABD
:1030E00098462B748123E85C0133EA5C12020243A8
:1030F0000133EB5C1B0413431A008423EB5C1B06B7
:10310000134301221A7062465A7042469A70DF7069
:103110003F0A1F715C712800054B98473000074B30
:10312000984704BC9046F0BDAD2E0000FFFF0000A4
:10313000B9390000052D0000C52D0000752D0000D7
:1031400010B5027B0023062A08D182685179D37812
:10315000107900021843024B98470123180010BD54
:10316000C92E000010B5027B0023002A0FD083680F
:103170001B78002B02D0012B04D007E0054B9847A9
:10318000030004E0044B9847030000E0002318000C
:1031900010BDC046FD3A00004131000070B509493C
:1031A0000B1D4031002401251A78002A02D0013A73
:1031B0001A702C0006338B42F6D1002C01D0024B42
:1031C000984770BD6C0600204940000010B50A4ABF
:1031D000131D40320021197006339342FBD1074B77
:1031E00064229A6000221A73054A1A610549002078
:1031F000054B984710BDC0466C060020AC06002069
:103200009D310000653100002D2B000010B5040039
:1032100003685A78882A1BD11B78683A9343412B5C
:1032200016D103790F2B13D90A4B984700280FD0DA
:10323000202303702379437062798523C2540622C8
:10324000A2560133C254023022792168024B9847BA
:1032500010BDC046052D00008D6C0000002902D075
:103260002223037001E0242303707047F0B54F461A
:103270004646C0B487B00024D84DD94ED5E1237856
:10328000203BDAB2042A00D9CFE19300F3589F46DD
:1032900024232370E17A0B0700D5C6E16279A37974
:1032A0001B021343CF4A934213D1E27B237C1B02C0
:1032B0001343CD4A12889A4203D0CA4A934200D09F
:1032C000B3E18B0702D521232370AEE122232370C3
:1032D000ABE1E27B237C1B021343C24A934202D13F
:1032E000CB0700D5A1E1627BA37B1B02BE49098805
:1032F0001343994200D198E12000BC4B9847BC4B46
:10330000002200218C46A01C01921979002954D07A
:10331000C77A017B090288461988894641463943A4
:1033200089454BD1277B11005300944663445B00D1
:10333000AF4AD3189A78D21BD2B2072A27D84B00AB
:1033400063445B00AA49CB18DB7819001141C90717
:1033500012D5E279237A1B02A349098813439942C3
:1033600000D062E1E17A0907C90FE37B207C00020B
:103370001843A04B984758E10198410008184000B5
:103380009B490918012090400343CB7053E1984BAF
:10339000019948004118490059188F70CF7852425E
:1033A000D2B2974001223A43CA7001998C466044D8
:1033B00040001B181F221A713DE19C460132063362
:1033C0000A2AA1D16346002B00D12EE1617BA27BAA
:1033D00012020A4361460A80237B8B700123CB7063
:1033E0001E330B718448854B984724E17E4B198826
:1033F000E27B237C1B021343994210D0E27A5207EE
:103400000AD420007E4B9847774B1988E27B237CB7
:103410001B021343994202D0724A934208D1E37AC5
:103420009B0702D521232370FFE022232370FCE0B9
:10343000E279237A1B0213438B4200D0F5E0232369
:103440002370F2E0002120006E4B9847EDE000224F
:103450006D4B1A70607C0009C3B202339B00624A54
:103460009B589846002B5AD0A71C637BA27B120264
:103470001A43914602AB1A80E37B217C090219436F
:1034800002AB5980637C1B071B0F02AA137150719A
:103490008123E35C8220205C000218438323E35CE9
:1034A0001B0418438423E35C1B0603430493DB1BC8
:1034B0006078C31A13738523E35C53738623E35C3C
:1034C0009373E07A032303409C464307DB0F5B01C1
:1034D000624613430007C00F800118434B4B9C46C4
:1034E00061444B424B419B000343F879397A09020E
:1034F00001434A46521A51424A41D200134302AA9A
:103500009371F9783A7912020A43624451424A416E
:103510001201134302AA93711000C04700E000207B
:10352000E17ACB07DB171840E279237A1B021343B9
:103530002C4A93420AD1E27B237C1B022A4F3F880C
:1035400013439F4202D10B0700D401206279A37973
:103550001B021343234A93423CD0234B1A88214B2E
:103560009A4237D0002835D0294B9847071E31D0D2
:10357000284B98477B7803337B7000228923FA54C9
:103580003B0089335A709A70DA70E27A02231A404B
:10359000FB7A02218B431343FB72627BA37BFA739A
:1035A0003B748123F85C0133FA5C1202024301335D
:1035B000FB5C1B0413431A008423FB5C1B061343B0
:1035C00000221A70104A12789A70227B5A703800C2
:1035D000114B98472423237027E0C046892D000013
:1035E000487E0000FFFF00005C080020E12E000084
:1035F0006C060020C92E0000AC06002049400000E7
:10360000753A000075360000A80600200100FFFF93
:10361000052D0000C52D0000B939000020000D4B1C
:10362000984702E020000C4B98472000A847041E52
:1036300000D024E608E0E279237A1B021343074A0C
:10364000934200D0E0E6D1E607B00CBC9046994624
:10365000F0BDC04665300000752D0000FFFF000082
:103660000023024A1370024A13607047C00600200C
:10367000C4060020002902D03023037001E031236A
:103680000370024A1378013313707047C00600209C
:10369000F0B5474680B4254B1B689C4681236246A3
:1036A000D05C0133D35C1B0203431A0083236146C1
:1036B000CB5C1B0413438422895C090619431C4B11
:1036C0001B7898461B4B1E78371C102E00D91027EC
:1036D000FFB2002F16D0184B1D784144174B7C1EAB
:1036E000E4B201341C1908781A7842400A70002D9F
:1036F00001D01A7002E0187842401A70013101338B
:10370000A342F0D14346DB19094A1370F61BF6B207
:10371000084B1E70002E03D032236246137002E065
:1037200034236246137004BC9046F0BDC4060020EA
:10373000C8060020C9060020CA060020CC060020CA
:1037400070B582B0574B1B78002B00D1A8E0564BC8
:103750001C68002C00D19EE02378342B47D14D33D8
:10376000E15C0133E35C1B020B431A008323E05C42
:103770000004030013438422A05C000618434B4B53
:10378000197840184A4B1E685A6856409A68564045
:10379000DB685E400096474B1D78002D07D0042261
:1037A0006946454B984763780433637009E0042207
:1037B000010001A8404B9847019B9D1B6B426B4148
:1037C000DDB23C4B1B78002B04D0374B18683B4BC9
:1037D000984704E0344B18682900394B9847002279
:1037E000314B1A602F4A1378013B137058E0322B8B
:1037F00056D10133237033492D48334B98474FE05E
:103800000378303B012B48D8274B1860284D027BAA
:103810002A60C47B027C120222431104427C1209FA
:103820000A436A60447B827B120222431104427C79
:103830001207120F0A43AA60427983791B021343CD
:103840001B04C27A1343EB600578312D02D1437813
:10385000043B43708123C45C0133C25C12022243E7
:103860000133C35C1B0413431A008423C35C1B068F
:103870001343821C9B1A4278D31A144A13700022F5
:103880000A4B1A702B00303B59425941094A1170BA
:103890003223037004E000200D4CA0470028AFD174
:1038A00002B070BDC0060020C4060020C80600207B
:1038B000CC060020CA0600208D6C00003D3B0000B5
:1038C0005D320000A4080020513F0000C90600201E
:1038D000892D0000F0B583B0019000240020104D28
:1038E0008626872712E00378112B0FD1825DC35DF6
:1038F0001B021343013B9BB28355190A0200863217
:1039000051700124002B01D113330370A847002804
:10391000E9D1002C02D00198024B984703B0F0BDCA
:10392000892D000049400000F0B583B001900024CB
:103930000020124D8626872715E00378162B12D11A
:10394000825DC35D1B021343013B9BB28355190A81
:103950000200863251700124002B04D1173303700A
:1039600010226E33C254A8470028E6D1002C02D0A2
:103970000198034B984703B0F0BDC046892D000065
:10398000494000000022074B1A60074B3221996022
:103990001A7306491961064B0A2199601A73054A80
:1039A0001A617047F0060020DC060020293900006B
:1039B000F4060020D538000010B504008823C35C4D
:1039C0009A0702D51222027007E0C27A920702D546
:1039D0001022027001E01222027000218522A154FF
:1039E000DA0704D5012252426271A27104E01D4A35
:1039F00091786171D278A27105221A4203D1200018
:103A0000194B984703E0E27B237CE271237215494E
:103A10000B7863724B78A3724B790133DBB24B7135
:103A20002371E179237A1B020B43104A93420ED192
:103A30004123A370B93BE3700D4B9847072318400F
:103A400001307F33E05486340023637009E0612342
:103A5000A370D93BE3700022FE33E2548634002386
:103A6000637010BD5C08002021300000FFFF0000E3
:103A7000BD6D000070B505001C4B9847041E33D087
:103A8000122303706B78437000228523C254184BB5
:103A900098470723184001307F33E054000C23007F
:103AA0008633587000228923E254230089335A70E8
:103AB0009A70DA70A01C6A78A91C0E4B98474123B3
:103AC000A370B93BE3707733E37123726A79AB7902
:103AD0006271A371084A137863725378A3725379A1
:103AE0000133DBB25371237170BDC046052D000058
:103AF000BD6D00008D6C00005C08002070B5027B7D
:103B00000023032A15D10DE00378162B0DD1027B7B
:103B10006B789A4209D117230370AA787133C25483
:103B2000873B06E085680020034CA0470028EBD1C6
:103B30000023180070BDC046892D000012230370B9
:103B40007047C0460D4B1B68012805D0002807D0E0
:103B50002122022805D001E0202202E0012200E01B
:103B6000002285215A5415221A700022034B1A6034
:103B7000034958328B5A013B8B527047F0060020A4
:103B80005C08002070B50024384D394E68E0237879
:103B9000103BDAB2072A63D89300F3589F460121FD
:103BA0002000344B98475BE08623E25C0133E35C02
:103BB0001B02134305D0112323702F482F4B984726
:103BC0004EE0132323704BE02D4B1B68002B47D195
:103BD0002B4B1C6014232370601C2A4B98472A49E6
:103BE00058228B5A01338B523AE08523E35C002B39
:103BF0001AD1627BA37B1B02234909881343994294
:103C00000FD1E37ADB070CD516232370152270330E
:103C1000E2540022230086335A701C48174B984701
:103C20001EE0172323701BE01723237018E02000E9
:103C3000174B98478923E05C0133E25C1202024390
:103C40000133E35C1B0413431A008C23E35C1B0663
:103C5000134303D120000F4B984701E02000984701
:103C60002000A847041E92D170BDC046892D0000D7
:103C70005C7E000075360000F4060020494000001C
:103C8000F0060020DD3D00005C080020DC0600207E
:103C9000912F0000752D0000F8B504000B4F0C4E5D
:103CA0001F2503210220B8470120B04728400828DB
:103CB000F7D1064F064E1F2521000220B8470120EC
:103CC000B04728408442F7D1F8BDC0469546000071
:103CD0009945000010B50820064B98470F20064B69
:103CE0009847064B1B78002B02D01620014B9847B3
:103CF00010BDC046993C000099450000890700208E
:103D000070B50E4B98470E4B984700220D4B1A701A
:103D100001320D4B1A700D4E0D4D1F24082102204B
:103D2000B0470120A84720400828F7D12E210438A9
:103D3000064CA047A0210C20A04770BD4D440000B8
:103D4000694500008907002088070020954600008B
:103D50009945000010B5024B1870024B984710BDF2
:103D600089070020D53C000010B504000820064B50
:103D700098471F230100994320000843C1B208203F
:103D8000024B984710BDC04699450000954600007B
:103D900030B583B06B469D1DD880C1B22220034C44
:103DA000A04769782320A04703B030BD95460000A6
:103DB00070B582B06B469C1DD880C5B2290020200A
:103DC000054EB047647821002120B0472C19E1B29C
:103DD0002D20B04702B070BD9546000010B504001C
:103DE00019200C4B98470F200B4B984721788B1CC0
:103DF00023700131C9B22000084B98470322084BB9
:103E00001A70084B802252039A61C046C0465A611C
:103E100010BDC046993C000099450000C54800000F
:103E2000880700200044004110B50400080000226B
:103E30000021054B984700212000044B98472000A3
:103E4000034B984710BDC046E54200007942000090
:103E50001D440000F0B585B0264B1B78022B47D0DF
:103E60000F20254B9847030742D5224B1B78012B87
:103E700024D10720204B984705006B46DC1D01210B
:103E800020001E4FB84721780231C9B21C4E3000C5
:103E9000B84702A8731C029323789A1E0271F31884
:103EA0005B7843715B3D8571164B9847124D1F241B
:103EB0000120A84720401628FAD119E0032B17D17A
:103EC00002200D4B98474009C4B2002C08D0032CA7
:103ED00005D0053C634263410324E41A00E0012459
:103EE000094B98470122034B1A702000074B984753
:103EF00005B0F0BD880700209945000095470000F7
:103F0000080700200D320000D53C0000453B0000B2
:103F100010B5044B9847044B9847044B9847044B03
:103F2000984710BDE13F000075420000013D0000D0
:103F3000B12A000010B5034B9847034B9847034B39
:103F4000984710BD553E00003D2B00006540000025
:103F500010B5024B9847024B984710BD293E000010
:103F60009136000030B5154B1D68002D1ED08268BB
:103F700069688A4205D32C0009E05968914205D945
:103F800001E02B000024891A596004E01C00521A39
:103F90002368002BF1D14260002C03D0236803601A
:103FA000206009E00560054B186005E00023036010
:103FB00083684360014B186030BDC0468C07002009
:103FC00010B5044A13780133DBB213700248034B77
:103FD000984710BDB8080020102700009D50000031
:103FE00010B50024064B1C700648074B9847074B3A
:103FF00098470748074B9847074B1C6010BDC046C1
:10400000B8080020C13F00008D5100000951000098
:10401000102700009D5000008C070020094B1B68F2
:10402000002B09D0834202D108E0984208D01B68D7
:10403000002BFAD1002004E0002002E0012000E083
:10404000012070478C07002010B50400034B9847EF
:10405000002802D12000024B984710BD1D400000EF
:10406000653F0000F0B583B01C4B1B78002B33D0AC
:10407000EFF3108253425341019372B6BFF35F8F47
:104080000022174B1A700199144B1D78EDB21A706B
:10409000002905D00132124B1A70BFF35F8F62B650
:1040A000AB005D196D000F4E37000DE0ED1A23686F
:1040B0003B60237B012B02D120000B4B98472369E7
:1040C000002B01D0200098473468002C04D063688E
:1040D0009D42EBD25D1B656003B0F0BDB8080020C7
:1040E000080000208C070020653F000010B5014B40
:1040F000984710BD7151000010B5014B984710BD95
:104100002951000010B50248024B984780B210BDFB
:10411000F00800206D260000034B10211A6811736F
:104120005A7E8A435A767047F008002010B50A4C30
:1041300020680A4B98470A4B1B5C1F221A40012338
:104140009340084A1360627E10231343637623680A
:1041500010225A7310BDC046F0080020B923000099
:104160007C7E000000E100E010B502000021024862
:10417000024B984710BDC046F00800209D26000065
:10418000F8B54F464646C0B42D4A002313709370CD
:10419000002193809171138151709172D1721173CA
:1041A0009173517311745361936111771362536268
:1041B00013859385013B5385224C23492000234BD3
:1041C0009847002222492000224DA8470222224976
:1041D0002000A8472068214B99469847204B9846D5
:1041E0001B5C1F273B4001252A009A401D4E326070
:1041F000627E01231343637623685D731800C8470A
:1042000043461B5C3B409D403560627E1023134358
:1042100063762268102353737F21D37B8B43FCD1B9
:10422000118802330B43138000200F4B98470F492E
:104230000F4B9847C0B20CBC90469946F8BDC0469B
:10424000BC080020F0080020002C0042F1230000F0
:10425000F9400000FD220000ED400000B9230000FD
:104260007C7E000000E100E08D20000040420F0055
:10427000995100007047C04670B503000D00144C02
:10428000601C10221900134B9847647C124B1B785A
:10429000002B08D012220E498320104B9847002291
:1042A0000D4B1A7005E011220949013184200B4B96
:1042B0009847002D05D01022054901312800054BF3
:1042C0009847034B5C741820054B984770BDC04657
:1042D000B40700208D6C0000C6070020D14C000000
:1042E00055010000F0B5474680B484B006000D00CB
:1042F0001400002817D000223E4B1A7002323E4BA9
:104300001A700E3201003D483D4B984698473D4F8C
:1043100010233B70781C10223100C0471122390055
:104320008320394B9847002C02D0012C12D05AE040
:10433000314B1B78012B3DD1324E0F333370701C43
:1043400010222E492E4B98471122310083202E4BEC
:1043500098472FE0284B1B78012B2BD01022294B9C
:104360001A70244B1B78002B16D1264E33708033E5
:1043700073740F3A254B1A7000216846244B9847F6
:10438000102333700122310083201F4B98471022E5
:1043900020498420204B98471A4E701C10221D493A
:1043A000174B9847112231008320174B9847114B28
:1043B00001221A70104B1C70002D02D00020022D1B
:1043C00013D12D0170231D40E30008241C402C4311
:1043D0000C4B1C708022524214435C7481320B4B94
:1043E0001A70012001E00020FFE704B004BC9046F1
:1043F000F0BDC0469007002009000020A40700205F
:104400008D6C0000B4070020E1490000C6070020C1
:104410007942000094070020494B000010B50100CC
:1044200010228420014B984710BDC046494B000024
:1044300010B50122034B1A61034B1B68002B00D0FF
:10444000984710BD00180040C807002030B585B05F
:10445000344A0023537093703F211170324C217005
:104460006370A370012269464A708B700A703F2006
:104470002E4B98472378DA090021002A04D15909E4
:10448000C9012B4A944661441F2213401E3A100072
:1044900098408861274C227000236360A3602374D6
:1044A0006374A274E27423752332A354200018307D
:1044B000183A0021204B984780235B02E3601F4B92
:1044C000A3611F4BA36201235B42E3621D4B236385
:1044D0001D4B63631D4D22001D4928001D4B98474D
:1044E0002A68D369002BFCD1136802252B43136083
:1044F00001AC2000184B98472023019380239B0395
:1045000063602572012363720022A272E3722100AC
:104510000020124B9847002200211148114B984768
:1045200005B030BD1009002014090020A1040000CE
:1045300000440041180900209F6C0000404B4C00D3
:104540000500530005003E00050052005009002000
:1045500000180042AD100000190400002D040000F6
:1045600031440000C102000070B5094B1C008034CA
:1045700080252D02A561802252035A61A5204000AA
:10458000044EB04765610A20B047A56170BDC046C2
:10459000004400415501000070B582B00500EFF302
:1045A00010835A425341019372B6BFF35F8F0022CA
:1045B000334B1A70019C334E013233493000334B78
:1045C0009847336801211A7E0A42FCD01A7ED2072E
:1045D00002D5802215439D6202211A7E0A42FCD038
:1045E00004211A7E0A42FCD01A7E520712D55A8B39
:1045F000520701D504225A83224A9279012A05D111
:104600009A6AD205D20D22490A8003E09A6AD2B290
:104610001F490A8001211A7E0A42FCD01A7ED20765
:1046200001D500229A6202211A7E0A42FCD004219E
:104630001A7E0A42FCD01A7E002552070ED55A8BEC
:10464000520701D504225A830E4A9279012A03D1D6
:104650009D6AED05ED0D01E09D6AEDB200220A496B
:1046600008480A4B9847FF23234205D00122044BF8
:104670001A70BFF35F8F62B6E8B202B070BDC04679
:1046800008000020500900201409002059130000E0
:104690000C090020F0B583B006000C00EFF3108386
:1046A0005A425341019372B6BFF35F8F0022344BDD
:1046B0001A70019D334F013233493800334B98470C
:1046C0003B6801211A7E0A42FCD01A7ED20702D52D
:1046D000C02216439E6202211A7E0A42FCD00421A7
:1046E0001A7E0A42FCD01A7E520712D55A8B520704
:1046F00001D504225A83234A9279012A05D19A6A64
:10470000D205D20D22490A8003E09A6AD2B220492A
:104710000A8001211A7E0A42FCD01A7ED20700D5F7
:104720009C6202211A7E0A42FCD004211A7E0A42AF
:10473000FCD01A7E520712D55A8B520701D504229B
:104740005A83104A9279012A05D19B6ADB05DB0D59
:104750000F4A138003E09B6ADBB20D4A13800022EC
:1047600009490848094B9847FF232B4205D00122ED
:10477000034B1A70BFF35F8F62B603B0F0BDC04643
:1047800008000020500900201409002059130000DF
:104790000C090020F0B557464E464546E0B482B0BD
:1047A00005000C00EFF310835A425341019372B697
:1047B000BFF35F8F00223E4B1A70019B98463D4F1E
:1047C00001323D4938003D4B98473B6801211A7E34
:1047D0000A42FCD01A7ED20701D520229A62022119
:1047E0001A7E0A42FCD004211A7E0A42FCD01A7EAC
:1047F000520712D55A8B520701D504225A832D4AEB
:104800009279012A05D19B6ADB05DB0D2C4A1380C6
:1048100003E09B6ADBB22A4A1380631EDBB2002CE2
:1048200030D001339C46AC442027224E0120002387
:104830009A4602240421B14622E01A7E0242FCD0AC
:104840001A7E024201D052469A621A7E2242FCD05F
:104850001A7E0A42FCD01A7E0A420DD05A8B0A42B6
:1048600000D059834A469279012A03D19F6AFF05F5
:10487000FF0D01E09F6AFFB22F700135AC4501D0FA
:104880003368DAE700220C490A480C4B9847FF23AB
:104890004246134205D00122054B1A70BFF35F8FC9
:1048A00062B602B01CBC90469946A246F0BDC04616
:1048B00008000020500900201409002059130000AE
:1048C0000C090020F0B5474680B482B004000D000A
:1048D000EFF310835A425341019372B6BFF35F8FD7
:1048E00000223A4B1A70019B9846394F01323949E0
:1048F0003800394B98473B6801211A7E0A42FCD0A8
:104900001A7ED20701D560229A6202211A7E0A42DB
:10491000FCD004211A7E0A42FCD01A7E520712D51E
:104920005A8B520701D504225A83294A9279012AC7
:1049300005D19A6AD205D20D28490A8003E09A6A05
:10494000D2B226490A80224A927994462100012750
:104950000220042422E01A7E3A42FCD01A7E3A4217
:1049600001D00A789A621A7E0242FCD01A7E224254
:10497000FCD01A7E224210D05A8B224200D05C8397
:104980006246012A05D19A6AD205D20D134E3280B1
:1049900003E09A6AD2B2114E32800131013DEDB28C
:1049A000FF2DD8D100220B4909480B4B9847FF2314
:1049B0004246134205D00122044B1A70BFF35F8FA9
:1049C00062B602B004BC9046F0BDC04608000020AC
:1049D0005009002014090020591300000C09002080
:1049E000F0B5474680B482B006000D001400EFF326
:1049F00010835A425341019372B6BFF35F8F002276
:104A00004C4B1A70019B98464B4F01324B49380072
:104A10004B4B98473B6801211A7E0A42FCD01A7E14
:104A2000D20701D540229A6202211A7E0A42FCD0A6
:104A300004211A7E0A42FCD01A7E520712D55A8BE4
:104A4000520701D504225A833B4A9279012A05D1A3
:104A50009A6AD205D20D3B490A8003E09A6AD2B223
:104A600038490A8001211A7E0A42FCD01A7ED207F8
:104A700000D59E6202211A7E0A42FCD004211A7ED1
:104A80000A42FCD01A7E520712D55A8B520701D522
:104A900004225A83284A9279012A05D19A6AD205BA
:104AA000D20D28490A8003E09A6AD2B225490A80C9
:104AB000214A92799446280001260225042122E009
:104AC0001A7E3242FCD01A7E324201D002789A62BB
:104AD0001A7E2A42FCD01A7E0A42FCD01A7E0A4272
:104AE00010D05A8B0A4200D059836246012A05D160
:104AF0009A6AD205D20D134F3A8003E09A6AD2B275
:104B0000104F3A800130013CE4B2FF2CD8D1002292
:104B10000A4909480A4B9847FF234246134205D0E9
:104B20000122044B1A70BFF35F8F62B602B004BC5F
:104B30009046F0BD08000020500900201409002014
:104B4000591300000C090020F0B557464E46454663
:104B5000E0B482B004000D0017000120564B9847C6
:104B6000EFF310835A425341019372B6BFF35F8F44
:104B70000022524B1A70019B9846514E0132514906
:104B80003000514B9847336801211A7E0A42FCD00D
:104B90001A7ED20701D500229A6202211A7E0A42A9
:104BA000FCD004211A7E0A42FCD01A7E520712D58C
:104BB0005A8B520701D504225A83414A9279012A1D
:104BC00005D19A6AD205D20D40490A8003E09A6A5B
:104BD000D2B23E490A8001211A7E0A42FCD01A7ED6
:104BE000D20700D59C6202211A7E0A42FCD0042121
:104BF0001A7E0A42FCD01A7E520712D55A8B5207EF
:104C000001D504225A832E4A9279012A05D19B6A42
:104C1000DB05DB0D2D4A138003E09B6ADBB22B4AD8
:104C200013807B1EDBB2002F30D001339C46AC4496
:104C30000027234E012000239A4602240421B14676
:104C400022E01A7E0242FCD01A7E024201D0524675
:104C50009A621A7E2242FCD01A7E0A42FCD01A7E48
:104C60000A420DD05A8B0A4200D059834A469279A3
:104C7000012A03D19F6AFF05FF0D01E09F6AFFB281
:104C80002F700135AC4501D03368DAE700220D49B9
:104C90000B480D4B9847FF234246134205D0012293
:104CA000064B1A70BFF35F8F62B602B01CBC904611
:104CB0009946A246F0BDC0465501000008000020FC
:104CC0005009002014090020591300000C0900208D
:104CD000F0B557464E464546E0B406008A461400F5
:104CE0000120764B984700210020754B9847754F5F
:104CF000012275493800754B98473B6801211A7E9F
:104D00000A42FCD01A7ED20701D540229A620221C3
:104D10001A7E0A42FCD004211A7E0A42FCD01A7E76
:104D2000520712D55A8B520701D504225A83654A7D
:104D30009279012A05D19A6AD205D20D64490A8076
:104D400003E09A6AD2B262490A8001211A7E0A42BD
:104D5000FCD01A7ED20700D59E6202211A7E0A423A
:104D6000FCD004211A7E0A42FCD01A7E520712D5CA
:104D70005A8B520701D504225A83524A9279012A4A
:104D800005D19A6AD205D20D51490A8003E09A6A88
:104D9000D2B24F490A8001211A7E0A42FCD01A7E03
:104DA000D20702D5524612789A6202211A7E0A422E
:104DB000FCD004211A7E0A42FCD01A7E520712D57A
:104DC0005A8B520701D504225A833E4A9279012A0E
:104DD00005D19B6ADB05DB0D3D4A138003E09B6A2E
:104DE000DBB23B4A1380002C31D05646013CE4B282
:104DF0000134A244D0460027324D01200224042170
:104E0000A94622E01A7E0242FCD01A7E024201D05C
:104E100072789A621A7E2242FCD01A7E0A42FCD034
:104E20001A7E0A420DD05A8B0A4200D059834A4654
:104E30009279012A03D19F6AFF05FF0D01E09F6A65
:104E4000FFB237700136464502D02B68DAE70027FB
:104E50001C4B1B6801211A7E0A42FCD01A7ED20725
:104E600001D500229A6202211A7E0A42FCD0042156
:104E70001A7E0A42FCD01A7E52070ED55A8B520770
:104E800001D504225A830F4A9279012A03D19F6ADD
:104E9000FF05FF0D01E09F6AFFB253461F7000221D
:104EA00009490848094B984700210020094B9847B9
:104EB0001CBC90469946A246F0BDC0465501000074
:104EC0000D030000500900201409002059130000B0
:104ED0000C090020ED02000030B58FB001AA642358
:104EE0000193224B53600023936013731376802148
:104EF0008903116101214942918225315354936202
:104F0000083153540131535401315354D73313866C
:104F1000174BD361174B1362174BD382174C1849A9
:104F20002000184B984724680722E3691A42FCD1F5
:104F30002268022313432360104D2868124B9847C0
:104F40001F2318401E3B8340104A1360E88800234B
:104F5000102105E00133834202D31023638302E072
:104F6000628B0A42F6D00FB030BDC046480D00003B
:104F70000200100002001100102700005C09002050
:104F8000000C0042D10400002110000000E100E00C
:104F900010B584B00F246C4400232370122269469C
:104FA0000A800F3A4A8001940B724B728B728368AD
:104FB000197809025A78511889B29A781202D87869
:104FC000821892B21B7923700A480B4CA0478022AA
:104FD00012030A4BDA61694609480A4B98470028D0
:104FE00004D0019B19780848034B9847012004B06E
:104FF00010BDC046807E0000B16C0000004400413E
:105000005C09002021090000A07E000010B5134BB0
:105010009847134B9847134B9847134B98470122D7
:10502000124B1A70BFF35F8F62B61148114B98474D
:105030000D20114B98471148114B98473420114BC4
:1050400098470120104B984710490120104B984772
:10505000104B9847104CA047FDE7C046D1220000F6
:1050600015010000113F0000612900000800002028
:10507000AC7E0000A96D0000052B0000341200007A
:10508000192B0000693D0000553D0000914F0000C4
:105090002D2B0000D94E0000353F000010B5041C38
:1050A000134B9847134B1A7862438118124B59607F
:1050B0005968090C59605B68002B07D00E4B596882
:1050C0000132801818810D4B984704E082180A4B72
:1050D0001A810B4B9847084B1B89632B02D864330A
:1050E000054A1381044B1889064B984710BDC046EA
:1050F0000541000084090020CC0700201941000070
:105100002D4100006941000008B50022034B1A70D0
:10511000034B9847034B187008BDC046CC070020CE
:10512000814100008409002008B50E4B5B68002B0C
:1051300007D00C4A5368013B5360002B01D10A4B46
:105140009847084A13780133DBB21370074A127884
:105150009A4206D8034B00221A70DB68002B00D05D
:10516000984708BDCC0700202D410000840900208D
:1051700008B5044B9847044B1B69002B00D0984797
:1051800008BDC04619410000CC070020014B186142
:105190007047C046CC070020002243088B4274D3DE
:1051A00003098B425FD3030A8B4244D3030B8B4228
:1051B00028D3030C8B420DD3FF22090212BA030C31
:1051C0008B4202D31212090265D0030B8B4219D312
:1051D00000E0090AC30B8B4201D3CB03C01A524132
:1051E000830B8B4201D38B03C01A5241430B8B427A
:1051F00001D34B03C01A5241030B8B4201D30B0363
:10520000C01A5241C30A8B4201D3CB02C01A524189
:10521000830A8B4201D38B02C01A5241430A8B424C
:1052200001D34B02C01A5241030A8B4201D30B0235
:10523000C01A5241CDD2C3098B4201D3CB01C01A4F
:10524000524183098B4201D38B01C01A5241430959
:105250008B4201D34B01C01A524103098B4201D347
:105260000B01C01A5241C3088B4201D3CB00C01AB4
:10527000524183088B4201D38B00C01A524143082C
:105280008B4201D34B00C01A5241411A00D2014651
:10529000524110467047FFE701B5002000F006F8C4
:1052A00002BDC0460029F7D076E770477047C04678
:1052B000F0B54F464646C0B41604360C9946330046
:1052C00005042C0C070C150C63437E436F436543A8
:1052D0001C0CAD1964199C46A64203D980235B02BD
:1052E000984647446346250CEF191D044B464A4334
:1052F00043432D0C240464199918C91920000CBCCF
:1053000090469946F0BDC046F8B556465F464D46B4
:105310004446F0B40F00FD0FAA4609037C002E009E
:105320005F00450F490A7F0D2943C5001803BC469D
:10533000400A570F640DDB0F3843D2009A4500D165
:10534000AAE06646A61B002E00DCFFE06346002BA9
:1053500039D10300134300D0D9E06B0709D00F23E4
:105360002B40042B05D02B1DAB42AD416D4249199A
:105370001D000B0200D482E0CA4B01349C4200D1D4
:10538000FEE00A005646C84BED081A405007640577
:1053900052020543120B640D002112030B0D1B0575
:1053A0006405120B1A436308C04CF60714401C43F3
:1053B000640064083443280021003CBC90469946B0
:1053C000A246AB46F8BDB74B9C42C6D080231B0417
:1053D0001843382E00DDEBE01F2E00DD1EE12023F8
:1053E0009B1B9C4603006746BB40984613004746FC
:1053F000F3403B436746BA40571EBA41134302008D
:10540000F240EB1A9D42B6411D008A1A7642911B6A
:105410000B0231D54A02560A002E00D1B4E030000A
:1054200001F0F0FB0300083B1F2B00DDB5E020225C
:105430002900D21AD1409E400A009D4032439C422E
:1054400000DDB1E01C1B631C1F2B00DDD5E020211B
:1054500014002800C91A8C40D8408D400443DA401B
:10546000681E854111002543002476E741463143FB
:1054700000D134E2310045466B0700D06FE7564655
:105480004807ED08C9080543864B9C4235D00A03FE
:105490006405120B640D7FE76346E31A9B46002BFD
:1054A00000DC8BE06746002F3CD07E4FBC4200D131
:1054B00053E780273F0438435B46382B00DCF7E096
:1054C0000243501E82410020D2B253194218AB420F
:1054D00089411D00494289180B02CDD5714B013419
:1054E0009C4200D13DE101206F4A6B080A402840F0
:1054F0001843D507054351082FE72B000B4300D174
:10550000CBE180231B030B431A03120B44E7013E3C
:10551000002E6DD1AE1AB5429B41091A5B42C91AE1
:10552000350075E70700174300D116E701235B42FA
:105530009C46E3445B46002B00D0E0E0AA18AA4258
:105540009B4109185B4259181500C5E7002E75D11B
:10555000661C7605760D012E00DCF3E0AE1AB0462F
:105560004545BF410E1A7F42F61B370200D48FE03B
:10557000551BAA42B641411A76428E1B9A464BE70A
:1055800056460022002507E7280001F03BFB2030AB
:105590000300083B1F2B00DC49E72A002838824023
:1055A00000259C4200DC4DE73F49E41A1140D4E657
:1055B0000243501E8241D3B2002222E7002B00D0CA
:1055C000F3E0631C9C465B055B0D012B00DC9FE058
:1055D000344B9C4500D1C3E0AA180918AA42804167
:1055E00040424118CD075208154349086446B4E6C5
:1055F0002C4B9C4200D0ECE6AFE611001F3CE14092
:105600000C00202B00D17FE04021CB1A9A4015439B
:105610006A1E95410021254300242DE73300070031
:10562000203BDF403B00202E70D04027BE1BB04007
:105630000243501E824113430022E2E6002C4FD069
:10564000184CA44500D1ABE08024240476422143C9
:10565000382E00DDDFE01F2E00DD43E12027BC1BDC
:10566000A1460C004F46BC40A0462C004746F440E3
:105670003C434F46BD406F1EBD41F1402C43151BBE
:10568000AA429241411A5242891A64469A46BFE69A
:1056900041464546314300D0BEE6002600240025A1
:1056A000F2E6C046FF070000FFFF7FFFFFFF0F800D
:1056B0001F2B59DC2027FF1ABC46070063469F407A
:1056C0005B46B9461700DF40B8464F4643461F4386
:1056D00063469A40531E9A415B463A43D840F4E6EB
:1056E0000C002C435CD0F643002E55D1551BAA422A
:1056F000A441411A6442091B9A46644688E6964FC3
:10570000BC4200D0D8E628E6002280E700208FE7E0
:105710000B002B43002C00D0C2E0002B00D101E194
:105720000300134300D118E6AB18AB42B641091889
:10573000764271180A0200D409E1884A1D0011401E
:1057400064460AE6002C5BD10E002E4300D08AE0AE
:105750000100114300D1C2E0010015009A46FCE5AA
:105760006446002100258FE620235B429C46DC44F2
:1057700063460700DF405B46BC46202B00D1ACE00F
:1057800040235F46DB1B98400243501E8241634624
:1057900013431A00002098E66F4CA44500D057E749
:1057A0000100150064469A46D7E5002C39D10C005B
:1057B0002C436ED0DB43002B1AD0674CA44568D035
:1057C000382B00DDA4E01F2B00DDAEE020240F000D
:1057D000E41AA740B9462F00DF40B846A3464F461B
:1057E000444627435C46A5406C1EA541D9403D4335
:1057F000AD1895429B4109185B42591864466BE607
:105800000C002C4315D1010011437BD00100150081
:105810009A46514CA1E50D43691E8D410021ECB221
:105820002DE74D4CA44534D0802424045B42214311
:10583000C6E7040014434ED0ED084C072C438025E6
:10584000C9082D03294208D0C6082E4205D1D20826
:10585000410711430C009A463100620FC900E50070
:1058600011433D4C79E50600164300D175E5AE1AAB
:10587000B0464545BF410E1A7F42F61B370200D4A1
:10588000F4E5551BAA42B641411A7642891B9A4655
:1058900063E50100150064465FE5002200257BE515
:1058A000002B3BD00300134315D0ED084B072B43CF
:1058B0008025C9082D03294207D0C4082C4204D1F1
:1058C00041070B002100D2081343C9005A0F1143AE
:1058D000DD00214C41E5204C3FE5002054E7002647
:1058E0000025D1E534000F00203CE7403C00202E8D
:1058F0002BD04027BE1BB1400D43691E8D410021B6
:105900002C43BCE6802100260903134C0025BBE58F
:105910000D43691E8D410021EDB269E701001500BC
:105920000D4C1AE50100150017E51C000F00203C86
:10593000E7403C00202B0CD04027FB1A99400D4338
:10594000691E8D410021254352E70021D4E71D0047
:1059500092E50021F3E7C046FF070000FFFF7FFF4D
:10596000F0B556464D4644465F46F0B41D000E0362
:105970004C00CB0F87B0070092468146360B640D72
:1059800098466AD06D4B9C4235D08022430F12045A
:105990001343F6001E43C3009946694B00279C46FB
:1059A0000023644402932B0368001B0BED0F514648
:1059B0009B46400D009500D178E0604B98426CD03A
:1059C0005B46DA004B0F802109040B4313439B46CF
:1059D0005346D9005A4B9C46002360444246201A45
:1059E0006A40924601901F430F2F00D9B0E05548FE
:1059F000BF00C0598746374300D088E0002399464E
:105A00000233082700260293CDE74346B3464946B2
:105A10000093029B009A9246022B00D0BFE1002126
:105A200053460122002689461A40444B0021360382
:105A30000C0D2405360B2643434C1B0526401E4304
:105A40007600D207760816434846310007B03CBCC2
:105A500090469946A246AB46F0BD330003434FD073
:105A6000002E00D1BCE1300001F0CCF803000B3B6C
:105A70001C2B00DDADE11D220100D31A08393A00CC
:105A80008F408E40DA40B9461643304B00279C4683
:105A9000002360444442029385E753465A46134329
:105AA0002CD1002300219B46023397E70B4320D0E3
:105AB0005B46002B00D19EE1584601F0A3F803009D
:105AC0000B3B1C2B00DD8FE102005946083A914048
:105AD0008B461D21CB1A5146D9400B0059460B432A
